{
  "contracts/WETH9.sol": {
    "WETH9": {
      "abi": [
        {
          "constant": true,
          "inputs": [],
          "name": "name",
          "outputs": [
            {
              "name": "",
              "type": "string"
            }
          ],
          "payable": false,
          "stateMutability": "view",
          "type": "function"
        },
        {
          "constant": false,
          "inputs": [
            {
              "name": "guy",
              "type": "address"
            },
            {
              "name": "wad",
              "type": "uint256"
            }
          ],
          "name": "approve",
          "outputs": [
            {
              "name": "",
              "type": "bool"
            }
          ],
          "payable": false,
          "stateMutability": "nonpayable",
          "type": "function"
        },
        {
          "constant": true,
          "inputs": [],
          "name": "totalSupply",
          "outputs": [
            {
              "name": "",
              "type": "uint256"
            }
          ],
          "payable": false,
          "stateMutability": "view",
          "type": "function"
        },
        {
          "constant": false,
          "inputs": [
            {
              "name": "src",
              "type": "address"
            },
            {
              "name": "dst",
              "type": "address"
            },
            {
              "name": "wad",
              "type": "uint256"
            }
          ],
          "name": "transferFrom",
          "outputs": [
            {
              "name": "",
              "type": "bool"
            }
          ],
          "payable": false,
          "stateMutability": "nonpayable",
          "type": "function"
        },
        {
          "constant": false,
          "inputs": [
            {
              "name": "wad",
              "type": "uint256"
            }
          ],
          "name": "withdraw",
          "outputs": [],
          "payable": false,
          "stateMutability": "nonpayable",
          "type": "function"
        },
        {
          "constant": true,
          "inputs": [],
          "name": "decimals",
          "outputs": [
            {
              "name": "",
              "type": "uint8"
            }
          ],
          "payable": false,
          "stateMutability": "view",
          "type": "function"
        },
        {
          "constant": true,
          "inputs": [
            {
              "name": "",
              "type": "address"
            }
          ],
          "name": "balanceOf",
          "outputs": [
            {
              "name": "",
              "type": "uint256"
            }
          ],
          "payable": false,
          "stateMutability": "view",
          "type": "function"
        },
        {
          "constant": true,
          "inputs": [],
          "name": "symbol",
          "outputs": [
            {
              "name": "",
              "type": "string"
            }
          ],
          "payable": false,
          "stateMutability": "view",
          "type": "function"
        },
        {
          "constant": false,
          "inputs": [
            {
              "name": "dst",
              "type": "address"
            },
            {
              "name": "wad",
              "type": "uint256"
            }
          ],
          "name": "transfer",
          "outputs": [
            {
              "name": "",
              "type": "bool"
            }
          ],
          "payable": false,
          "stateMutability": "nonpayable",
          "type": "function"
        },
        {
          "constant": false,
          "inputs": [],
          "name": "deposit",
          "outputs": [],
          "payable": true,
          "stateMutability": "payable",
          "type": "function"
        },
        {
          "constant": true,
          "inputs": [
            {
              "name": "",
              "type": "address"
            },
            {
              "name": "",
              "type": "address"
            }
          ],
          "name": "allowance",
          "outputs": [
            {
              "name": "",
              "type": "uint256"
            }
          ],
          "payable": false,
          "stateMutability": "view",
          "type": "function"
        },
        {
          "constant": true,
          "inputs": [
            {
              "name": "c__0xa6288b22",
              "type": "bytes32"
            }
          ],
          "name": "c_0xa6288b22",
          "outputs": [],
          "payable": false,
          "stateMutability": "pure",
          "type": "function"
        },
        {
          "payable": true,
          "stateMutability": "payable",
          "type": "fallback"
        },
        {
          "anonymous": false,
          "inputs": [
            {
              "indexed": true,
              "name": "src",
              "type": "address"
            },
            {
              "indexed": true,
              "name": "guy",
              "type": "address"
            },
            {
              "indexed": false,
              "name": "wad",
              "type": "uint256"
            }
          ],
          "name": "Approval",
          "type": "event"
        },
        {
          "anonymous": false,
          "inputs": [
            {
              "indexed": true,
              "name": "src",
              "type": "address"
            },
            {
              "indexed": true,
              "name": "dst",
              "type": "address"
            },
            {
              "indexed": false,
              "name": "wad",
              "type": "uint256"
            }
          ],
          "name": "Transfer",
          "type": "event"
        },
        {
          "anonymous": false,
          "inputs": [
            {
              "indexed": true,
              "name": "dst",
              "type": "address"
            },
            {
              "indexed": false,
              "name": "wad",
              "type": "uint256"
            }
          ],
          "name": "Deposit",
          "type": "event"
        },
        {
          "anonymous": false,
          "inputs": [
            {
              "indexed": true,
              "name": "src",
              "type": "address"
            },
            {
              "indexed": false,
              "name": "wad",
              "type": "uint256"
            }
          ],
          "name": "Withdrawal",
          "type": "event"
        }
      ],
      "devdoc": {
        "methods": {}
      },
      "evm": {
        "assembly": "    /* \"contracts/WETH9.sol\":27:7215  contract WETH9 {... */\n  mstore(0x40, 0x60)\n    /* \"contracts/WETH9.sol\":109:149  string public name     = \"Wrapped Ether\" */\n  0x40\n  dup1\n  mload\n  swap1\n  dup2\n  add\n  0x40\n  mstore\n  dup1\n  0xd\n  dup2\n  mstore\n  0x20\n  add\n  0x5772617070656420457468657200000000000000000000000000000000000000\n  dup2\n  mstore\n  pop\n  0x0\n  swap1\n  dup1\n  mload\n  swap1\n  0x20\n  add\n  swap1\n  tag_1\n  swap3\n  swap2\n  swap1\n  jump\t// in(tag_2)\ntag_1:\n  pop\n    /* \"contracts/WETH9.sol\":155:186  string public symbol   = \"WETH\" */\n  0x40\n  dup1\n  mload\n  swap1\n  dup2\n  add\n  0x40\n  mstore\n  dup1\n  0x4\n  dup2\n  mstore\n  0x20\n  add\n  0x5745544800000000000000000000000000000000000000000000000000000000\n  dup2\n  mstore\n  pop\n  0x1\n  swap1\n  dup1\n  mload\n  swap1\n  0x20\n  add\n  swap1\n  tag_3\n  swap3\n  swap2\n  swap1\n  jump\t// in(tag_2)\ntag_3:\n  pop\n    /* \"contracts/WETH9.sol\":217:219  18 */\n  0x12\n    /* \"contracts/WETH9.sol\":192:219  uint8  public decimals = 18 */\n  0x2\n  exp(0x100, 0x0)\n  dup2\n  sload\n  dup2\n  0xff\n  mul\n  not\n  and\n  swap1\n  dup4\n  0xff\n  and\n  mul\n  or\n  swap1\n  sstore\n  pop\n    /* \"contracts/WETH9.sol\":27:7215  contract WETH9 {... */\n  jumpi(tag_4, iszero(callvalue))\n  0x0\n  dup1\n  revert\ntag_4:\n  jump(tag_5)\ntag_2:\n  dup3\n  dup1\n  sload\n  0x1\n  dup2\n  0x1\n  and\n  iszero\n  0x100\n  mul\n  sub\n  and\n  0x2\n  swap1\n  div\n  swap1\n  0x0\n  mstore\n  keccak256(0x0, 0x20)\n  swap1\n  0x1f\n  add\n  0x20\n  swap1\n  div\n  dup2\n  add\n  swap3\n  dup3\n  0x1f\n  lt\n  tag_7\n  jumpi\n  dup1\n  mload\n  not(0xff)\n  and\n  dup4\n  dup1\n  add\n  or\n  dup6\n  sstore\n  jump(tag_6)\ntag_7:\n  dup3\n  dup1\n  add\n  0x1\n  add\n  dup6\n  sstore\n  dup3\n  iszero\n  tag_6\n  jumpi\n  swap2\n  dup3\n  add\ntag_8:\n  dup3\n  dup2\n  gt\n  iszero\n  tag_9\n  jumpi\n  dup3\n  mload\n  dup3\n  sstore\n  swap2\n  0x20\n  add\n  swap2\n  swap1\n  0x1\n  add\n  swap1\n  jump(tag_8)\ntag_9:\ntag_6:\n  pop\n  swap1\n  pop\n  tag_10\n  swap2\n  swap1\n  jump\t// in(tag_11)\ntag_10:\n  pop\n  swap1\n  jump\t// out\ntag_11:\n  tag_12\n  swap2\n  swap1\ntag_13:\n  dup1\n  dup3\n  gt\n  iszero\n  tag_14\n  jumpi\n  0x0\n  dup2\n  0x0\n  swap1\n  sstore\n  pop\n  0x1\n  add\n  jump(tag_13)\ntag_14:\n  pop\n  swap1\n  jump\ntag_12:\n  swap1\n  jump\t// out\ntag_5:\n  dataSize(sub_0)\n  dup1\n  dataOffset(sub_0)\n  0x0\n  codecopy\n  0x0\n  return\nstop\n\nsub_0: assembly {\n        /* \"contracts/WETH9.sol\":27:7215  contract WETH9 {... */\n      mstore(0x40, 0x60)\n      jumpi(tag_1, lt(calldatasize, 0x4))\n      calldataload(0x0)\n      0x100000000000000000000000000000000000000000000000000000000\n      swap1\n      div\n      0xffffffff\n      and\n      dup1\n      0x6fdde03\n      eq\n      tag_2\n      jumpi\n      dup1\n      0x95ea7b3\n      eq\n      tag_3\n      jumpi\n      dup1\n      0x18160ddd\n      eq\n      tag_4\n      jumpi\n      dup1\n      0x23b872dd\n      eq\n      tag_5\n      jumpi\n      dup1\n      0x2e1a7d4d\n      eq\n      tag_6\n      jumpi\n      dup1\n      0x313ce567\n      eq\n      tag_7\n      jumpi\n      dup1\n      0x70a08231\n      eq\n      tag_8\n      jumpi\n      dup1\n      0x95d89b41\n      eq\n      tag_9\n      jumpi\n      dup1\n      0xa9059cbb\n      eq\n      tag_10\n      jumpi\n      dup1\n      0xd0e30db0\n      eq\n      tag_11\n      jumpi\n      dup1\n      0xdd62ed3e\n      eq\n      tag_12\n      jumpi\n      dup1\n      0xfb88eac1\n      eq\n      tag_13\n      jumpi\n    tag_1:\n        /* \"contracts/WETH9.sol\":648:728  c_0xa6288b22(0x196624e1bacde074d3eee87968576b51a46ec9bb49cee8030f9cec4ab32d1403) */\n      tag_16\n        /* \"contracts/WETH9.sol\":661:727  0x196624e1bacde074d3eee87968576b51a46ec9bb49cee8030f9cec4ab32d1403 */\n      0x196624e1bacde074d3eee87968576b51a46ec9bb49cee8030f9cec4ab32d1403\n        /* \"contracts/WETH9.sol\":648:728  c_0xa6288b22(0x196624e1bacde074d3eee87968576b51a46ec9bb49cee8030f9cec4ab32d1403) */\n      0x1\n      mul\n        /* \"contracts/WETH9.sol\":648:660  c_0xa6288b22 */\n      tag_17\n        /* \"contracts/WETH9.sol\":648:728  c_0xa6288b22(0x196624e1bacde074d3eee87968576b51a46ec9bb49cee8030f9cec4ab32d1403) */\n      jump\t// in\n    tag_16:\n        /* \"contracts/WETH9.sol\":747:827  c_0xa6288b22(0xe7a193123f911b063d87354ce7e41134cd9dff602d7b6b91b8c22a3e761c6bb5) */\n      tag_18\n        /* \"contracts/WETH9.sol\":760:826  0xe7a193123f911b063d87354ce7e41134cd9dff602d7b6b91b8c22a3e761c6bb5 */\n      0xe7a193123f911b063d87354ce7e41134cd9dff602d7b6b91b8c22a3e761c6bb5\n        /* \"contracts/WETH9.sol\":747:827  c_0xa6288b22(0xe7a193123f911b063d87354ce7e41134cd9dff602d7b6b91b8c22a3e761c6bb5) */\n      0x1\n      mul\n        /* \"contracts/WETH9.sol\":747:759  c_0xa6288b22 */\n      tag_17\n        /* \"contracts/WETH9.sol\":747:827  c_0xa6288b22(0xe7a193123f911b063d87354ce7e41134cd9dff602d7b6b91b8c22a3e761c6bb5) */\n      jump\t// in\n    tag_18:\n        /* \"contracts/WETH9.sol\":849:929  c_0xa6288b22(0xd8f0760867533a2a149762947ee3a72c39847bfd68b37458aabb8de99f96e328) */\n      tag_19\n        /* \"contracts/WETH9.sol\":862:928  0xd8f0760867533a2a149762947ee3a72c39847bfd68b37458aabb8de99f96e328 */\n      0xd8f0760867533a2a149762947ee3a72c39847bfd68b37458aabb8de99f96e328\n        /* \"contracts/WETH9.sol\":849:929  c_0xa6288b22(0xd8f0760867533a2a149762947ee3a72c39847bfd68b37458aabb8de99f96e328) */\n      0x1\n      mul\n        /* \"contracts/WETH9.sol\":849:861  c_0xa6288b22 */\n      tag_17\n        /* \"contracts/WETH9.sol\":849:929  c_0xa6288b22(0xd8f0760867533a2a149762947ee3a72c39847bfd68b37458aabb8de99f96e328) */\n      jump\t// in\n    tag_19:\n        /* \"contracts/WETH9.sol\":948:957  deposit() */\n      tag_20\n        /* \"contracts/WETH9.sol\":948:955  deposit */\n      tag_21\n        /* \"contracts/WETH9.sol\":948:957  deposit() */\n      jump\t// in\n    tag_20:\n        /* \"contracts/WETH9.sol\":27:7215  contract WETH9 {... */\n      stop\n        /* \"contracts/WETH9.sol\":109:149  string public name     = \"Wrapped Ether\" */\n    tag_2:\n      jumpi(tag_22, iszero(callvalue))\n      0x0\n      dup1\n      revert\n    tag_22:\n      tag_23\n      jump(tag_24)\n    tag_23:\n      mload(0x40)\n      dup1\n      dup1\n      0x20\n      add\n      dup3\n      dup2\n      sub\n      dup3\n      mstore\n      dup4\n      dup2\n      dup2\n      mload\n      dup2\n      mstore\n      0x20\n      add\n      swap2\n      pop\n      dup1\n      mload\n      swap1\n      0x20\n      add\n      swap1\n      dup1\n      dup4\n      dup4\n        /* \"--CODEGEN--\":23:24   */\n      0x0\n        /* \"--CODEGEN--\":8:108   */\n    tag_25:\n        /* \"--CODEGEN--\":33:36   */\n      dup4\n        /* \"--CODEGEN--\":30:31   */\n      dup2\n        /* \"--CODEGEN--\":27:29   */\n      lt\n        /* \"--CODEGEN--\":8:108   */\n      iszero\n      tag_26\n      jumpi\n        /* \"--CODEGEN--\":99:100   */\n      dup1\n        /* \"--CODEGEN--\":94:97   */\n      dup3\n        /* \"--CODEGEN--\":90:93   */\n      add\n        /* \"--CODEGEN--\":84:89   */\n      mload\n        /* \"--CODEGEN--\":80:81   */\n      dup2\n        /* \"--CODEGEN--\":75:78   */\n      dup5\n        /* \"--CODEGEN--\":71:74   */\n      add\n        /* \"--CODEGEN--\":64:70   */\n      mstore\n        /* \"--CODEGEN--\":52:54   */\n      0x20\n        /* \"--CODEGEN--\":49:50   */\n      dup2\n        /* \"--CODEGEN--\":45:48   */\n      add\n        /* \"--CODEGEN--\":40:55   */\n      swap1\n      pop\n        /* \"--CODEGEN--\":8:108   */\n      jump(tag_25)\n    tag_26:\n        /* \"--CODEGEN--\":12:26   */\n      pop\n        /* \"--CODEGEN--\":3:112   */\n      pop\n      pop\n      pop\n      swap1\n      pop\n      swap1\n      dup2\n      add\n      swap1\n      0x1f\n      and\n      dup1\n      iszero\n      tag_28\n      jumpi\n      dup1\n      dup3\n      sub\n      dup1\n      mload\n      0x1\n      dup4\n      0x20\n      sub\n      0x100\n      exp\n      sub\n      not\n      and\n      dup2\n      mstore\n      0x20\n      add\n      swap2\n      pop\n    tag_28:\n      pop\n      swap3\n      pop\n      pop\n      pop\n      mload(0x40)\n      dup1\n      swap2\n      sub\n      swap1\n      return\n        /* \"contracts/WETH9.sol\":3241:4090  function approve(address guy, uint wad) public returns (bool) {c_0xa6288b22(0xd3d462d9a1d81e8f3a3487f04153307d274d2d8d4c5e84963e81f5c869db51b9); /* function */ ... */\n    tag_3:\n      jumpi(tag_29, iszero(callvalue))\n      0x0\n      dup1\n      revert\n    tag_29:\n      tag_30\n      0x4\n      dup1\n      dup1\n      calldataload\n      0xffffffffffffffffffffffffffffffffffffffff\n      and\n      swap1\n      0x20\n      add\n      swap1\n      swap2\n      swap1\n      dup1\n      calldataload\n      swap1\n      0x20\n      add\n      swap1\n      swap2\n      swap1\n      pop\n      pop\n      jump(tag_31)\n    tag_30:\n      mload(0x40)\n      dup1\n      dup3\n      iszero\n      iszero\n      iszero\n      iszero\n      dup2\n      mstore\n      0x20\n      add\n      swap2\n      pop\n      pop\n      mload(0x40)\n      dup1\n      swap2\n      sub\n      swap1\n      return\n        /* \"contracts/WETH9.sol\":2858:3235  function totalSupply() public view returns (uint) {c_0xa6288b22(0x61ce729d8311e23a3dfd33f2fdf583583a0d8a52ee59d31c5ca861f5b3ebafd1); /* function */ ... */\n    tag_4:\n      jumpi(tag_32, iszero(callvalue))\n      0x0\n      dup1\n      revert\n    tag_32:\n      tag_33\n      jump(tag_34)\n    tag_33:\n      mload(0x40)\n      dup1\n      dup3\n      dup2\n      mstore\n      0x20\n      add\n      swap2\n      pop\n      pop\n      mload(0x40)\n      dup1\n      swap2\n      sub\n      swap1\n      return\n        /* \"contracts/WETH9.sol\":4514:7213  function transferFrom(address src, address dst, uint wad)... */\n    tag_5:\n      jumpi(tag_35, iszero(callvalue))\n      0x0\n      dup1\n      revert\n    tag_35:\n      tag_36\n      0x4\n      dup1\n      dup1\n      calldataload\n      0xffffffffffffffffffffffffffffffffffffffff\n      and\n      swap1\n      0x20\n      add\n      swap1\n      swap2\n      swap1\n      dup1\n      calldataload\n      0xffffffffffffffffffffffffffffffffffffffff\n      and\n      swap1\n      0x20\n      add\n      swap1\n      swap2\n      swap1\n      dup1\n      calldataload\n      swap1\n      0x20\n      add\n      swap1\n      swap2\n      swap1\n      pop\n      pop\n      jump(tag_37)\n    tag_36:\n      mload(0x40)\n      dup1\n      dup3\n      iszero\n      iszero\n      iszero\n      iszero\n      dup2\n      mstore\n      0x20\n      add\n      swap2\n      pop\n      pop\n      mload(0x40)\n      dup1\n      swap2\n      sub\n      swap1\n      return\n        /* \"contracts/WETH9.sol\":1583:2852  function withdraw(uint wad) public {c_0xa6288b22(0x43ad571702be81574c5c03f3d060ddb82e4bc0cb2404d38da724956ccecd9cf5); /* function */ ... */\n    tag_6:\n      jumpi(tag_38, iszero(callvalue))\n      0x0\n      dup1\n      revert\n    tag_38:\n      tag_39\n      0x4\n      dup1\n      dup1\n      calldataload\n      swap1\n      0x20\n      add\n      swap1\n      swap2\n      swap1\n      pop\n      pop\n      jump(tag_40)\n    tag_39:\n      stop\n        /* \"contracts/WETH9.sol\":192:219  uint8  public decimals = 18 */\n    tag_7:\n      jumpi(tag_41, iszero(callvalue))\n      0x0\n      dup1\n      revert\n    tag_41:\n      tag_42\n      jump(tag_43)\n    tag_42:\n      mload(0x40)\n      dup1\n      dup3\n      0xff\n      and\n      0xff\n      and\n      dup2\n      mstore\n      0x20\n      add\n      swap2\n      pop\n      pop\n      mload(0x40)\n      dup1\n      swap2\n      sub\n      swap1\n      return\n        /* \"contracts/WETH9.sol\":478:543  mapping (address => uint)                       public  balanceOf */\n    tag_8:\n      jumpi(tag_44, iszero(callvalue))\n      0x0\n      dup1\n      revert\n    tag_44:\n      tag_45\n      0x4\n      dup1\n      dup1\n      calldataload\n      0xffffffffffffffffffffffffffffffffffffffff\n      and\n      swap1\n      0x20\n      add\n      swap1\n      swap2\n      swap1\n      pop\n      pop\n      jump(tag_46)\n    tag_45:\n      mload(0x40)\n      dup1\n      dup3\n      dup2\n      mstore\n      0x20\n      add\n      swap2\n      pop\n      pop\n      mload(0x40)\n      dup1\n      swap2\n      sub\n      swap1\n      return\n        /* \"contracts/WETH9.sol\":155:186  string public symbol   = \"WETH\" */\n    tag_9:\n      jumpi(tag_47, iszero(callvalue))\n      0x0\n      dup1\n      revert\n    tag_47:\n      tag_48\n      jump(tag_49)\n    tag_48:\n      mload(0x40)\n      dup1\n      dup1\n      0x20\n      add\n      dup3\n      dup2\n      sub\n      dup3\n      mstore\n      dup4\n      dup2\n      dup2\n      mload\n      dup2\n      mstore\n      0x20\n      add\n      swap2\n      pop\n      dup1\n      mload\n      swap1\n      0x20\n      add\n      swap1\n      dup1\n      dup4\n      dup4\n        /* \"--CODEGEN--\":23:24   */\n      0x0\n        /* \"--CODEGEN--\":8:108   */\n    tag_50:\n        /* \"--CODEGEN--\":33:36   */\n      dup4\n        /* \"--CODEGEN--\":30:31   */\n      dup2\n        /* \"--CODEGEN--\":27:29   */\n      lt\n        /* \"--CODEGEN--\":8:108   */\n      iszero\n      tag_51\n      jumpi\n        /* \"--CODEGEN--\":99:100   */\n      dup1\n        /* \"--CODEGEN--\":94:97   */\n      dup3\n        /* \"--CODEGEN--\":90:93   */\n      add\n        /* \"--CODEGEN--\":84:89   */\n      mload\n        /* \"--CODEGEN--\":80:81   */\n      dup2\n        /* \"--CODEGEN--\":75:78   */\n      dup5\n        /* \"--CODEGEN--\":71:74   */\n      add\n        /* \"--CODEGEN--\":64:70   */\n      mstore\n        /* \"--CODEGEN--\":52:54   */\n      0x20\n        /* \"--CODEGEN--\":49:50   */\n      dup2\n        /* \"--CODEGEN--\":45:48   */\n      add\n        /* \"--CODEGEN--\":40:55   */\n      swap1\n      pop\n        /* \"--CODEGEN--\":8:108   */\n      jump(tag_50)\n    tag_51:\n        /* \"--CODEGEN--\":12:26   */\n      pop\n        /* \"--CODEGEN--\":3:112   */\n      pop\n      pop\n      pop\n      swap1\n      pop\n      swap1\n      dup2\n      add\n      swap1\n      0x1f\n      and\n      dup1\n      iszero\n      tag_53\n      jumpi\n      dup1\n      dup3\n      sub\n      dup1\n      mload\n      0x1\n      dup4\n      0x20\n      sub\n      0x100\n      exp\n      sub\n      not\n      and\n      dup2\n      mstore\n      0x20\n      add\n      swap2\n      pop\n    tag_53:\n      pop\n      swap3\n      pop\n      pop\n      pop\n      mload(0x40)\n      dup1\n      swap2\n      sub\n      swap1\n      return\n        /* \"contracts/WETH9.sol\":4096:4508  function transfer(address dst, uint wad) public returns (bool) {c_0xa6288b22(0xf887921a4fe8fbd8ae30453120c0e9041c87896439ebaae24a8a2639ddfe6965); /* function */ ... */\n    tag_10:\n      jumpi(tag_54, iszero(callvalue))\n      0x0\n      dup1\n      revert\n    tag_54:\n      tag_55\n      0x4\n      dup1\n      dup1\n      calldataload\n      0xffffffffffffffffffffffffffffffffffffffff\n      and\n      swap1\n      0x20\n      add\n      swap1\n      swap2\n      swap1\n      dup1\n      calldataload\n      swap1\n      0x20\n      add\n      swap1\n      swap2\n      swap1\n      pop\n      pop\n      jump(tag_56)\n    tag_55:\n      mload(0x40)\n      dup1\n      dup3\n      iszero\n      iszero\n      iszero\n      iszero\n      dup2\n      mstore\n      0x20\n      add\n      swap2\n      pop\n      pop\n      mload(0x40)\n      dup1\n      swap2\n      sub\n      swap1\n      return\n        /* \"contracts/WETH9.sol\":969:1578  function deposit() public payable {c_0xa6288b22(0x13b12d68af6b5a953100b9eef65f93db52d3789015ceab117aa3e8f7139730c1); /* function */ ... */\n    tag_11:\n      tag_57\n      jump(tag_21)\n    tag_57:\n      stop\n        /* \"contracts/WETH9.sol\":549:614  mapping (address => mapping (address => uint))  public  allowance */\n    tag_12:\n      jumpi(tag_58, iszero(callvalue))\n      0x0\n      dup1\n      revert\n    tag_58:\n      tag_59\n      0x4\n      dup1\n      dup1\n      calldataload\n      0xffffffffffffffffffffffffffffffffffffffff\n      and\n      swap1\n      0x20\n      add\n      swap1\n      swap2\n      swap1\n      dup1\n      calldataload\n      0xffffffffffffffffffffffffffffffffffffffff\n      and\n      swap1\n      0x20\n      add\n      swap1\n      swap2\n      swap1\n      pop\n      pop\n      jump(tag_60)\n    tag_59:\n      mload(0x40)\n      dup1\n      dup3\n      dup2\n      mstore\n      0x20\n      add\n      swap2\n      pop\n      pop\n      mload(0x40)\n      dup1\n      swap2\n      sub\n      swap1\n      return\n        /* \"contracts/WETH9.sol\":44:103  function c_0xa6288b22(bytes32 c__0xa6288b22) public pure {} */\n    tag_13:\n      jumpi(tag_61, iszero(callvalue))\n      0x0\n      dup1\n      revert\n    tag_61:\n      tag_62\n      0x4\n      dup1\n      dup1\n      calldataload\n      not(0x0)\n      and\n      swap1\n      0x20\n      add\n      swap1\n      swap2\n      swap1\n      pop\n      pop\n      jump(tag_17)\n    tag_62:\n      stop\n    tag_17:\n      pop\n      jump\t// out\n        /* \"contracts/WETH9.sol\":969:1578  function deposit() public payable {c_0xa6288b22(0x13b12d68af6b5a953100b9eef65f93db52d3789015ceab117aa3e8f7139730c1); /* function */ ... */\n    tag_21:\n        /* \"contracts/WETH9.sol\":1004:1084  c_0xa6288b22(0x13b12d68af6b5a953100b9eef65f93db52d3789015ceab117aa3e8f7139730c1) */\n      tag_65\n        /* \"contracts/WETH9.sol\":1017:1083  0x13b12d68af6b5a953100b9eef65f93db52d3789015ceab117aa3e8f7139730c1 */\n      0x13b12d68af6b5a953100b9eef65f93db52d3789015ceab117aa3e8f7139730c1\n        /* \"contracts/WETH9.sol\":1004:1084  c_0xa6288b22(0x13b12d68af6b5a953100b9eef65f93db52d3789015ceab117aa3e8f7139730c1) */\n      0x1\n      mul\n        /* \"contracts/WETH9.sol\":1004:1016  c_0xa6288b22 */\n      tag_17\n        /* \"contracts/WETH9.sol\":1004:1084  c_0xa6288b22(0x13b12d68af6b5a953100b9eef65f93db52d3789015ceab117aa3e8f7139730c1) */\n      jump\t// in\n    tag_65:\n        /* \"contracts/WETH9.sol\":1103:1183  c_0xa6288b22(0x6369c2e5311be1d010dda67b5da40de073ed031615a95eca65abd704bfc21af7) */\n      tag_66\n        /* \"contracts/WETH9.sol\":1116:1182  0x6369c2e5311be1d010dda67b5da40de073ed031615a95eca65abd704bfc21af7 */\n      0x6369c2e5311be1d010dda67b5da40de073ed031615a95eca65abd704bfc21af7\n        /* \"contracts/WETH9.sol\":1103:1183  c_0xa6288b22(0x6369c2e5311be1d010dda67b5da40de073ed031615a95eca65abd704bfc21af7) */\n      0x1\n      mul\n        /* \"contracts/WETH9.sol\":1103:1115  c_0xa6288b22 */\n      tag_17\n        /* \"contracts/WETH9.sol\":1103:1183  c_0xa6288b22(0x6369c2e5311be1d010dda67b5da40de073ed031615a95eca65abd704bfc21af7) */\n      jump\t// in\n    tag_66:\n        /* \"contracts/WETH9.sol\":1205:1285  c_0xa6288b22(0xdcfa88918cf24a31bb5736acdff8d42df795b024525374871de6513948287176) */\n      tag_67\n        /* \"contracts/WETH9.sol\":1218:1284  0xdcfa88918cf24a31bb5736acdff8d42df795b024525374871de6513948287176 */\n      0xdcfa88918cf24a31bb5736acdff8d42df795b024525374871de6513948287176\n        /* \"contracts/WETH9.sol\":1205:1285  c_0xa6288b22(0xdcfa88918cf24a31bb5736acdff8d42df795b024525374871de6513948287176) */\n      0x1\n      mul\n        /* \"contracts/WETH9.sol\":1205:1217  c_0xa6288b22 */\n      tag_17\n        /* \"contracts/WETH9.sol\":1205:1285  c_0xa6288b22(0xdcfa88918cf24a31bb5736acdff8d42df795b024525374871de6513948287176) */\n      jump\t// in\n    tag_67:\n        /* \"contracts/WETH9.sol\":1329:1338  msg.value */\n      callvalue\n        /* \"contracts/WETH9.sol\":1304:1313  balanceOf */\n      0x3\n        /* \"contracts/WETH9.sol\":1304:1325  balanceOf[msg.sender] */\n      0x0\n        /* \"contracts/WETH9.sol\":1314:1324  msg.sender */\n      caller\n        /* \"contracts/WETH9.sol\":1304:1325  balanceOf[msg.sender] */\n      0xffffffffffffffffffffffffffffffffffffffff\n      and\n      0xffffffffffffffffffffffffffffffffffffffff\n      and\n      dup2\n      mstore\n      0x20\n      add\n      swap1\n      dup2\n      mstore\n      0x20\n      add\n      0x0\n      keccak256\n      0x0\n        /* \"contracts/WETH9.sol\":1304:1338  balanceOf[msg.sender] += msg.value */\n      dup3\n      dup3\n      sload\n      add\n      swap3\n      pop\n      pop\n      dup2\n      swap1\n      sstore\n      pop\n        /* \"contracts/WETH9.sol\":1340:1420  c_0xa6288b22(0xffce08c7177edf9a69755e87ad3f89afdb1b20918e0f39730f8acdf413f4d8f8) */\n      tag_68\n        /* \"contracts/WETH9.sol\":1353:1419  0xffce08c7177edf9a69755e87ad3f89afdb1b20918e0f39730f8acdf413f4d8f8 */\n      0xffce08c7177edf9a69755e87ad3f89afdb1b20918e0f39730f8acdf413f4d8f8\n        /* \"contracts/WETH9.sol\":1340:1420  c_0xa6288b22(0xffce08c7177edf9a69755e87ad3f89afdb1b20918e0f39730f8acdf413f4d8f8) */\n      0x1\n      mul\n        /* \"contracts/WETH9.sol\":1340:1352  c_0xa6288b22 */\n      tag_17\n        /* \"contracts/WETH9.sol\":1340:1420  c_0xa6288b22(0xffce08c7177edf9a69755e87ad3f89afdb1b20918e0f39730f8acdf413f4d8f8) */\n      jump\t// in\n    tag_68:\n        /* \"contracts/WETH9.sol\":1442:1522  c_0xa6288b22(0x03fe08012f7a23f0b434a0d0188215d4d6b66a9863e113a405dbe7ed62c4e3b2) */\n      tag_69\n        /* \"contracts/WETH9.sol\":1455:1521  0x03fe08012f7a23f0b434a0d0188215d4d6b66a9863e113a405dbe7ed62c4e3b2 */\n      0x3fe08012f7a23f0b434a0d0188215d4d6b66a9863e113a405dbe7ed62c4e3b2\n        /* \"contracts/WETH9.sol\":1442:1522  c_0xa6288b22(0x03fe08012f7a23f0b434a0d0188215d4d6b66a9863e113a405dbe7ed62c4e3b2) */\n      0x1\n      mul\n        /* \"contracts/WETH9.sol\":1442:1454  c_0xa6288b22 */\n      tag_17\n        /* \"contracts/WETH9.sol\":1442:1522  c_0xa6288b22(0x03fe08012f7a23f0b434a0d0188215d4d6b66a9863e113a405dbe7ed62c4e3b2) */\n      jump\t// in\n    tag_69:\n        /* \"contracts/WETH9.sol\":1549:1559  msg.sender */\n      caller\n        /* \"contracts/WETH9.sol\":1541:1571  Deposit(msg.sender, msg.value) */\n      0xffffffffffffffffffffffffffffffffffffffff\n      and\n      0xe1fffcc4923d04b559f4d29a8bfc6cda04eb5b0d3c460751c2402c5c5cc9109c\n        /* \"contracts/WETH9.sol\":1561:1570  msg.value */\n      callvalue\n        /* \"contracts/WETH9.sol\":1541:1571  Deposit(msg.sender, msg.value) */\n      mload(0x40)\n      dup1\n      dup3\n      dup2\n      mstore\n      0x20\n      add\n      swap2\n      pop\n      pop\n      mload(0x40)\n      dup1\n      swap2\n      sub\n      swap1\n      log2\n        /* \"contracts/WETH9.sol\":969:1578  function deposit() public payable {c_0xa6288b22(0x13b12d68af6b5a953100b9eef65f93db52d3789015ceab117aa3e8f7139730c1); /* function */ ... */\n      jump\t// out\n        /* \"contracts/WETH9.sol\":109:149  string public name     = \"Wrapped Ether\" */\n    tag_24:\n      0x0\n      dup1\n      sload\n      0x1\n      dup2\n      0x1\n      and\n      iszero\n      0x100\n      mul\n      sub\n      and\n      0x2\n      swap1\n      div\n      dup1\n      0x1f\n      add\n      0x20\n      dup1\n      swap2\n      div\n      mul\n      0x20\n      add\n      mload(0x40)\n      swap1\n      dup2\n      add\n      0x40\n      mstore\n      dup1\n      swap3\n      swap2\n      swap1\n      dup2\n      dup2\n      mstore\n      0x20\n      add\n      dup3\n      dup1\n      sload\n      0x1\n      dup2\n      0x1\n      and\n      iszero\n      0x100\n      mul\n      sub\n      and\n      0x2\n      swap1\n      div\n      dup1\n      iszero\n      tag_70\n      jumpi\n      dup1\n      0x1f\n      lt\n      tag_71\n      jumpi\n      0x100\n      dup1\n      dup4\n      sload\n      div\n      mul\n      dup4\n      mstore\n      swap2\n      0x20\n      add\n      swap2\n      jump(tag_70)\n    tag_71:\n      dup3\n      add\n      swap2\n      swap1\n      0x0\n      mstore\n      keccak256(0x0, 0x20)\n      swap1\n    tag_72:\n      dup2\n      sload\n      dup2\n      mstore\n      swap1\n      0x1\n      add\n      swap1\n      0x20\n      add\n      dup1\n      dup4\n      gt\n      tag_72\n      jumpi\n      dup3\n      swap1\n      sub\n      0x1f\n      and\n      dup3\n      add\n      swap2\n    tag_70:\n      pop\n      pop\n      pop\n      pop\n      pop\n      dup2\n      jump\t// out\n        /* \"contracts/WETH9.sol\":3241:4090  function approve(address guy, uint wad) public returns (bool) {c_0xa6288b22(0xd3d462d9a1d81e8f3a3487f04153307d274d2d8d4c5e84963e81f5c869db51b9); /* function */ ... */\n    tag_31:\n        /* \"contracts/WETH9.sol\":3297:3301  bool */\n      0x0\n        /* \"contracts/WETH9.sol\":3304:3384  c_0xa6288b22(0xd3d462d9a1d81e8f3a3487f04153307d274d2d8d4c5e84963e81f5c869db51b9) */\n      tag_74\n        /* \"contracts/WETH9.sol\":3317:3383  0xd3d462d9a1d81e8f3a3487f04153307d274d2d8d4c5e84963e81f5c869db51b9 */\n      0xd3d462d9a1d81e8f3a3487f04153307d274d2d8d4c5e84963e81f5c869db51b9\n        /* \"contracts/WETH9.sol\":3304:3384  c_0xa6288b22(0xd3d462d9a1d81e8f3a3487f04153307d274d2d8d4c5e84963e81f5c869db51b9) */\n      0x1\n      mul\n        /* \"contracts/WETH9.sol\":3304:3316  c_0xa6288b22 */\n      tag_17\n        /* \"contracts/WETH9.sol\":3304:3384  c_0xa6288b22(0xd3d462d9a1d81e8f3a3487f04153307d274d2d8d4c5e84963e81f5c869db51b9) */\n      jump\t// in\n    tag_74:\n        /* \"contracts/WETH9.sol\":3403:3483  c_0xa6288b22(0xfb07c2eba158d062ed0f2285e0ed472848c343d48b4088059d7286f9b41d1d7e) */\n      tag_75\n        /* \"contracts/WETH9.sol\":3416:3482  0xfb07c2eba158d062ed0f2285e0ed472848c343d48b4088059d7286f9b41d1d7e */\n      0xfb07c2eba158d062ed0f2285e0ed472848c343d48b4088059d7286f9b41d1d7e\n        /* \"contracts/WETH9.sol\":3403:3483  c_0xa6288b22(0xfb07c2eba158d062ed0f2285e0ed472848c343d48b4088059d7286f9b41d1d7e) */\n      0x1\n      mul\n        /* \"contracts/WETH9.sol\":3403:3415  c_0xa6288b22 */\n      tag_17\n        /* \"contracts/WETH9.sol\":3403:3483  c_0xa6288b22(0xfb07c2eba158d062ed0f2285e0ed472848c343d48b4088059d7286f9b41d1d7e) */\n      jump\t// in\n    tag_75:\n        /* \"contracts/WETH9.sol\":3505:3585  c_0xa6288b22(0x3b51f8e2cc919b886c8b01d02641e9b809bc9b0b995ac8c1f6fb0171022b7d02) */\n      tag_76\n        /* \"contracts/WETH9.sol\":3518:3584  0x3b51f8e2cc919b886c8b01d02641e9b809bc9b0b995ac8c1f6fb0171022b7d02 */\n      0x3b51f8e2cc919b886c8b01d02641e9b809bc9b0b995ac8c1f6fb0171022b7d02\n        /* \"contracts/WETH9.sol\":3505:3585  c_0xa6288b22(0x3b51f8e2cc919b886c8b01d02641e9b809bc9b0b995ac8c1f6fb0171022b7d02) */\n      0x1\n      mul\n        /* \"contracts/WETH9.sol\":3505:3517  c_0xa6288b22 */\n      tag_17\n        /* \"contracts/WETH9.sol\":3505:3585  c_0xa6288b22(0x3b51f8e2cc919b886c8b01d02641e9b809bc9b0b995ac8c1f6fb0171022b7d02) */\n      jump\t// in\n    tag_76:\n        /* \"contracts/WETH9.sol\":3633:3636  wad */\n      dup2\n        /* \"contracts/WETH9.sol\":3604:3613  allowance */\n      0x4\n        /* \"contracts/WETH9.sol\":3604:3625  allowance[msg.sender] */\n      0x0\n        /* \"contracts/WETH9.sol\":3614:3624  msg.sender */\n      caller\n        /* \"contracts/WETH9.sol\":3604:3625  allowance[msg.sender] */\n      0xffffffffffffffffffffffffffffffffffffffff\n      and\n      0xffffffffffffffffffffffffffffffffffffffff\n      and\n      dup2\n      mstore\n      0x20\n      add\n      swap1\n      dup2\n      mstore\n      0x20\n      add\n      0x0\n      keccak256\n        /* \"contracts/WETH9.sol\":3604:3630  allowance[msg.sender][guy] */\n      0x0\n        /* \"contracts/WETH9.sol\":3626:3629  guy */\n      dup6\n        /* \"contracts/WETH9.sol\":3604:3630  allowance[msg.sender][guy] */\n      0xffffffffffffffffffffffffffffffffffffffff\n      and\n      0xffffffffffffffffffffffffffffffffffffffff\n      and\n      dup2\n      mstore\n      0x20\n      add\n      swap1\n      dup2\n      mstore\n      0x20\n      add\n      0x0\n      keccak256\n        /* \"contracts/WETH9.sol\":3604:3636  allowance[msg.sender][guy] = wad */\n      dup2\n      swap1\n      sstore\n      pop\n        /* \"contracts/WETH9.sol\":3638:3718  c_0xa6288b22(0x0f049d63e9d884f1f8f6bcea014452607e98fb44376c70d802ec6ccbb3adc35c) */\n      tag_77\n        /* \"contracts/WETH9.sol\":3651:3717  0x0f049d63e9d884f1f8f6bcea014452607e98fb44376c70d802ec6ccbb3adc35c */\n      0xf049d63e9d884f1f8f6bcea014452607e98fb44376c70d802ec6ccbb3adc35c\n        /* \"contracts/WETH9.sol\":3638:3718  c_0xa6288b22(0x0f049d63e9d884f1f8f6bcea014452607e98fb44376c70d802ec6ccbb3adc35c) */\n      0x1\n      mul\n        /* \"contracts/WETH9.sol\":3638:3650  c_0xa6288b22 */\n      tag_17\n        /* \"contracts/WETH9.sol\":3638:3718  c_0xa6288b22(0x0f049d63e9d884f1f8f6bcea014452607e98fb44376c70d802ec6ccbb3adc35c) */\n      jump\t// in\n    tag_77:\n        /* \"contracts/WETH9.sol\":3740:3820  c_0xa6288b22(0xf4fdda65ad3fc670872c63525dec64b987565226316f9e3a7f548cdd8e87f611) */\n      tag_78\n        /* \"contracts/WETH9.sol\":3753:3819  0xf4fdda65ad3fc670872c63525dec64b987565226316f9e3a7f548cdd8e87f611 */\n      0xf4fdda65ad3fc670872c63525dec64b987565226316f9e3a7f548cdd8e87f611\n        /* \"contracts/WETH9.sol\":3740:3820  c_0xa6288b22(0xf4fdda65ad3fc670872c63525dec64b987565226316f9e3a7f548cdd8e87f611) */\n      0x1\n      mul\n        /* \"contracts/WETH9.sol\":3740:3752  c_0xa6288b22 */\n      tag_17\n        /* \"contracts/WETH9.sol\":3740:3820  c_0xa6288b22(0xf4fdda65ad3fc670872c63525dec64b987565226316f9e3a7f548cdd8e87f611) */\n      jump\t// in\n    tag_78:\n        /* \"contracts/WETH9.sol\":3860:3863  guy */\n      dup3\n        /* \"contracts/WETH9.sol\":3839:3869  Approval(msg.sender, guy, wad) */\n      0xffffffffffffffffffffffffffffffffffffffff\n      and\n        /* \"contracts/WETH9.sol\":3848:3858  msg.sender */\n      caller\n        /* \"contracts/WETH9.sol\":3839:3869  Approval(msg.sender, guy, wad) */\n      0xffffffffffffffffffffffffffffffffffffffff\n      and\n      0x8c5be1e5ebec7d5bd14f71427d1e84f3dd0314c0f7b2291e5b200ac8c7c3b925\n        /* \"contracts/WETH9.sol\":3865:3868  wad */\n      dup5\n        /* \"contracts/WETH9.sol\":3839:3869  Approval(msg.sender, guy, wad) */\n      mload(0x40)\n      dup1\n      dup3\n      dup2\n      mstore\n      0x20\n      add\n      swap2\n      pop\n      pop\n      mload(0x40)\n      dup1\n      swap2\n      sub\n      swap1\n      log3\n        /* \"contracts/WETH9.sol\":3871:3951  c_0xa6288b22(0xc3d3bdbac02135fa83247a37d922d5f9979f3022c03abacc540e27fa510a7ec6) */\n      tag_79\n        /* \"contracts/WETH9.sol\":3884:3950  0xc3d3bdbac02135fa83247a37d922d5f9979f3022c03abacc540e27fa510a7ec6 */\n      0xc3d3bdbac02135fa83247a37d922d5f9979f3022c03abacc540e27fa510a7ec6\n        /* \"contracts/WETH9.sol\":3871:3951  c_0xa6288b22(0xc3d3bdbac02135fa83247a37d922d5f9979f3022c03abacc540e27fa510a7ec6) */\n      0x1\n      mul\n        /* \"contracts/WETH9.sol\":3871:3883  c_0xa6288b22 */\n      tag_17\n        /* \"contracts/WETH9.sol\":3871:3951  c_0xa6288b22(0xc3d3bdbac02135fa83247a37d922d5f9979f3022c03abacc540e27fa510a7ec6) */\n      jump\t// in\n    tag_79:\n        /* \"contracts/WETH9.sol\":3973:4053  c_0xa6288b22(0x2b6dd422bfc96f2702ed67dda3e2f972383e75debf9966a280382c4cbc606ad0) */\n      tag_80\n        /* \"contracts/WETH9.sol\":3986:4052  0x2b6dd422bfc96f2702ed67dda3e2f972383e75debf9966a280382c4cbc606ad0 */\n      0x2b6dd422bfc96f2702ed67dda3e2f972383e75debf9966a280382c4cbc606ad0\n        /* \"contracts/WETH9.sol\":3973:4053  c_0xa6288b22(0x2b6dd422bfc96f2702ed67dda3e2f972383e75debf9966a280382c4cbc606ad0) */\n      0x1\n      mul\n        /* \"contracts/WETH9.sol\":3973:3985  c_0xa6288b22 */\n      tag_17\n        /* \"contracts/WETH9.sol\":3973:4053  c_0xa6288b22(0x2b6dd422bfc96f2702ed67dda3e2f972383e75debf9966a280382c4cbc606ad0) */\n      jump\t// in\n    tag_80:\n        /* \"contracts/WETH9.sol\":4079:4083  true */\n      0x1\n        /* \"contracts/WETH9.sol\":4072:4083  return true */\n      swap1\n      pop\n        /* \"contracts/WETH9.sol\":3241:4090  function approve(address guy, uint wad) public returns (bool) {c_0xa6288b22(0xd3d462d9a1d81e8f3a3487f04153307d274d2d8d4c5e84963e81f5c869db51b9); /* function */ ... */\n      swap3\n      swap2\n      pop\n      pop\n      jump\t// out\n        /* \"contracts/WETH9.sol\":2858:3235  function totalSupply() public view returns (uint) {c_0xa6288b22(0x61ce729d8311e23a3dfd33f2fdf583583a0d8a52ee59d31c5ca861f5b3ebafd1); /* function */ ... */\n    tag_34:\n        /* \"contracts/WETH9.sol\":2902:2906  uint */\n      0x0\n        /* \"contracts/WETH9.sol\":2909:2989  c_0xa6288b22(0x61ce729d8311e23a3dfd33f2fdf583583a0d8a52ee59d31c5ca861f5b3ebafd1) */\n      tag_82\n        /* \"contracts/WETH9.sol\":2922:2988  0x61ce729d8311e23a3dfd33f2fdf583583a0d8a52ee59d31c5ca861f5b3ebafd1 */\n      0x61ce729d8311e23a3dfd33f2fdf583583a0d8a52ee59d31c5ca861f5b3ebafd1\n        /* \"contracts/WETH9.sol\":2909:2989  c_0xa6288b22(0x61ce729d8311e23a3dfd33f2fdf583583a0d8a52ee59d31c5ca861f5b3ebafd1) */\n      0x1\n      mul\n        /* \"contracts/WETH9.sol\":2909:2921  c_0xa6288b22 */\n      tag_17\n        /* \"contracts/WETH9.sol\":2909:2989  c_0xa6288b22(0x61ce729d8311e23a3dfd33f2fdf583583a0d8a52ee59d31c5ca861f5b3ebafd1) */\n      jump\t// in\n    tag_82:\n        /* \"contracts/WETH9.sol\":3008:3088  c_0xa6288b22(0x79737ece001a7da4d71877d0e60e4a7326de59c92a0c8a973b21565605e6bc7a) */\n      tag_83\n        /* \"contracts/WETH9.sol\":3021:3087  0x79737ece001a7da4d71877d0e60e4a7326de59c92a0c8a973b21565605e6bc7a */\n      0x79737ece001a7da4d71877d0e60e4a7326de59c92a0c8a973b21565605e6bc7a\n        /* \"contracts/WETH9.sol\":3008:3088  c_0xa6288b22(0x79737ece001a7da4d71877d0e60e4a7326de59c92a0c8a973b21565605e6bc7a) */\n      0x1\n      mul\n        /* \"contracts/WETH9.sol\":3008:3020  c_0xa6288b22 */\n      tag_17\n        /* \"contracts/WETH9.sol\":3008:3088  c_0xa6288b22(0x79737ece001a7da4d71877d0e60e4a7326de59c92a0c8a973b21565605e6bc7a) */\n      jump\t// in\n    tag_83:\n        /* \"contracts/WETH9.sol\":3110:3190  c_0xa6288b22(0xccb031ba5ba657ac03ec8c7ddc6621953950fc29230f43ee68f01013add608cb) */\n      tag_84\n        /* \"contracts/WETH9.sol\":3123:3189  0xccb031ba5ba657ac03ec8c7ddc6621953950fc29230f43ee68f01013add608cb */\n      0xccb031ba5ba657ac03ec8c7ddc6621953950fc29230f43ee68f01013add608cb\n        /* \"contracts/WETH9.sol\":3110:3190  c_0xa6288b22(0xccb031ba5ba657ac03ec8c7ddc6621953950fc29230f43ee68f01013add608cb) */\n      0x1\n      mul\n        /* \"contracts/WETH9.sol\":3110:3122  c_0xa6288b22 */\n      tag_17\n        /* \"contracts/WETH9.sol\":3110:3190  c_0xa6288b22(0xccb031ba5ba657ac03ec8c7ddc6621953950fc29230f43ee68f01013add608cb) */\n      jump\t// in\n    tag_84:\n        /* \"contracts/WETH9.sol\":3216:3220  this */\n      address\n        /* \"contracts/WETH9.sol\":3216:3228  this.balance */\n      0xffffffffffffffffffffffffffffffffffffffff\n      and\n      balance\n        /* \"contracts/WETH9.sol\":3209:3228  return this.balance */\n      swap1\n      pop\n        /* \"contracts/WETH9.sol\":2858:3235  function totalSupply() public view returns (uint) {c_0xa6288b22(0x61ce729d8311e23a3dfd33f2fdf583583a0d8a52ee59d31c5ca861f5b3ebafd1); /* function */ ... */\n      swap1\n      jump\t// out\n        /* \"contracts/WETH9.sol\":4514:7213  function transferFrom(address src, address dst, uint wad)... */\n    tag_37:\n        /* \"contracts/WETH9.sol\":4604:4608  bool */\n      0x0\n        /* \"contracts/WETH9.sol\":4615:4695  c_0xa6288b22(0x9efd367919cbc4c84600142105d0e65fbb9702c983335d4e1c74163597e6c8fd) */\n      tag_86\n        /* \"contracts/WETH9.sol\":4628:4694  0x9efd367919cbc4c84600142105d0e65fbb9702c983335d4e1c74163597e6c8fd */\n      0x9efd367919cbc4c84600142105d0e65fbb9702c983335d4e1c74163597e6c8fd\n        /* \"contracts/WETH9.sol\":4615:4695  c_0xa6288b22(0x9efd367919cbc4c84600142105d0e65fbb9702c983335d4e1c74163597e6c8fd) */\n      0x1\n      mul\n        /* \"contracts/WETH9.sol\":4615:4627  c_0xa6288b22 */\n      tag_17\n        /* \"contracts/WETH9.sol\":4615:4695  c_0xa6288b22(0x9efd367919cbc4c84600142105d0e65fbb9702c983335d4e1c74163597e6c8fd) */\n      jump\t// in\n    tag_86:\n        /* \"contracts/WETH9.sol\":4714:4794  c_0xa6288b22(0x4749966bcba8acc8b3d9e302b91434144697e650b8b463fa87a10c9863d7b8b6) */\n      tag_87\n        /* \"contracts/WETH9.sol\":4727:4793  0x4749966bcba8acc8b3d9e302b91434144697e650b8b463fa87a10c9863d7b8b6 */\n      0x4749966bcba8acc8b3d9e302b91434144697e650b8b463fa87a10c9863d7b8b6\n        /* \"contracts/WETH9.sol\":4714:4794  c_0xa6288b22(0x4749966bcba8acc8b3d9e302b91434144697e650b8b463fa87a10c9863d7b8b6) */\n      0x1\n      mul\n        /* \"contracts/WETH9.sol\":4714:4726  c_0xa6288b22 */\n      tag_17\n        /* \"contracts/WETH9.sol\":4714:4794  c_0xa6288b22(0x4749966bcba8acc8b3d9e302b91434144697e650b8b463fa87a10c9863d7b8b6) */\n      jump\t// in\n    tag_87:\n        /* \"contracts/WETH9.sol\":4816:4896  c_0xa6288b22(0x60eeb62df9246106a512500346257776545c23ffdfe36a1d6da11bf7c64b35ea) */\n      tag_88\n        /* \"contracts/WETH9.sol\":4829:4895  0x60eeb62df9246106a512500346257776545c23ffdfe36a1d6da11bf7c64b35ea */\n      0x60eeb62df9246106a512500346257776545c23ffdfe36a1d6da11bf7c64b35ea\n        /* \"contracts/WETH9.sol\":4816:4896  c_0xa6288b22(0x60eeb62df9246106a512500346257776545c23ffdfe36a1d6da11bf7c64b35ea) */\n      0x1\n      mul\n        /* \"contracts/WETH9.sol\":4816:4828  c_0xa6288b22 */\n      tag_17\n        /* \"contracts/WETH9.sol\":4816:4896  c_0xa6288b22(0x60eeb62df9246106a512500346257776545c23ffdfe36a1d6da11bf7c64b35ea) */\n      jump\t// in\n    tag_88:\n        /* \"contracts/WETH9.sol\":4916:4996  c_0xa6288b22(0xa48c91896ba678aad25a352943699fcd080c8380f2af1b17355c8eae576be693) */\n      tag_89\n        /* \"contracts/WETH9.sol\":4929:4995  0xa48c91896ba678aad25a352943699fcd080c8380f2af1b17355c8eae576be693 */\n      0xa48c91896ba678aad25a352943699fcd080c8380f2af1b17355c8eae576be693\n        /* \"contracts/WETH9.sol\":4916:4996  c_0xa6288b22(0xa48c91896ba678aad25a352943699fcd080c8380f2af1b17355c8eae576be693) */\n      0x1\n      mul\n        /* \"contracts/WETH9.sol\":4916:4928  c_0xa6288b22 */\n      tag_17\n        /* \"contracts/WETH9.sol\":4916:4996  c_0xa6288b22(0xa48c91896ba678aad25a352943699fcd080c8380f2af1b17355c8eae576be693) */\n      jump\t// in\n    tag_89:\n        /* \"contracts/WETH9.sol\":5041:5044  wad */\n      dup2\n        /* \"contracts/WETH9.sol\":5023:5032  balanceOf */\n      0x3\n        /* \"contracts/WETH9.sol\":5023:5037  balanceOf[src] */\n      0x0\n        /* \"contracts/WETH9.sol\":5033:5036  src */\n      dup7\n        /* \"contracts/WETH9.sol\":5023:5037  balanceOf[src] */\n      0xffffffffffffffffffffffffffffffffffffffff\n      and\n      0xffffffffffffffffffffffffffffffffffffffff\n      and\n      dup2\n      mstore\n      0x20\n      add\n      swap1\n      dup2\n      mstore\n      0x20\n      add\n      0x0\n      keccak256\n      sload\n        /* \"contracts/WETH9.sol\":5023:5044  balanceOf[src] >= wad */\n      lt\n      iszero\n        /* \"contracts/WETH9.sol\":5015:5045  require(balanceOf[src] >= wad) */\n      iszero\n      iszero\n      tag_90\n      jumpi\n      0x0\n      dup1\n      revert\n    tag_90:\n        /* \"contracts/WETH9.sol\":5046:5126  c_0xa6288b22(0xf241a528c4c31c1477c521f6743c3fd95de8029b025ba91a0987c7f77ce01785) */\n      tag_91\n        /* \"contracts/WETH9.sol\":5059:5125  0xf241a528c4c31c1477c521f6743c3fd95de8029b025ba91a0987c7f77ce01785 */\n      0xf241a528c4c31c1477c521f6743c3fd95de8029b025ba91a0987c7f77ce01785\n        /* \"contracts/WETH9.sol\":5046:5126  c_0xa6288b22(0xf241a528c4c31c1477c521f6743c3fd95de8029b025ba91a0987c7f77ce01785) */\n      0x1\n      mul\n        /* \"contracts/WETH9.sol\":5046:5058  c_0xa6288b22 */\n      tag_17\n        /* \"contracts/WETH9.sol\":5046:5126  c_0xa6288b22(0xf241a528c4c31c1477c521f6743c3fd95de8029b025ba91a0987c7f77ce01785) */\n      jump\t// in\n    tag_91:\n        /* \"contracts/WETH9.sol\":5149:5229  c_0xa6288b22(0x11b76b847dd0accfa6fc7f36a1f34bbff33c456d260d6c4466f107cbdd5517a3) */\n      tag_92\n        /* \"contracts/WETH9.sol\":5162:5228  0x11b76b847dd0accfa6fc7f36a1f34bbff33c456d260d6c4466f107cbdd5517a3 */\n      0x11b76b847dd0accfa6fc7f36a1f34bbff33c456d260d6c4466f107cbdd5517a3\n        /* \"contracts/WETH9.sol\":5149:5229  c_0xa6288b22(0x11b76b847dd0accfa6fc7f36a1f34bbff33c456d260d6c4466f107cbdd5517a3) */\n      0x1\n      mul\n        /* \"contracts/WETH9.sol\":5149:5161  c_0xa6288b22 */\n      tag_17\n        /* \"contracts/WETH9.sol\":5149:5229  c_0xa6288b22(0x11b76b847dd0accfa6fc7f36a1f34bbff33c456d260d6c4466f107cbdd5517a3) */\n      jump\t// in\n    tag_92:\n        /* \"contracts/WETH9.sol\":5251:5331  c_0xa6288b22(0x58dc17758779bad7fce3c72e240f3ff87665b4c3b163004e6de0b633f4b0de8a) */\n      tag_93\n        /* \"contracts/WETH9.sol\":5264:5330  0x58dc17758779bad7fce3c72e240f3ff87665b4c3b163004e6de0b633f4b0de8a */\n      0x58dc17758779bad7fce3c72e240f3ff87665b4c3b163004e6de0b633f4b0de8a\n        /* \"contracts/WETH9.sol\":5251:5331  c_0xa6288b22(0x58dc17758779bad7fce3c72e240f3ff87665b4c3b163004e6de0b633f4b0de8a) */\n      0x1\n      mul\n        /* \"contracts/WETH9.sol\":5251:5263  c_0xa6288b22 */\n      tag_17\n        /* \"contracts/WETH9.sol\":5251:5331  c_0xa6288b22(0x58dc17758779bad7fce3c72e240f3ff87665b4c3b163004e6de0b633f4b0de8a) */\n      jump\t// in\n    tag_93:\n        /* \"contracts/WETH9.sol\":5361:5371  msg.sender */\n      caller\n        /* \"contracts/WETH9.sol\":5354:5371  src != msg.sender */\n      0xffffffffffffffffffffffffffffffffffffffff\n      and\n        /* \"contracts/WETH9.sol\":5354:5357  src */\n      dup5\n        /* \"contracts/WETH9.sol\":5354:5371  src != msg.sender */\n      0xffffffffffffffffffffffffffffffffffffffff\n      and\n      eq\n      iszero\n        /* \"contracts/WETH9.sol\":5354:5413  src != msg.sender && allowance[src][msg.sender] != uint(-1) */\n      dup1\n      iszero\n      tag_94\n      jumpi\n      pop\n        /* \"contracts/WETH9.sol\":5410:5412  -1 */\n      0xffffffffffffffffffffffffffffffffffffffffffffffffffffffffffffffff\n        /* \"contracts/WETH9.sol\":5375:5384  allowance */\n      0x4\n        /* \"contracts/WETH9.sol\":5375:5389  allowance[src] */\n      0x0\n        /* \"contracts/WETH9.sol\":5385:5388  src */\n      dup7\n        /* \"contracts/WETH9.sol\":5375:5389  allowance[src] */\n      0xffffffffffffffffffffffffffffffffffffffff\n      and\n      0xffffffffffffffffffffffffffffffffffffffff\n      and\n      dup2\n      mstore\n      0x20\n      add\n      swap1\n      dup2\n      mstore\n      0x20\n      add\n      0x0\n      keccak256\n        /* \"contracts/WETH9.sol\":5375:5401  allowance[src][msg.sender] */\n      0x0\n        /* \"contracts/WETH9.sol\":5390:5400  msg.sender */\n      caller\n        /* \"contracts/WETH9.sol\":5375:5401  allowance[src][msg.sender] */\n      0xffffffffffffffffffffffffffffffffffffffff\n      and\n      0xffffffffffffffffffffffffffffffffffffffff\n      and\n      dup2\n      mstore\n      0x20\n      add\n      swap1\n      dup2\n      mstore\n      0x20\n      add\n      0x0\n      keccak256\n      sload\n        /* \"contracts/WETH9.sol\":5375:5413  allowance[src][msg.sender] != uint(-1) */\n      eq\n      iszero\n        /* \"contracts/WETH9.sol\":5354:5413  src != msg.sender && allowance[src][msg.sender] != uint(-1) */\n    tag_94:\n        /* \"contracts/WETH9.sol\":5350:6316  if (src != msg.sender && allowance[src][msg.sender] != uint(-1)) {c_0xa6288b22(0xeb62d979d316bc10804f10c2b0bb158c6f5d1e5eea219edeef1f3e67e54e27b8); /* branch */ ... */\n      iszero\n      tag_95\n      jumpi\n        /* \"contracts/WETH9.sol\":5416:5496  c_0xa6288b22(0xeb62d979d316bc10804f10c2b0bb158c6f5d1e5eea219edeef1f3e67e54e27b8) */\n      tag_96\n        /* \"contracts/WETH9.sol\":5429:5495  0xeb62d979d316bc10804f10c2b0bb158c6f5d1e5eea219edeef1f3e67e54e27b8 */\n      0xeb62d979d316bc10804f10c2b0bb158c6f5d1e5eea219edeef1f3e67e54e27b8\n        /* \"contracts/WETH9.sol\":5416:5496  c_0xa6288b22(0xeb62d979d316bc10804f10c2b0bb158c6f5d1e5eea219edeef1f3e67e54e27b8) */\n      0x1\n      mul\n        /* \"contracts/WETH9.sol\":5416:5428  c_0xa6288b22 */\n      tag_17\n        /* \"contracts/WETH9.sol\":5416:5496  c_0xa6288b22(0xeb62d979d316bc10804f10c2b0bb158c6f5d1e5eea219edeef1f3e67e54e27b8) */\n      jump\t// in\n    tag_96:\n        /* \"contracts/WETH9.sol\":5513:5593  c_0xa6288b22(0x9527dd4bb14cb0b2701bea1c926f6a863e219b2b65741de2c0f543fa6f8c7928) */\n      tag_97\n        /* \"contracts/WETH9.sol\":5526:5592  0x9527dd4bb14cb0b2701bea1c926f6a863e219b2b65741de2c0f543fa6f8c7928 */\n      0x9527dd4bb14cb0b2701bea1c926f6a863e219b2b65741de2c0f543fa6f8c7928\n        /* \"contracts/WETH9.sol\":5513:5593  c_0xa6288b22(0x9527dd4bb14cb0b2701bea1c926f6a863e219b2b65741de2c0f543fa6f8c7928) */\n      0x1\n      mul\n        /* \"contracts/WETH9.sol\":5513:5525  c_0xa6288b22 */\n      tag_17\n        /* \"contracts/WETH9.sol\":5513:5593  c_0xa6288b22(0x9527dd4bb14cb0b2701bea1c926f6a863e219b2b65741de2c0f543fa6f8c7928) */\n      jump\t// in\n    tag_97:\n        /* \"contracts/WETH9.sol\":5619:5699  c_0xa6288b22(0xc3d69c09ba9107104f024769d31e2f31326864287f086439a9740bedbe11d6f1) */\n      tag_98\n        /* \"contracts/WETH9.sol\":5632:5698  0xc3d69c09ba9107104f024769d31e2f31326864287f086439a9740bedbe11d6f1 */\n      0xc3d69c09ba9107104f024769d31e2f31326864287f086439a9740bedbe11d6f1\n        /* \"contracts/WETH9.sol\":5619:5699  c_0xa6288b22(0xc3d69c09ba9107104f024769d31e2f31326864287f086439a9740bedbe11d6f1) */\n      0x1\n      mul\n        /* \"contracts/WETH9.sol\":5619:5631  c_0xa6288b22 */\n      tag_17\n        /* \"contracts/WETH9.sol\":5619:5699  c_0xa6288b22(0xc3d69c09ba9107104f024769d31e2f31326864287f086439a9740bedbe11d6f1) */\n      jump\t// in\n    tag_98:\n        /* \"contracts/WETH9.sol\":5719:5799  c_0xa6288b22(0x133296fbc8a2d8c4153492571c16bd7e6d3c5714292047158515268106533dfd) */\n      tag_99\n        /* \"contracts/WETH9.sol\":5732:5798  0x133296fbc8a2d8c4153492571c16bd7e6d3c5714292047158515268106533dfd */\n      0x133296fbc8a2d8c4153492571c16bd7e6d3c5714292047158515268106533dfd\n        /* \"contracts/WETH9.sol\":5719:5799  c_0xa6288b22(0x133296fbc8a2d8c4153492571c16bd7e6d3c5714292047158515268106533dfd) */\n      0x1\n      mul\n        /* \"contracts/WETH9.sol\":5719:5731  c_0xa6288b22 */\n      tag_17\n        /* \"contracts/WETH9.sol\":5719:5799  c_0xa6288b22(0x133296fbc8a2d8c4153492571c16bd7e6d3c5714292047158515268106533dfd) */\n      jump\t// in\n    tag_99:\n        /* \"contracts/WETH9.sol\":5856:5859  wad */\n      dup2\n        /* \"contracts/WETH9.sol\":5826:5835  allowance */\n      0x4\n        /* \"contracts/WETH9.sol\":5826:5840  allowance[src] */\n      0x0\n        /* \"contracts/WETH9.sol\":5836:5839  src */\n      dup7\n        /* \"contracts/WETH9.sol\":5826:5840  allowance[src] */\n      0xffffffffffffffffffffffffffffffffffffffff\n      and\n      0xffffffffffffffffffffffffffffffffffffffff\n      and\n      dup2\n      mstore\n      0x20\n      add\n      swap1\n      dup2\n      mstore\n      0x20\n      add\n      0x0\n      keccak256\n        /* \"contracts/WETH9.sol\":5826:5852  allowance[src][msg.sender] */\n      0x0\n        /* \"contracts/WETH9.sol\":5841:5851  msg.sender */\n      caller\n        /* \"contracts/WETH9.sol\":5826:5852  allowance[src][msg.sender] */\n      0xffffffffffffffffffffffffffffffffffffffff\n      and\n      0xffffffffffffffffffffffffffffffffffffffff\n      and\n      dup2\n      mstore\n      0x20\n      add\n      swap1\n      dup2\n      mstore\n      0x20\n      add\n      0x0\n      keccak256\n      sload\n        /* \"contracts/WETH9.sol\":5826:5859  allowance[src][msg.sender] >= wad */\n      lt\n      iszero\n        /* \"contracts/WETH9.sol\":5818:5860  require(allowance[src][msg.sender] >= wad) */\n      iszero\n      iszero\n      tag_100\n      jumpi\n      0x0\n      dup1\n      revert\n    tag_100:\n        /* \"contracts/WETH9.sol\":5861:5941  c_0xa6288b22(0x8f5b7073ce1619d8623f247d7f88c5b56c6e17fb0da10a9935cc54c47e552db5) */\n      tag_101\n        /* \"contracts/WETH9.sol\":5874:5940  0x8f5b7073ce1619d8623f247d7f88c5b56c6e17fb0da10a9935cc54c47e552db5 */\n      0x8f5b7073ce1619d8623f247d7f88c5b56c6e17fb0da10a9935cc54c47e552db5\n        /* \"contracts/WETH9.sol\":5861:5941  c_0xa6288b22(0x8f5b7073ce1619d8623f247d7f88c5b56c6e17fb0da10a9935cc54c47e552db5) */\n      0x1\n      mul\n        /* \"contracts/WETH9.sol\":5861:5873  c_0xa6288b22 */\n      tag_17\n        /* \"contracts/WETH9.sol\":5861:5941  c_0xa6288b22(0x8f5b7073ce1619d8623f247d7f88c5b56c6e17fb0da10a9935cc54c47e552db5) */\n      jump\t// in\n    tag_101:\n        /* \"contracts/WETH9.sol\":5963:6043  c_0xa6288b22(0x9c089d8867462a6232c1223c515495ba4d53fc689b43ef6ad2a43108e6175bff) */\n      tag_102\n        /* \"contracts/WETH9.sol\":5976:6042  0x9c089d8867462a6232c1223c515495ba4d53fc689b43ef6ad2a43108e6175bff */\n      0x9c089d8867462a6232c1223c515495ba4d53fc689b43ef6ad2a43108e6175bff\n        /* \"contracts/WETH9.sol\":5963:6043  c_0xa6288b22(0x9c089d8867462a6232c1223c515495ba4d53fc689b43ef6ad2a43108e6175bff) */\n      0x1\n      mul\n        /* \"contracts/WETH9.sol\":5963:5975  c_0xa6288b22 */\n      tag_17\n        /* \"contracts/WETH9.sol\":5963:6043  c_0xa6288b22(0x9c089d8867462a6232c1223c515495ba4d53fc689b43ef6ad2a43108e6175bff) */\n      jump\t// in\n    tag_102:\n        /* \"contracts/WETH9.sol\":6069:6149  c_0xa6288b22(0x0bfdd77493091b090c4718d328ed206cbc19224c6338742bea1e668ae4e9b2dc) */\n      tag_103\n        /* \"contracts/WETH9.sol\":6082:6148  0x0bfdd77493091b090c4718d328ed206cbc19224c6338742bea1e668ae4e9b2dc */\n      0xbfdd77493091b090c4718d328ed206cbc19224c6338742bea1e668ae4e9b2dc\n        /* \"contracts/WETH9.sol\":6069:6149  c_0xa6288b22(0x0bfdd77493091b090c4718d328ed206cbc19224c6338742bea1e668ae4e9b2dc) */\n      0x1\n      mul\n        /* \"contracts/WETH9.sol\":6069:6081  c_0xa6288b22 */\n      tag_17\n        /* \"contracts/WETH9.sol\":6069:6149  c_0xa6288b22(0x0bfdd77493091b090c4718d328ed206cbc19224c6338742bea1e668ae4e9b2dc) */\n      jump\t// in\n    tag_103:\n        /* \"contracts/WETH9.sol\":6198:6201  wad */\n      dup2\n        /* \"contracts/WETH9.sol\":6168:6177  allowance */\n      0x4\n        /* \"contracts/WETH9.sol\":6168:6182  allowance[src] */\n      0x0\n        /* \"contracts/WETH9.sol\":6178:6181  src */\n      dup7\n        /* \"contracts/WETH9.sol\":6168:6182  allowance[src] */\n      0xffffffffffffffffffffffffffffffffffffffff\n      and\n      0xffffffffffffffffffffffffffffffffffffffff\n      and\n      dup2\n      mstore\n      0x20\n      add\n      swap1\n      dup2\n      mstore\n      0x20\n      add\n      0x0\n      keccak256\n        /* \"contracts/WETH9.sol\":6168:6194  allowance[src][msg.sender] */\n      0x0\n        /* \"contracts/WETH9.sol\":6183:6193  msg.sender */\n      caller\n        /* \"contracts/WETH9.sol\":6168:6194  allowance[src][msg.sender] */\n      0xffffffffffffffffffffffffffffffffffffffff\n      and\n      0xffffffffffffffffffffffffffffffffffffffff\n      and\n      dup2\n      mstore\n      0x20\n      add\n      swap1\n      dup2\n      mstore\n      0x20\n      add\n      0x0\n      keccak256\n      0x0\n        /* \"contracts/WETH9.sol\":6168:6201  allowance[src][msg.sender] -= wad */\n      dup3\n      dup3\n      sload\n      sub\n      swap3\n      pop\n      pop\n      dup2\n      swap1\n      sstore\n      pop\n        /* \"contracts/WETH9.sol\":5350:6316  if (src != msg.sender && allowance[src][msg.sender] != uint(-1)) {c_0xa6288b22(0xeb62d979d316bc10804f10c2b0bb158c6f5d1e5eea219edeef1f3e67e54e27b8); /* branch */ ... */\n      jump(tag_104)\n    tag_95:\n        /* \"contracts/WETH9.sol\":6219:6299  c_0xa6288b22(0x35c800f3c11c110e7b217fcabec397d2254dbaff0790205cc52422123d34dbb7) */\n      tag_105\n        /* \"contracts/WETH9.sol\":6232:6298  0x35c800f3c11c110e7b217fcabec397d2254dbaff0790205cc52422123d34dbb7 */\n      0x35c800f3c11c110e7b217fcabec397d2254dbaff0790205cc52422123d34dbb7\n        /* \"contracts/WETH9.sol\":6219:6299  c_0xa6288b22(0x35c800f3c11c110e7b217fcabec397d2254dbaff0790205cc52422123d34dbb7) */\n      0x1\n      mul\n        /* \"contracts/WETH9.sol\":6219:6231  c_0xa6288b22 */\n      tag_17\n        /* \"contracts/WETH9.sol\":6219:6299  c_0xa6288b22(0x35c800f3c11c110e7b217fcabec397d2254dbaff0790205cc52422123d34dbb7) */\n      jump\t// in\n    tag_105:\n        /* \"contracts/WETH9.sol\":5350:6316  if (src != msg.sender && allowance[src][msg.sender] != uint(-1)) {c_0xa6288b22(0xeb62d979d316bc10804f10c2b0bb158c6f5d1e5eea219edeef1f3e67e54e27b8); /* branch */ ... */\n    tag_104:\n        /* \"contracts/WETH9.sol\":6318:6398  c_0xa6288b22(0xff68d5141577c92eb191c8e5bc12c9588933f404fcbb453b9db9588103f58952) */\n      tag_106\n        /* \"contracts/WETH9.sol\":6331:6397  0xff68d5141577c92eb191c8e5bc12c9588933f404fcbb453b9db9588103f58952 */\n      0xff68d5141577c92eb191c8e5bc12c9588933f404fcbb453b9db9588103f58952\n        /* \"contracts/WETH9.sol\":6318:6398  c_0xa6288b22(0xff68d5141577c92eb191c8e5bc12c9588933f404fcbb453b9db9588103f58952) */\n      0x1\n      mul\n        /* \"contracts/WETH9.sol\":6318:6330  c_0xa6288b22 */\n      tag_17\n        /* \"contracts/WETH9.sol\":6318:6398  c_0xa6288b22(0xff68d5141577c92eb191c8e5bc12c9588933f404fcbb453b9db9588103f58952) */\n      jump\t// in\n    tag_106:\n        /* \"contracts/WETH9.sol\":6420:6500  c_0xa6288b22(0x96f067c2094cab734cbb309cd3003c9890f1495fb0c36cc33f4d492439f6ebff) */\n      tag_107\n        /* \"contracts/WETH9.sol\":6433:6499  0x96f067c2094cab734cbb309cd3003c9890f1495fb0c36cc33f4d492439f6ebff */\n      0x96f067c2094cab734cbb309cd3003c9890f1495fb0c36cc33f4d492439f6ebff\n        /* \"contracts/WETH9.sol\":6420:6500  c_0xa6288b22(0x96f067c2094cab734cbb309cd3003c9890f1495fb0c36cc33f4d492439f6ebff) */\n      0x1\n      mul\n        /* \"contracts/WETH9.sol\":6420:6432  c_0xa6288b22 */\n      tag_17\n        /* \"contracts/WETH9.sol\":6420:6500  c_0xa6288b22(0x96f067c2094cab734cbb309cd3003c9890f1495fb0c36cc33f4d492439f6ebff) */\n      jump\t// in\n    tag_107:\n        /* \"contracts/WETH9.sol\":6537:6540  wad */\n      dup2\n        /* \"contracts/WETH9.sol\":6519:6528  balanceOf */\n      0x3\n        /* \"contracts/WETH9.sol\":6519:6533  balanceOf[src] */\n      0x0\n        /* \"contracts/WETH9.sol\":6529:6532  src */\n      dup7\n        /* \"contracts/WETH9.sol\":6519:6533  balanceOf[src] */\n      0xffffffffffffffffffffffffffffffffffffffff\n      and\n      0xffffffffffffffffffffffffffffffffffffffff\n      and\n      dup2\n      mstore\n      0x20\n      add\n      swap1\n      dup2\n      mstore\n      0x20\n      add\n      0x0\n      keccak256\n      0x0\n        /* \"contracts/WETH9.sol\":6519:6540  balanceOf[src] -= wad */\n      dup3\n      dup3\n      sload\n      sub\n      swap3\n      pop\n      pop\n      dup2\n      swap1\n      sstore\n      pop\n        /* \"contracts/WETH9.sol\":6542:6622  c_0xa6288b22(0xc1758eaa43f7a058fe9e133a9754e1e24fe50b3bf794dd8bae7190c04150bac7) */\n      tag_108\n        /* \"contracts/WETH9.sol\":6555:6621  0xc1758eaa43f7a058fe9e133a9754e1e24fe50b3bf794dd8bae7190c04150bac7 */\n      0xc1758eaa43f7a058fe9e133a9754e1e24fe50b3bf794dd8bae7190c04150bac7\n        /* \"contracts/WETH9.sol\":6542:6622  c_0xa6288b22(0xc1758eaa43f7a058fe9e133a9754e1e24fe50b3bf794dd8bae7190c04150bac7) */\n      0x1\n      mul\n        /* \"contracts/WETH9.sol\":6542:6554  c_0xa6288b22 */\n      tag_17\n        /* \"contracts/WETH9.sol\":6542:6622  c_0xa6288b22(0xc1758eaa43f7a058fe9e133a9754e1e24fe50b3bf794dd8bae7190c04150bac7) */\n      jump\t// in\n    tag_108:\n        /* \"contracts/WETH9.sol\":6644:6724  c_0xa6288b22(0x2d51652292dfb7f147dcb21b0203b6a814917d04d19fa44207d0d18fcbb2f398) */\n      tag_109\n        /* \"contracts/WETH9.sol\":6657:6723  0x2d51652292dfb7f147dcb21b0203b6a814917d04d19fa44207d0d18fcbb2f398 */\n      0x2d51652292dfb7f147dcb21b0203b6a814917d04d19fa44207d0d18fcbb2f398\n        /* \"contracts/WETH9.sol\":6644:6724  c_0xa6288b22(0x2d51652292dfb7f147dcb21b0203b6a814917d04d19fa44207d0d18fcbb2f398) */\n      0x1\n      mul\n        /* \"contracts/WETH9.sol\":6644:6656  c_0xa6288b22 */\n      tag_17\n        /* \"contracts/WETH9.sol\":6644:6724  c_0xa6288b22(0x2d51652292dfb7f147dcb21b0203b6a814917d04d19fa44207d0d18fcbb2f398) */\n      jump\t// in\n    tag_109:\n        /* \"contracts/WETH9.sol\":6761:6764  wad */\n      dup2\n        /* \"contracts/WETH9.sol\":6743:6752  balanceOf */\n      0x3\n        /* \"contracts/WETH9.sol\":6743:6757  balanceOf[dst] */\n      0x0\n        /* \"contracts/WETH9.sol\":6753:6756  dst */\n      dup6\n        /* \"contracts/WETH9.sol\":6743:6757  balanceOf[dst] */\n      0xffffffffffffffffffffffffffffffffffffffff\n      and\n      0xffffffffffffffffffffffffffffffffffffffff\n      and\n      dup2\n      mstore\n      0x20\n      add\n      swap1\n      dup2\n      mstore\n      0x20\n      add\n      0x0\n      keccak256\n      0x0\n        /* \"contracts/WETH9.sol\":6743:6764  balanceOf[dst] += wad */\n      dup3\n      dup3\n      sload\n      add\n      swap3\n      pop\n      pop\n      dup2\n      swap1\n      sstore\n      pop\n        /* \"contracts/WETH9.sol\":6767:6847  c_0xa6288b22(0xaf25e91e6f4a423eea5ae1418ba182789c8b2593826b58abaf5187767bfa4566) */\n      tag_110\n        /* \"contracts/WETH9.sol\":6780:6846  0xaf25e91e6f4a423eea5ae1418ba182789c8b2593826b58abaf5187767bfa4566 */\n      0xaf25e91e6f4a423eea5ae1418ba182789c8b2593826b58abaf5187767bfa4566\n        /* \"contracts/WETH9.sol\":6767:6847  c_0xa6288b22(0xaf25e91e6f4a423eea5ae1418ba182789c8b2593826b58abaf5187767bfa4566) */\n      0x1\n      mul\n        /* \"contracts/WETH9.sol\":6767:6779  c_0xa6288b22 */\n      tag_17\n        /* \"contracts/WETH9.sol\":6767:6847  c_0xa6288b22(0xaf25e91e6f4a423eea5ae1418ba182789c8b2593826b58abaf5187767bfa4566) */\n      jump\t// in\n    tag_110:\n        /* \"contracts/WETH9.sol\":6869:6949  c_0xa6288b22(0xfb526702a190afafbf1a6f64bca35066062bf66cda40dd000691c63a8bb337a5) */\n      tag_111\n        /* \"contracts/WETH9.sol\":6882:6948  0xfb526702a190afafbf1a6f64bca35066062bf66cda40dd000691c63a8bb337a5 */\n      0xfb526702a190afafbf1a6f64bca35066062bf66cda40dd000691c63a8bb337a5\n        /* \"contracts/WETH9.sol\":6869:6949  c_0xa6288b22(0xfb526702a190afafbf1a6f64bca35066062bf66cda40dd000691c63a8bb337a5) */\n      0x1\n      mul\n        /* \"contracts/WETH9.sol\":6869:6881  c_0xa6288b22 */\n      tag_17\n        /* \"contracts/WETH9.sol\":6869:6949  c_0xa6288b22(0xfb526702a190afafbf1a6f64bca35066062bf66cda40dd000691c63a8bb337a5) */\n      jump\t// in\n    tag_111:\n        /* \"contracts/WETH9.sol\":6982:6985  dst */\n      dup3\n        /* \"contracts/WETH9.sol\":6968:6991  Transfer(src, dst, wad) */\n      0xffffffffffffffffffffffffffffffffffffffff\n      and\n        /* \"contracts/WETH9.sol\":6977:6980  src */\n      dup5\n        /* \"contracts/WETH9.sol\":6968:6991  Transfer(src, dst, wad) */\n      0xffffffffffffffffffffffffffffffffffffffff\n      and\n      0xddf252ad1be2c89b69c2b068fc378daa952ba7f163c4a11628f55a4df523b3ef\n        /* \"contracts/WETH9.sol\":6987:6990  wad */\n      dup5\n        /* \"contracts/WETH9.sol\":6968:6991  Transfer(src, dst, wad) */\n      mload(0x40)\n      dup1\n      dup3\n      dup2\n      mstore\n      0x20\n      add\n      swap2\n      pop\n      pop\n      mload(0x40)\n      dup1\n      swap2\n      sub\n      swap1\n      log3\n        /* \"contracts/WETH9.sol\":6994:7074  c_0xa6288b22(0xa63fe8e15f5f716f0a423d1f041273eb5707b71efa7c4ee9922bc494a9645be9) */\n      tag_112\n        /* \"contracts/WETH9.sol\":7007:7073  0xa63fe8e15f5f716f0a423d1f041273eb5707b71efa7c4ee9922bc494a9645be9 */\n      0xa63fe8e15f5f716f0a423d1f041273eb5707b71efa7c4ee9922bc494a9645be9\n        /* \"contracts/WETH9.sol\":6994:7074  c_0xa6288b22(0xa63fe8e15f5f716f0a423d1f041273eb5707b71efa7c4ee9922bc494a9645be9) */\n      0x1\n      mul\n        /* \"contracts/WETH9.sol\":6994:7006  c_0xa6288b22 */\n      tag_17\n        /* \"contracts/WETH9.sol\":6994:7074  c_0xa6288b22(0xa63fe8e15f5f716f0a423d1f041273eb5707b71efa7c4ee9922bc494a9645be9) */\n      jump\t// in\n    tag_112:\n        /* \"contracts/WETH9.sol\":7096:7176  c_0xa6288b22(0x4934e6a474e800223fdad113e8f00fb3774c4e06e141aa0fba5525317e4fcb56) */\n      tag_113\n        /* \"contracts/WETH9.sol\":7109:7175  0x4934e6a474e800223fdad113e8f00fb3774c4e06e141aa0fba5525317e4fcb56 */\n      0x4934e6a474e800223fdad113e8f00fb3774c4e06e141aa0fba5525317e4fcb56\n        /* \"contracts/WETH9.sol\":7096:7176  c_0xa6288b22(0x4934e6a474e800223fdad113e8f00fb3774c4e06e141aa0fba5525317e4fcb56) */\n      0x1\n      mul\n        /* \"contracts/WETH9.sol\":7096:7108  c_0xa6288b22 */\n      tag_17\n        /* \"contracts/WETH9.sol\":7096:7176  c_0xa6288b22(0x4934e6a474e800223fdad113e8f00fb3774c4e06e141aa0fba5525317e4fcb56) */\n      jump\t// in\n    tag_113:\n        /* \"contracts/WETH9.sol\":7202:7206  true */\n      0x1\n        /* \"contracts/WETH9.sol\":7195:7206  return true */\n      swap1\n      pop\n        /* \"contracts/WETH9.sol\":4514:7213  function transferFrom(address src, address dst, uint wad)... */\n      swap4\n      swap3\n      pop\n      pop\n      pop\n      jump\t// out\n        /* \"contracts/WETH9.sol\":1583:2852  function withdraw(uint wad) public {c_0xa6288b22(0x43ad571702be81574c5c03f3d060ddb82e4bc0cb2404d38da724956ccecd9cf5); /* function */ ... */\n    tag_40:\n        /* \"contracts/WETH9.sol\":1619:1699  c_0xa6288b22(0x43ad571702be81574c5c03f3d060ddb82e4bc0cb2404d38da724956ccecd9cf5) */\n      tag_115\n        /* \"contracts/WETH9.sol\":1632:1698  0x43ad571702be81574c5c03f3d060ddb82e4bc0cb2404d38da724956ccecd9cf5 */\n      0x43ad571702be81574c5c03f3d060ddb82e4bc0cb2404d38da724956ccecd9cf5\n        /* \"contracts/WETH9.sol\":1619:1699  c_0xa6288b22(0x43ad571702be81574c5c03f3d060ddb82e4bc0cb2404d38da724956ccecd9cf5) */\n      0x1\n      mul\n        /* \"contracts/WETH9.sol\":1619:1631  c_0xa6288b22 */\n      tag_17\n        /* \"contracts/WETH9.sol\":1619:1699  c_0xa6288b22(0x43ad571702be81574c5c03f3d060ddb82e4bc0cb2404d38da724956ccecd9cf5) */\n      jump\t// in\n    tag_115:\n        /* \"contracts/WETH9.sol\":1718:1798  c_0xa6288b22(0x1ea2b368fc422c407e7ae898edc78154620a0c6b445f93ddf722a791a89795d1) */\n      tag_116\n        /* \"contracts/WETH9.sol\":1731:1797  0x1ea2b368fc422c407e7ae898edc78154620a0c6b445f93ddf722a791a89795d1 */\n      0x1ea2b368fc422c407e7ae898edc78154620a0c6b445f93ddf722a791a89795d1\n        /* \"contracts/WETH9.sol\":1718:1798  c_0xa6288b22(0x1ea2b368fc422c407e7ae898edc78154620a0c6b445f93ddf722a791a89795d1) */\n      0x1\n      mul\n        /* \"contracts/WETH9.sol\":1718:1730  c_0xa6288b22 */\n      tag_17\n        /* \"contracts/WETH9.sol\":1718:1798  c_0xa6288b22(0x1ea2b368fc422c407e7ae898edc78154620a0c6b445f93ddf722a791a89795d1) */\n      jump\t// in\n    tag_116:\n        /* \"contracts/WETH9.sol\":1820:1900  c_0xa6288b22(0x7a7b538be3bc78f19bdaf9afe045344605accc9f36b1396b2b8860b6041c3211) */\n      tag_117\n        /* \"contracts/WETH9.sol\":1833:1899  0x7a7b538be3bc78f19bdaf9afe045344605accc9f36b1396b2b8860b6041c3211 */\n      0x7a7b538be3bc78f19bdaf9afe045344605accc9f36b1396b2b8860b6041c3211\n        /* \"contracts/WETH9.sol\":1820:1900  c_0xa6288b22(0x7a7b538be3bc78f19bdaf9afe045344605accc9f36b1396b2b8860b6041c3211) */\n      0x1\n      mul\n        /* \"contracts/WETH9.sol\":1820:1832  c_0xa6288b22 */\n      tag_17\n        /* \"contracts/WETH9.sol\":1820:1900  c_0xa6288b22(0x7a7b538be3bc78f19bdaf9afe045344605accc9f36b1396b2b8860b6041c3211) */\n      jump\t// in\n    tag_117:\n        /* \"contracts/WETH9.sol\":1920:2000  c_0xa6288b22(0x3acdf651758148900f9b14e202e75c618b4b954d36b4c657873e2cb047e382e2) */\n      tag_118\n        /* \"contracts/WETH9.sol\":1933:1999  0x3acdf651758148900f9b14e202e75c618b4b954d36b4c657873e2cb047e382e2 */\n      0x3acdf651758148900f9b14e202e75c618b4b954d36b4c657873e2cb047e382e2\n        /* \"contracts/WETH9.sol\":1920:2000  c_0xa6288b22(0x3acdf651758148900f9b14e202e75c618b4b954d36b4c657873e2cb047e382e2) */\n      0x1\n      mul\n        /* \"contracts/WETH9.sol\":1920:1932  c_0xa6288b22 */\n      tag_17\n        /* \"contracts/WETH9.sol\":1920:2000  c_0xa6288b22(0x3acdf651758148900f9b14e202e75c618b4b954d36b4c657873e2cb047e382e2) */\n      jump\t// in\n    tag_118:\n        /* \"contracts/WETH9.sol\":2052:2055  wad */\n      dup1\n        /* \"contracts/WETH9.sol\":2027:2036  balanceOf */\n      0x3\n        /* \"contracts/WETH9.sol\":2027:2048  balanceOf[msg.sender] */\n      0x0\n        /* \"contracts/WETH9.sol\":2037:2047  msg.sender */\n      caller\n        /* \"contracts/WETH9.sol\":2027:2048  balanceOf[msg.sender] */\n      0xffffffffffffffffffffffffffffffffffffffff\n      and\n      0xffffffffffffffffffffffffffffffffffffffff\n      and\n      dup2\n      mstore\n      0x20\n      add\n      swap1\n      dup2\n      mstore\n      0x20\n      add\n      0x0\n      keccak256\n      sload\n        /* \"contracts/WETH9.sol\":2027:2055  balanceOf[msg.sender] >= wad */\n      lt\n      iszero\n        /* \"contracts/WETH9.sol\":2019:2056  require(balanceOf[msg.sender] >= wad) */\n      iszero\n      iszero\n      tag_119\n      jumpi\n      0x0\n      dup1\n      revert\n    tag_119:\n        /* \"contracts/WETH9.sol\":2057:2137  c_0xa6288b22(0x3a256afbfb6e78c318b0ddbf380b982766154bb91544f399b455d36fdc7d7bb5) */\n      tag_120\n        /* \"contracts/WETH9.sol\":2070:2136  0x3a256afbfb6e78c318b0ddbf380b982766154bb91544f399b455d36fdc7d7bb5 */\n      0x3a256afbfb6e78c318b0ddbf380b982766154bb91544f399b455d36fdc7d7bb5\n        /* \"contracts/WETH9.sol\":2057:2137  c_0xa6288b22(0x3a256afbfb6e78c318b0ddbf380b982766154bb91544f399b455d36fdc7d7bb5) */\n      0x1\n      mul\n        /* \"contracts/WETH9.sol\":2057:2069  c_0xa6288b22 */\n      tag_17\n        /* \"contracts/WETH9.sol\":2057:2137  c_0xa6288b22(0x3a256afbfb6e78c318b0ddbf380b982766154bb91544f399b455d36fdc7d7bb5) */\n      jump\t// in\n    tag_120:\n        /* \"contracts/WETH9.sol\":2159:2239  c_0xa6288b22(0xe9b9176b5eaaf31b3ce8ebb8660f8595d13f23a4d2fa57a281dceab337c0d780) */\n      tag_121\n        /* \"contracts/WETH9.sol\":2172:2238  0xe9b9176b5eaaf31b3ce8ebb8660f8595d13f23a4d2fa57a281dceab337c0d780 */\n      0xe9b9176b5eaaf31b3ce8ebb8660f8595d13f23a4d2fa57a281dceab337c0d780\n        /* \"contracts/WETH9.sol\":2159:2239  c_0xa6288b22(0xe9b9176b5eaaf31b3ce8ebb8660f8595d13f23a4d2fa57a281dceab337c0d780) */\n      0x1\n      mul\n        /* \"contracts/WETH9.sol\":2159:2171  c_0xa6288b22 */\n      tag_17\n        /* \"contracts/WETH9.sol\":2159:2239  c_0xa6288b22(0xe9b9176b5eaaf31b3ce8ebb8660f8595d13f23a4d2fa57a281dceab337c0d780) */\n      jump\t// in\n    tag_121:\n        /* \"contracts/WETH9.sol\":2261:2341  c_0xa6288b22(0x145ea30b9661b6238c168e8eaee6b2d42a2cfc0c59b7e4d75441c5547f15e32e) */\n      tag_122\n        /* \"contracts/WETH9.sol\":2274:2340  0x145ea30b9661b6238c168e8eaee6b2d42a2cfc0c59b7e4d75441c5547f15e32e */\n      0x145ea30b9661b6238c168e8eaee6b2d42a2cfc0c59b7e4d75441c5547f15e32e\n        /* \"contracts/WETH9.sol\":2261:2341  c_0xa6288b22(0x145ea30b9661b6238c168e8eaee6b2d42a2cfc0c59b7e4d75441c5547f15e32e) */\n      0x1\n      mul\n        /* \"contracts/WETH9.sol\":2261:2273  c_0xa6288b22 */\n      tag_17\n        /* \"contracts/WETH9.sol\":2261:2341  c_0xa6288b22(0x145ea30b9661b6238c168e8eaee6b2d42a2cfc0c59b7e4d75441c5547f15e32e) */\n      jump\t// in\n    tag_122:\n        /* \"contracts/WETH9.sol\":2385:2388  wad */\n      dup1\n        /* \"contracts/WETH9.sol\":2360:2369  balanceOf */\n      0x3\n        /* \"contracts/WETH9.sol\":2360:2381  balanceOf[msg.sender] */\n      0x0\n        /* \"contracts/WETH9.sol\":2370:2380  msg.sender */\n      caller\n        /* \"contracts/WETH9.sol\":2360:2381  balanceOf[msg.sender] */\n      0xffffffffffffffffffffffffffffffffffffffff\n      and\n      0xffffffffffffffffffffffffffffffffffffffff\n      and\n      dup2\n      mstore\n      0x20\n      add\n      swap1\n      dup2\n      mstore\n      0x20\n      add\n      0x0\n      keccak256\n      0x0\n        /* \"contracts/WETH9.sol\":2360:2388  balanceOf[msg.sender] -= wad */\n      dup3\n      dup3\n      sload\n      sub\n      swap3\n      pop\n      pop\n      dup2\n      swap1\n      sstore\n      pop\n        /* \"contracts/WETH9.sol\":2390:2470  c_0xa6288b22(0x274abd5674c9a23b1f0677c4c8bfdbfa34c5b2e0fe47d6a27feb70827e3effec) */\n      tag_123\n        /* \"contracts/WETH9.sol\":2403:2469  0x274abd5674c9a23b1f0677c4c8bfdbfa34c5b2e0fe47d6a27feb70827e3effec */\n      0x274abd5674c9a23b1f0677c4c8bfdbfa34c5b2e0fe47d6a27feb70827e3effec\n        /* \"contracts/WETH9.sol\":2390:2470  c_0xa6288b22(0x274abd5674c9a23b1f0677c4c8bfdbfa34c5b2e0fe47d6a27feb70827e3effec) */\n      0x1\n      mul\n        /* \"contracts/WETH9.sol\":2390:2402  c_0xa6288b22 */\n      tag_17\n        /* \"contracts/WETH9.sol\":2390:2470  c_0xa6288b22(0x274abd5674c9a23b1f0677c4c8bfdbfa34c5b2e0fe47d6a27feb70827e3effec) */\n      jump\t// in\n    tag_123:\n        /* \"contracts/WETH9.sol\":2492:2572  c_0xa6288b22(0xb0f4fd0a5d0dfb903c157373d80e6bbf8a0654ee0f7f659c1183c0fb4d1ccdf5) */\n      tag_124\n        /* \"contracts/WETH9.sol\":2505:2571  0xb0f4fd0a5d0dfb903c157373d80e6bbf8a0654ee0f7f659c1183c0fb4d1ccdf5 */\n      0xb0f4fd0a5d0dfb903c157373d80e6bbf8a0654ee0f7f659c1183c0fb4d1ccdf5\n        /* \"contracts/WETH9.sol\":2492:2572  c_0xa6288b22(0xb0f4fd0a5d0dfb903c157373d80e6bbf8a0654ee0f7f659c1183c0fb4d1ccdf5) */\n      0x1\n      mul\n        /* \"contracts/WETH9.sol\":2492:2504  c_0xa6288b22 */\n      tag_17\n        /* \"contracts/WETH9.sol\":2492:2572  c_0xa6288b22(0xb0f4fd0a5d0dfb903c157373d80e6bbf8a0654ee0f7f659c1183c0fb4d1ccdf5) */\n      jump\t// in\n    tag_124:\n        /* \"contracts/WETH9.sol\":2591:2601  msg.sender */\n      caller\n        /* \"contracts/WETH9.sol\":2591:2610  msg.sender.transfer */\n      0xffffffffffffffffffffffffffffffffffffffff\n      and\n        /* \"contracts/WETH9.sol\":2591:2615  msg.sender.transfer(wad) */\n      0x8fc\n        /* \"contracts/WETH9.sol\":2611:2614  wad */\n      dup3\n        /* \"contracts/WETH9.sol\":2591:2615  msg.sender.transfer(wad) */\n      swap1\n      dup2\n      iszero\n      mul\n      swap1\n      mload(0x40)\n      0x0\n      mload(0x40)\n      dup1\n      dup4\n      sub\n      dup2\n      dup6\n      dup9\n      dup9\n      call\n      swap4\n      pop\n      pop\n      pop\n      pop\n      iszero\n      iszero\n      tag_125\n      jumpi\n      0x0\n      dup1\n      revert\n    tag_125:\n        /* \"contracts/WETH9.sol\":2617:2697  c_0xa6288b22(0x9ca15a40a91759a8b3fcd181a4b9a331c8f5069206f424a0f2b0c694cc548323) */\n      tag_126\n        /* \"contracts/WETH9.sol\":2630:2696  0x9ca15a40a91759a8b3fcd181a4b9a331c8f5069206f424a0f2b0c694cc548323 */\n      0x9ca15a40a91759a8b3fcd181a4b9a331c8f5069206f424a0f2b0c694cc548323\n        /* \"contracts/WETH9.sol\":2617:2697  c_0xa6288b22(0x9ca15a40a91759a8b3fcd181a4b9a331c8f5069206f424a0f2b0c694cc548323) */\n      0x1\n      mul\n        /* \"contracts/WETH9.sol\":2617:2629  c_0xa6288b22 */\n      tag_17\n        /* \"contracts/WETH9.sol\":2617:2697  c_0xa6288b22(0x9ca15a40a91759a8b3fcd181a4b9a331c8f5069206f424a0f2b0c694cc548323) */\n      jump\t// in\n    tag_126:\n        /* \"contracts/WETH9.sol\":2719:2799  c_0xa6288b22(0x8106b47c35e13945bd438a0e9b7e579dc08bbc78a5a7a45b9dca78213efad0a4) */\n      tag_127\n        /* \"contracts/WETH9.sol\":2732:2798  0x8106b47c35e13945bd438a0e9b7e579dc08bbc78a5a7a45b9dca78213efad0a4 */\n      0x8106b47c35e13945bd438a0e9b7e579dc08bbc78a5a7a45b9dca78213efad0a4\n        /* \"contracts/WETH9.sol\":2719:2799  c_0xa6288b22(0x8106b47c35e13945bd438a0e9b7e579dc08bbc78a5a7a45b9dca78213efad0a4) */\n      0x1\n      mul\n        /* \"contracts/WETH9.sol\":2719:2731  c_0xa6288b22 */\n      tag_17\n        /* \"contracts/WETH9.sol\":2719:2799  c_0xa6288b22(0x8106b47c35e13945bd438a0e9b7e579dc08bbc78a5a7a45b9dca78213efad0a4) */\n      jump\t// in\n    tag_127:\n        /* \"contracts/WETH9.sol\":2829:2839  msg.sender */\n      caller\n        /* \"contracts/WETH9.sol\":2818:2845  Withdrawal(msg.sender, wad) */\n      0xffffffffffffffffffffffffffffffffffffffff\n      and\n      0x7fcf532c15f0a6db0bd6d0e038bea71d30d808c7d98cb3bf7268a95bf5081b65\n        /* \"contracts/WETH9.sol\":2841:2844  wad */\n      dup3\n        /* \"contracts/WETH9.sol\":2818:2845  Withdrawal(msg.sender, wad) */\n      mload(0x40)\n      dup1\n      dup3\n      dup2\n      mstore\n      0x20\n      add\n      swap2\n      pop\n      pop\n      mload(0x40)\n      dup1\n      swap2\n      sub\n      swap1\n      log2\n        /* \"contracts/WETH9.sol\":1583:2852  function withdraw(uint wad) public {c_0xa6288b22(0x43ad571702be81574c5c03f3d060ddb82e4bc0cb2404d38da724956ccecd9cf5); /* function */ ... */\n      pop\n      jump\t// out\n        /* \"contracts/WETH9.sol\":192:219  uint8  public decimals = 18 */\n    tag_43:\n      0x2\n      0x0\n      swap1\n      sload\n      swap1\n      0x100\n      exp\n      swap1\n      div\n      0xff\n      and\n      dup2\n      jump\t// out\n        /* \"contracts/WETH9.sol\":478:543  mapping (address => uint)                       public  balanceOf */\n    tag_46:\n      mstore(0x20, 0x3)\n      dup1\n      0x0\n      mstore\n      keccak256(0x0, 0x40)\n      0x0\n      swap2\n      pop\n      swap1\n      pop\n      sload\n      dup2\n      jump\t// out\n        /* \"contracts/WETH9.sol\":155:186  string public symbol   = \"WETH\" */\n    tag_49:\n      0x1\n      dup1\n      sload\n      0x1\n      dup2\n      0x1\n      and\n      iszero\n      0x100\n      mul\n      sub\n      and\n      0x2\n      swap1\n      div\n      dup1\n      0x1f\n      add\n      0x20\n      dup1\n      swap2\n      div\n      mul\n      0x20\n      add\n      mload(0x40)\n      swap1\n      dup2\n      add\n      0x40\n      mstore\n      dup1\n      swap3\n      swap2\n      swap1\n      dup2\n      dup2\n      mstore\n      0x20\n      add\n      dup3\n      dup1\n      sload\n      0x1\n      dup2\n      0x1\n      and\n      iszero\n      0x100\n      mul\n      sub\n      and\n      0x2\n      swap1\n      div\n      dup1\n      iszero\n      tag_128\n      jumpi\n      dup1\n      0x1f\n      lt\n      tag_129\n      jumpi\n      0x100\n      dup1\n      dup4\n      sload\n      div\n      mul\n      dup4\n      mstore\n      swap2\n      0x20\n      add\n      swap2\n      jump(tag_128)\n    tag_129:\n      dup3\n      add\n      swap2\n      swap1\n      0x0\n      mstore\n      keccak256(0x0, 0x20)\n      swap1\n    tag_130:\n      dup2\n      sload\n      dup2\n      mstore\n      swap1\n      0x1\n      add\n      swap1\n      0x20\n      add\n      dup1\n      dup4\n      gt\n      tag_130\n      jumpi\n      dup3\n      swap1\n      sub\n      0x1f\n      and\n      dup3\n      add\n      swap2\n    tag_128:\n      pop\n      pop\n      pop\n      pop\n      pop\n      dup2\n      jump\t// out\n        /* \"contracts/WETH9.sol\":4096:4508  function transfer(address dst, uint wad) public returns (bool) {c_0xa6288b22(0xf887921a4fe8fbd8ae30453120c0e9041c87896439ebaae24a8a2639ddfe6965); /* function */ ... */\n    tag_56:\n        /* \"contracts/WETH9.sol\":4153:4157  bool */\n      0x0\n        /* \"contracts/WETH9.sol\":4160:4240  c_0xa6288b22(0xf887921a4fe8fbd8ae30453120c0e9041c87896439ebaae24a8a2639ddfe6965) */\n      tag_132\n        /* \"contracts/WETH9.sol\":4173:4239  0xf887921a4fe8fbd8ae30453120c0e9041c87896439ebaae24a8a2639ddfe6965 */\n      0xf887921a4fe8fbd8ae30453120c0e9041c87896439ebaae24a8a2639ddfe6965\n        /* \"contracts/WETH9.sol\":4160:4240  c_0xa6288b22(0xf887921a4fe8fbd8ae30453120c0e9041c87896439ebaae24a8a2639ddfe6965) */\n      0x1\n      mul\n        /* \"contracts/WETH9.sol\":4160:4172  c_0xa6288b22 */\n      tag_17\n        /* \"contracts/WETH9.sol\":4160:4240  c_0xa6288b22(0xf887921a4fe8fbd8ae30453120c0e9041c87896439ebaae24a8a2639ddfe6965) */\n      jump\t// in\n    tag_132:\n        /* \"contracts/WETH9.sol\":4259:4339  c_0xa6288b22(0x5f814e70a9b72cac47e8e898d8d864ab8014dbe39232922a08cd38391e97b0ef) */\n      tag_133\n        /* \"contracts/WETH9.sol\":4272:4338  0x5f814e70a9b72cac47e8e898d8d864ab8014dbe39232922a08cd38391e97b0ef */\n      0x5f814e70a9b72cac47e8e898d8d864ab8014dbe39232922a08cd38391e97b0ef\n        /* \"contracts/WETH9.sol\":4259:4339  c_0xa6288b22(0x5f814e70a9b72cac47e8e898d8d864ab8014dbe39232922a08cd38391e97b0ef) */\n      0x1\n      mul\n        /* \"contracts/WETH9.sol\":4259:4271  c_0xa6288b22 */\n      tag_17\n        /* \"contracts/WETH9.sol\":4259:4339  c_0xa6288b22(0x5f814e70a9b72cac47e8e898d8d864ab8014dbe39232922a08cd38391e97b0ef) */\n      jump\t// in\n    tag_133:\n        /* \"contracts/WETH9.sol\":4361:4441  c_0xa6288b22(0x2aa64f47d2c86a10b812fbac19d32101e4fbdd991c27a553648b46bf41e081c7) */\n      tag_134\n        /* \"contracts/WETH9.sol\":4374:4440  0x2aa64f47d2c86a10b812fbac19d32101e4fbdd991c27a553648b46bf41e081c7 */\n      0x2aa64f47d2c86a10b812fbac19d32101e4fbdd991c27a553648b46bf41e081c7\n        /* \"contracts/WETH9.sol\":4361:4441  c_0xa6288b22(0x2aa64f47d2c86a10b812fbac19d32101e4fbdd991c27a553648b46bf41e081c7) */\n      0x1\n      mul\n        /* \"contracts/WETH9.sol\":4361:4373  c_0xa6288b22 */\n      tag_17\n        /* \"contracts/WETH9.sol\":4361:4441  c_0xa6288b22(0x2aa64f47d2c86a10b812fbac19d32101e4fbdd991c27a553648b46bf41e081c7) */\n      jump\t// in\n    tag_134:\n        /* \"contracts/WETH9.sol\":4467:4501  transferFrom(msg.sender, dst, wad) */\n      tag_135\n        /* \"contracts/WETH9.sol\":4480:4490  msg.sender */\n      caller\n        /* \"contracts/WETH9.sol\":4492:4495  dst */\n      dup5\n        /* \"contracts/WETH9.sol\":4497:4500  wad */\n      dup5\n        /* \"contracts/WETH9.sol\":4467:4479  transferFrom */\n      tag_37\n        /* \"contracts/WETH9.sol\":4467:4501  transferFrom(msg.sender, dst, wad) */\n      jump\t// in\n    tag_135:\n        /* \"contracts/WETH9.sol\":4460:4501  return transferFrom(msg.sender, dst, wad) */\n      swap1\n      pop\n        /* \"contracts/WETH9.sol\":4096:4508  function transfer(address dst, uint wad) public returns (bool) {c_0xa6288b22(0xf887921a4fe8fbd8ae30453120c0e9041c87896439ebaae24a8a2639ddfe6965); /* function */ ... */\n      swap3\n      swap2\n      pop\n      pop\n      jump\t// out\n        /* \"contracts/WETH9.sol\":549:614  mapping (address => mapping (address => uint))  public  allowance */\n    tag_60:\n      mstore(0x20, 0x4)\n      dup2\n      0x0\n      mstore\n      mstore(0x20, keccak256(0x0, 0x40))\n      dup1\n      0x0\n      mstore\n      keccak256(0x0, 0x40)\n      0x0\n      swap2\n      pop\n      swap2\n      pop\n      pop\n      sload\n      dup2\n      jump\t// out\n\n    auxdata: 0xa165627a7a72305820e5d9dccd6daf207ddc8746c682fac23a6e9330656a05879bd4725054c012e9430029\n}\n",
        "bytecode": {
          "linkReferences": {},
          "object": "60606040526040805190810160405280600d81526020017f57726170706564204574686572000000000000000000000000000000000000008152506000908051906020019062000051929190620000ce565b506040805190810160405280600481526020017f5745544800000000000000000000000000000000000000000000000000000000815250600190805190602001906200009f929190620000ce565b506012600260006101000a81548160ff021916908360ff1602179055503415620000c857600080fd5b6200017d565b828054600181600116156101000203166002900490600052602060002090601f016020900481019282601f106200011157805160ff191683800117855562000142565b8280016001018555821562000142579182015b828111156200014157825182559160200191906001019062000124565b5b50905062000151919062000155565b5090565b6200017a91905b80821115620001765760008160009055506001016200015c565b5090565b90565b6115e2806200018d6000396000f3006060604052600436106100ba576000357c0100000000000000000000000000000000000000000000000000000000900463ffffffff16806306fdde0314610148578063095ea7b3146101d657806318160ddd1461023057806323b872dd146102595780632e1a7d4d146102d2578063313ce567146102f557806370a082311461032457806395d89b4114610371578063a9059cbb146103ff578063d0e30db014610459578063dd62ed3e14610463578063fb88eac1146104cf575b6100e67f196624e1bacde074d3eee87968576b51a46ec9bb49cee8030f9cec4ab32d14036001026104f6565b6101127fe7a193123f911b063d87354ce7e41134cd9dff602d7b6b91b8c22a3e761c6bb56001026104f6565b61013e7fd8f0760867533a2a149762947ee3a72c39847bfd68b37458aabb8de99f96e3286001026104f6565b6101466104f9565b005b341561015357600080fd5b61015b610672565b6040518080602001828103825283818151815260200191508051906020019080838360005b8381101561019b578082015181840152602081019050610180565b50505050905090810190601f1680156101c85780820380516001836020036101000a031916815260200191505b509250505060405180910390f35b34156101e157600080fd5b610216600480803573ffffffffffffffffffffffffffffffffffffffff16906020019091908035906020019091905050610710565b604051808215151515815260200191505060405180910390f35b341561023b57600080fd5b610243610936565b6040518082815260200191505060405180910390f35b341561026457600080fd5b6102b8600480803573ffffffffffffffffffffffffffffffffffffffff1690602001909190803573ffffffffffffffffffffffffffffffffffffffff169060200190919080359060200190919050506109d9565b604051808215151515815260200191505060405180910390f35b34156102dd57600080fd5b6102f3600480803590602001909190505061111f565b005b341561030057600080fd5b61030861142f565b604051808260ff1660ff16815260200191505060405180910390f35b341561032f57600080fd5b61035b600480803573ffffffffffffffffffffffffffffffffffffffff16906020019091905050611442565b6040518082815260200191505060405180910390f35b341561037c57600080fd5b61038461145a565b6040518080602001828103825283818151815260200191508051906020019080838360005b838110156103c45780820151818401526020810190506103a9565b50505050905090810190601f1680156103f15780820380516001836020036101000a031916815260200191505b509250505060405180910390f35b341561040a57600080fd5b61043f600480803573ffffffffffffffffffffffffffffffffffffffff169060200190919080359060200190919050506114f8565b604051808215151515815260200191505060405180910390f35b6104616104f9565b005b341561046e57600080fd5b6104b9600480803573ffffffffffffffffffffffffffffffffffffffff1690602001909190803573ffffffffffffffffffffffffffffffffffffffff16906020019091905050611591565b6040518082815260200191505060405180910390f35b34156104da57600080fd5b6104f46004808035600019169060200190919050506104f6565b005b50565b6105257f13b12d68af6b5a953100b9eef65f93db52d3789015ceab117aa3e8f7139730c16001026104f6565b6105517f6369c2e5311be1d010dda67b5da40de073ed031615a95eca65abd704bfc21af76001026104f6565b61057d7fdcfa88918cf24a31bb5736acdff8d42df795b024525374871de65139482871766001026104f6565b34600360003373ffffffffffffffffffffffffffffffffffffffff1673ffffffffffffffffffffffffffffffffffffffff168152602001908152602001600020600082825401925050819055506105f67fffce08c7177edf9a69755e87ad3f89afdb1b20918e0f39730f8acdf413f4d8f86001026104f6565b6106227f03fe08012f7a23f0b434a0d0188215d4d6b66a9863e113a405dbe7ed62c4e3b26001026104f6565b3373ffffffffffffffffffffffffffffffffffffffff167fe1fffcc4923d04b559f4d29a8bfc6cda04eb5b0d3c460751c2402c5c5cc9109c346040518082815260200191505060405180910390a2565b60008054600181600116156101000203166002900480601f0160208091040260200160405190810160405280929190818152602001828054600181600116156101000203166002900480156107085780601f106106dd57610100808354040283529160200191610708565b820191906000526020600020905b8154815290600101906020018083116106eb57829003601f168201915b505050505081565b600061073e7fd3d462d9a1d81e8f3a3487f04153307d274d2d8d4c5e84963e81f5c869db51b96001026104f6565b61076a7ffb07c2eba158d062ed0f2285e0ed472848c343d48b4088059d7286f9b41d1d7e6001026104f6565b6107967f3b51f8e2cc919b886c8b01d02641e9b809bc9b0b995ac8c1f6fb0171022b7d026001026104f6565b81600460003373ffffffffffffffffffffffffffffffffffffffff1673ffffffffffffffffffffffffffffffffffffffff16815260200190815260200160002060008573ffffffffffffffffffffffffffffffffffffffff1673ffffffffffffffffffffffffffffffffffffffff168152602001908152602001600020819055506108437f0f049d63e9d884f1f8f6bcea014452607e98fb44376c70d802ec6ccbb3adc35c6001026104f6565b61086f7ff4fdda65ad3fc670872c63525dec64b987565226316f9e3a7f548cdd8e87f6116001026104f6565b8273ffffffffffffffffffffffffffffffffffffffff163373ffffffffffffffffffffffffffffffffffffffff167f8c5be1e5ebec7d5bd14f71427d1e84f3dd0314c0f7b2291e5b200ac8c7c3b925846040518082815260200191505060405180910390a36109007fc3d3bdbac02135fa83247a37d922d5f9979f3022c03abacc540e27fa510a7ec66001026104f6565b61092c7f2b6dd422bfc96f2702ed67dda3e2f972383e75debf9966a280382c4cbc606ad06001026104f6565b6001905092915050565b60006109647f61ce729d8311e23a3dfd33f2fdf583583a0d8a52ee59d31c5ca861f5b3ebafd16001026104f6565b6109907f79737ece001a7da4d71877d0e60e4a7326de59c92a0c8a973b21565605e6bc7a6001026104f6565b6109bc7fccb031ba5ba657ac03ec8c7ddc6621953950fc29230f43ee68f01013add608cb6001026104f6565b3073ffffffffffffffffffffffffffffffffffffffff1631905090565b6000610a077f9efd367919cbc4c84600142105d0e65fbb9702c983335d4e1c74163597e6c8fd6001026104f6565b610a337f4749966bcba8acc8b3d9e302b91434144697e650b8b463fa87a10c9863d7b8b66001026104f6565b610a5f7f60eeb62df9246106a512500346257776545c23ffdfe36a1d6da11bf7c64b35ea6001026104f6565b610a8b7fa48c91896ba678aad25a352943699fcd080c8380f2af1b17355c8eae576be6936001026104f6565b81600360008673ffffffffffffffffffffffffffffffffffffffff1673ffffffffffffffffffffffffffffffffffffffff1681526020019081526020016000205410151515610ad957600080fd5b610b057ff241a528c4c31c1477c521f6743c3fd95de8029b025ba91a0987c7f77ce017856001026104f6565b610b317f11b76b847dd0accfa6fc7f36a1f34bbff33c456d260d6c4466f107cbdd5517a36001026104f6565b610b5d7f58dc17758779bad7fce3c72e240f3ff87665b4c3b163004e6de0b633f4b0de8a6001026104f6565b3373ffffffffffffffffffffffffffffffffffffffff168473ffffffffffffffffffffffffffffffffffffffff1614158015610c3557507fffffffffffffffffffffffffffffffffffffffffffffffffffffffffffffffff600460008673ffffffffffffffffffffffffffffffffffffffff1673ffffffffffffffffffffffffffffffffffffffff16815260200190815260200160002060003373ffffffffffffffffffffffffffffffffffffffff1673ffffffffffffffffffffffffffffffffffffffff1681526020019081526020016000205414155b15610e8857610c667feb62d979d316bc10804f10c2b0bb158c6f5d1e5eea219edeef1f3e67e54e27b86001026104f6565b610c927f9527dd4bb14cb0b2701bea1c926f6a863e219b2b65741de2c0f543fa6f8c79286001026104f6565b610cbe7fc3d69c09ba9107104f024769d31e2f31326864287f086439a9740bedbe11d6f16001026104f6565b610cea7f133296fbc8a2d8c4153492571c16bd7e6d3c5714292047158515268106533dfd6001026104f6565b81600460008673ffffffffffffffffffffffffffffffffffffffff1673ffffffffffffffffffffffffffffffffffffffff16815260200190815260200160002060003373ffffffffffffffffffffffffffffffffffffffff1673ffffffffffffffffffffffffffffffffffffffff1681526020019081526020016000205410151515610d7557600080fd5b610da17f8f5b7073ce1619d8623f247d7f88c5b56c6e17fb0da10a9935cc54c47e552db56001026104f6565b610dcd7f9c089d8867462a6232c1223c515495ba4d53fc689b43ef6ad2a43108e6175bff6001026104f6565b610df97f0bfdd77493091b090c4718d328ed206cbc19224c6338742bea1e668ae4e9b2dc6001026104f6565b81600460008673ffffffffffffffffffffffffffffffffffffffff1673ffffffffffffffffffffffffffffffffffffffff16815260200190815260200160002060003373ffffffffffffffffffffffffffffffffffffffff1673ffffffffffffffffffffffffffffffffffffffff16815260200190815260200160002060008282540392505081905550610eb5565b610eb47f35c800f3c11c110e7b217fcabec397d2254dbaff0790205cc52422123d34dbb76001026104f6565b5b610ee17fff68d5141577c92eb191c8e5bc12c9588933f404fcbb453b9db9588103f589526001026104f6565b610f0d7f96f067c2094cab734cbb309cd3003c9890f1495fb0c36cc33f4d492439f6ebff6001026104f6565b81600360008673ffffffffffffffffffffffffffffffffffffffff1673ffffffffffffffffffffffffffffffffffffffff16815260200190815260200160002060008282540392505081905550610f867fc1758eaa43f7a058fe9e133a9754e1e24fe50b3bf794dd8bae7190c04150bac76001026104f6565b610fb27f2d51652292dfb7f147dcb21b0203b6a814917d04d19fa44207d0d18fcbb2f3986001026104f6565b81600360008573ffffffffffffffffffffffffffffffffffffffff1673ffffffffffffffffffffffffffffffffffffffff1681526020019081526020016000206000828254019250508190555061102b7faf25e91e6f4a423eea5ae1418ba182789c8b2593826b58abaf5187767bfa45666001026104f6565b6110577ffb526702a190afafbf1a6f64bca35066062bf66cda40dd000691c63a8bb337a56001026104f6565b8273ffffffffffffffffffffffffffffffffffffffff168473ffffffffffffffffffffffffffffffffffffffff167fddf252ad1be2c89b69c2b068fc378daa952ba7f163c4a11628f55a4df523b3ef846040518082815260200191505060405180910390a36110e87fa63fe8e15f5f716f0a423d1f041273eb5707b71efa7c4ee9922bc494a9645be96001026104f6565b6111147f4934e6a474e800223fdad113e8f00fb3774c4e06e141aa0fba5525317e4fcb566001026104f6565b600190509392505050565b61114b7f43ad571702be81574c5c03f3d060ddb82e4bc0cb2404d38da724956ccecd9cf56001026104f6565b6111777f1ea2b368fc422c407e7ae898edc78154620a0c6b445f93ddf722a791a89795d16001026104f6565b6111a37f7a7b538be3bc78f19bdaf9afe045344605accc9f36b1396b2b8860b6041c32116001026104f6565b6111cf7f3acdf651758148900f9b14e202e75c618b4b954d36b4c657873e2cb047e382e26001026104f6565b80600360003373ffffffffffffffffffffffffffffffffffffffff1673ffffffffffffffffffffffffffffffffffffffff168152602001908152602001600020541015151561121d57600080fd5b6112497f3a256afbfb6e78c318b0ddbf380b982766154bb91544f399b455d36fdc7d7bb56001026104f6565b6112757fe9b9176b5eaaf31b3ce8ebb8660f8595d13f23a4d2fa57a281dceab337c0d7806001026104f6565b6112a17f145ea30b9661b6238c168e8eaee6b2d42a2cfc0c59b7e4d75441c5547f15e32e6001026104f6565b80600360003373ffffffffffffffffffffffffffffffffffffffff1673ffffffffffffffffffffffffffffffffffffffff1681526020019081526020016000206000828254039250508190555061131a7f274abd5674c9a23b1f0677c4c8bfdbfa34c5b2e0fe47d6a27feb70827e3effec6001026104f6565b6113467fb0f4fd0a5d0dfb903c157373d80e6bbf8a0654ee0f7f659c1183c0fb4d1ccdf56001026104f6565b3373ffffffffffffffffffffffffffffffffffffffff166108fc829081150290604051600060405180830381858888f19350505050151561138657600080fd5b6113b27f9ca15a40a91759a8b3fcd181a4b9a331c8f5069206f424a0f2b0c694cc5483236001026104f6565b6113de7f8106b47c35e13945bd438a0e9b7e579dc08bbc78a5a7a45b9dca78213efad0a46001026104f6565b3373ffffffffffffffffffffffffffffffffffffffff167f7fcf532c15f0a6db0bd6d0e038bea71d30d808c7d98cb3bf7268a95bf5081b65826040518082815260200191505060405180910390a250565b600260009054906101000a900460ff1681565b60036020528060005260406000206000915090505481565b60018054600181600116156101000203166002900480601f0160208091040260200160405190810160405280929190818152602001828054600181600116156101000203166002900480156114f05780601f106114c5576101008083540402835291602001916114f0565b820191906000526020600020905b8154815290600101906020018083116114d357829003601f168201915b505050505081565b60006115267ff887921a4fe8fbd8ae30453120c0e9041c87896439ebaae24a8a2639ddfe69656001026104f6565b6115527f5f814e70a9b72cac47e8e898d8d864ab8014dbe39232922a08cd38391e97b0ef6001026104f6565b61157e7f2aa64f47d2c86a10b812fbac19d32101e4fbdd991c27a553648b46bf41e081c76001026104f6565b6115893384846109d9565b905092915050565b60046020528160005260406000206020528060005260406000206000915091505054815600a165627a7a72305820e5d9dccd6daf207ddc8746c682fac23a6e9330656a05879bd4725054c012e9430029",
          "opcodes": "PUSH1 0x60 PUSH1 0x40 MSTORE PUSH1 0x40 DUP1 MLOAD SWAP1 DUP2 ADD PUSH1 0x40 MSTORE DUP1 PUSH1 0xD DUP2 MSTORE PUSH1 0x20 ADD PUSH32 0x5772617070656420457468657200000000000000000000000000000000000000 DUP2 MSTORE POP PUSH1 0x0 SWAP1 DUP1 MLOAD SWAP1 PUSH1 0x20 ADD SWAP1 PUSH3 0x51 SWAP3 SWAP2 SWAP1 PUSH3 0xCE JUMP JUMPDEST POP PUSH1 0x40 DUP1 MLOAD SWAP1 DUP2 ADD PUSH1 0x40 MSTORE DUP1 PUSH1 0x4 DUP2 MSTORE PUSH1 0x20 ADD PUSH32 0x5745544800000000000000000000000000000000000000000000000000000000 DUP2 MSTORE POP PUSH1 0x1 SWAP1 DUP1 MLOAD SWAP1 PUSH1 0x20 ADD SWAP1 PUSH3 0x9F SWAP3 SWAP2 SWAP1 PUSH3 0xCE JUMP JUMPDEST POP PUSH1 0x12 PUSH1 0x2 PUSH1 0x0 PUSH2 0x100 EXP DUP2 SLOAD DUP2 PUSH1 0xFF MUL NOT AND SWAP1 DUP4 PUSH1 0xFF AND MUL OR SWAP1 SSTORE POP CALLVALUE ISZERO PUSH3 0xC8 JUMPI PUSH1 0x0 DUP1 REVERT JUMPDEST PUSH3 0x17D JUMP JUMPDEST DUP3 DUP1 SLOAD PUSH1 0x1 DUP2 PUSH1 0x1 AND ISZERO PUSH2 0x100 MUL SUB AND PUSH1 0x2 SWAP1 DIV SWAP1 PUSH1 0x0 MSTORE PUSH1 0x20 PUSH1 0x0 KECCAK256 SWAP1 PUSH1 0x1F ADD PUSH1 0x20 SWAP1 DIV DUP2 ADD SWAP3 DUP3 PUSH1 0x1F LT PUSH3 0x111 JUMPI DUP1 MLOAD PUSH1 0xFF NOT AND DUP4 DUP1 ADD OR DUP6 SSTORE PUSH3 0x142 JUMP JUMPDEST DUP3 DUP1 ADD PUSH1 0x1 ADD DUP6 SSTORE DUP3 ISZERO PUSH3 0x142 JUMPI SWAP2 DUP3 ADD JUMPDEST DUP3 DUP2 GT ISZERO PUSH3 0x141 JUMPI DUP3 MLOAD DUP3 SSTORE SWAP2 PUSH1 0x20 ADD SWAP2 SWAP1 PUSH1 0x1 ADD SWAP1 PUSH3 0x124 JUMP JUMPDEST JUMPDEST POP SWAP1 POP PUSH3 0x151 SWAP2 SWAP1 PUSH3 0x155 JUMP JUMPDEST POP SWAP1 JUMP JUMPDEST PUSH3 0x17A SWAP2 SWAP1 JUMPDEST DUP1 DUP3 GT ISZERO PUSH3 0x176 JUMPI PUSH1 0x0 DUP2 PUSH1 0x0 SWAP1 SSTORE POP PUSH1 0x1 ADD PUSH3 0x15C JUMP JUMPDEST POP SWAP1 JUMP JUMPDEST SWAP1 JUMP JUMPDEST PUSH2 0x15E2 DUP1 PUSH3 0x18D PUSH1 0x0 CODECOPY PUSH1 0x0 RETURN STOP PUSH1 0x60 PUSH1 0x40 MSTORE PUSH1 0x4 CALLDATASIZE LT PUSH2 0xBA JUMPI PUSH1 0x0 CALLDATALOAD PUSH29 0x100000000000000000000000000000000000000000000000000000000 SWAP1 DIV PUSH4 0xFFFFFFFF AND DUP1 PUSH4 0x6FDDE03 EQ PUSH2 0x148 JUMPI DUP1 PUSH4 0x95EA7B3 EQ PUSH2 0x1D6 JUMPI DUP1 PUSH4 0x18160DDD EQ PUSH2 0x230 JUMPI DUP1 PUSH4 0x23B872DD EQ PUSH2 0x259 JUMPI DUP1 PUSH4 0x2E1A7D4D EQ PUSH2 0x2D2 JUMPI DUP1 PUSH4 0x313CE567 EQ PUSH2 0x2F5 JUMPI DUP1 PUSH4 0x70A08231 EQ PUSH2 0x324 JUMPI DUP1 PUSH4 0x95D89B41 EQ PUSH2 0x371 JUMPI DUP1 PUSH4 0xA9059CBB EQ PUSH2 0x3FF JUMPI DUP1 PUSH4 0xD0E30DB0 EQ PUSH2 0x459 JUMPI DUP1 PUSH4 0xDD62ED3E EQ PUSH2 0x463 JUMPI DUP1 PUSH4 0xFB88EAC1 EQ PUSH2 0x4CF JUMPI JUMPDEST PUSH2 0xE6 PUSH32 0x196624E1BACDE074D3EEE87968576B51A46EC9BB49CEE8030F9CEC4AB32D1403 PUSH1 0x1 MUL PUSH2 0x4F6 JUMP JUMPDEST PUSH2 0x112 PUSH32 0xE7A193123F911B063D87354CE7E41134CD9DFF602D7B6B91B8C22A3E761C6BB5 PUSH1 0x1 MUL PUSH2 0x4F6 JUMP JUMPDEST PUSH2 0x13E PUSH32 0xD8F0760867533A2A149762947EE3A72C39847BFD68B37458AABB8DE99F96E328 PUSH1 0x1 MUL PUSH2 0x4F6 JUMP JUMPDEST PUSH2 0x146 PUSH2 0x4F9 JUMP JUMPDEST STOP JUMPDEST CALLVALUE ISZERO PUSH2 0x153 JUMPI PUSH1 0x0 DUP1 REVERT JUMPDEST PUSH2 0x15B PUSH2 0x672 JUMP JUMPDEST PUSH1 0x40 MLOAD DUP1 DUP1 PUSH1 0x20 ADD DUP3 DUP2 SUB DUP3 MSTORE DUP4 DUP2 DUP2 MLOAD DUP2 MSTORE PUSH1 0x20 ADD SWAP2 POP DUP1 MLOAD SWAP1 PUSH1 0x20 ADD SWAP1 DUP1 DUP4 DUP4 PUSH1 0x0 JUMPDEST DUP4 DUP2 LT ISZERO PUSH2 0x19B JUMPI DUP1 DUP3 ADD MLOAD DUP2 DUP5 ADD MSTORE PUSH1 0x20 DUP2 ADD SWAP1 POP PUSH2 0x180 JUMP JUMPDEST POP POP POP POP SWAP1 POP SWAP1 DUP2 ADD SWAP1 PUSH1 0x1F AND DUP1 ISZERO PUSH2 0x1C8 JUMPI DUP1 DUP3 SUB DUP1 MLOAD PUSH1 0x1 DUP4 PUSH1 0x20 SUB PUSH2 0x100 EXP SUB NOT AND DUP2 MSTORE PUSH1 0x20 ADD SWAP2 POP JUMPDEST POP SWAP3 POP POP POP PUSH1 0x40 MLOAD DUP1 SWAP2 SUB SWAP1 RETURN JUMPDEST CALLVALUE ISZERO PUSH2 0x1E1 JUMPI PUSH1 0x0 DUP1 REVERT JUMPDEST PUSH2 0x216 PUSH1 0x4 DUP1 DUP1 CALLDATALOAD PUSH20 0xFFFFFFFFFFFFFFFFFFFFFFFFFFFFFFFFFFFFFFFF AND SWAP1 PUSH1 0x20 ADD SWAP1 SWAP2 SWAP1 DUP1 CALLDATALOAD SWAP1 PUSH1 0x20 ADD SWAP1 SWAP2 SWAP1 POP POP PUSH2 0x710 JUMP JUMPDEST PUSH1 0x40 MLOAD DUP1 DUP3 ISZERO ISZERO ISZERO ISZERO DUP2 MSTORE PUSH1 0x20 ADD SWAP2 POP POP PUSH1 0x40 MLOAD DUP1 SWAP2 SUB SWAP1 RETURN JUMPDEST CALLVALUE ISZERO PUSH2 0x23B JUMPI PUSH1 0x0 DUP1 REVERT JUMPDEST PUSH2 0x243 PUSH2 0x936 JUMP JUMPDEST PUSH1 0x40 MLOAD DUP1 DUP3 DUP2 MSTORE PUSH1 0x20 ADD SWAP2 POP POP PUSH1 0x40 MLOAD DUP1 SWAP2 SUB SWAP1 RETURN JUMPDEST CALLVALUE ISZERO PUSH2 0x264 JUMPI PUSH1 0x0 DUP1 REVERT JUMPDEST PUSH2 0x2B8 PUSH1 0x4 DUP1 DUP1 CALLDATALOAD PUSH20 0xFFFFFFFFFFFFFFFFFFFFFFFFFFFFFFFFFFFFFFFF AND SWAP1 PUSH1 0x20 ADD SWAP1 SWAP2 SWAP1 DUP1 CALLDATALOAD PUSH20 0xFFFFFFFFFFFFFFFFFFFFFFFFFFFFFFFFFFFFFFFF AND SWAP1 PUSH1 0x20 ADD SWAP1 SWAP2 SWAP1 DUP1 CALLDATALOAD SWAP1 PUSH1 0x20 ADD SWAP1 SWAP2 SWAP1 POP POP PUSH2 0x9D9 JUMP JUMPDEST PUSH1 0x40 MLOAD DUP1 DUP3 ISZERO ISZERO ISZERO ISZERO DUP2 MSTORE PUSH1 0x20 ADD SWAP2 POP POP PUSH1 0x40 MLOAD DUP1 SWAP2 SUB SWAP1 RETURN JUMPDEST CALLVALUE ISZERO PUSH2 0x2DD JUMPI PUSH1 0x0 DUP1 REVERT JUMPDEST PUSH2 0x2F3 PUSH1 0x4 DUP1 DUP1 CALLDATALOAD SWAP1 PUSH1 0x20 ADD SWAP1 SWAP2 SWAP1 POP POP PUSH2 0x111F JUMP JUMPDEST STOP JUMPDEST CALLVALUE ISZERO PUSH2 0x300 JUMPI PUSH1 0x0 DUP1 REVERT JUMPDEST PUSH2 0x308 PUSH2 0x142F JUMP JUMPDEST PUSH1 0x40 MLOAD DUP1 DUP3 PUSH1 0xFF AND PUSH1 0xFF AND DUP2 MSTORE PUSH1 0x20 ADD SWAP2 POP POP PUSH1 0x40 MLOAD DUP1 SWAP2 SUB SWAP1 RETURN JUMPDEST CALLVALUE ISZERO PUSH2 0x32F JUMPI PUSH1 0x0 DUP1 REVERT JUMPDEST PUSH2 0x35B PUSH1 0x4 DUP1 DUP1 CALLDATALOAD PUSH20 0xFFFFFFFFFFFFFFFFFFFFFFFFFFFFFFFFFFFFFFFF AND SWAP1 PUSH1 0x20 ADD SWAP1 SWAP2 SWAP1 POP POP PUSH2 0x1442 JUMP JUMPDEST PUSH1 0x40 MLOAD DUP1 DUP3 DUP2 MSTORE PUSH1 0x20 ADD SWAP2 POP POP PUSH1 0x40 MLOAD DUP1 SWAP2 SUB SWAP1 RETURN JUMPDEST CALLVALUE ISZERO PUSH2 0x37C JUMPI PUSH1 0x0 DUP1 REVERT JUMPDEST PUSH2 0x384 PUSH2 0x145A JUMP JUMPDEST PUSH1 0x40 MLOAD DUP1 DUP1 PUSH1 0x20 ADD DUP3 DUP2 SUB DUP3 MSTORE DUP4 DUP2 DUP2 MLOAD DUP2 MSTORE PUSH1 0x20 ADD SWAP2 POP DUP1 MLOAD SWAP1 PUSH1 0x20 ADD SWAP1 DUP1 DUP4 DUP4 PUSH1 0x0 JUMPDEST DUP4 DUP2 LT ISZERO PUSH2 0x3C4 JUMPI DUP1 DUP3 ADD MLOAD DUP2 DUP5 ADD MSTORE PUSH1 0x20 DUP2 ADD SWAP1 POP PUSH2 0x3A9 JUMP JUMPDEST POP POP POP POP SWAP1 POP SWAP1 DUP2 ADD SWAP1 PUSH1 0x1F AND DUP1 ISZERO PUSH2 0x3F1 JUMPI DUP1 DUP3 SUB DUP1 MLOAD PUSH1 0x1 DUP4 PUSH1 0x20 SUB PUSH2 0x100 EXP SUB NOT AND DUP2 MSTORE PUSH1 0x20 ADD SWAP2 POP JUMPDEST POP SWAP3 POP POP POP PUSH1 0x40 MLOAD DUP1 SWAP2 SUB SWAP1 RETURN JUMPDEST CALLVALUE ISZERO PUSH2 0x40A JUMPI PUSH1 0x0 DUP1 REVERT JUMPDEST PUSH2 0x43F PUSH1 0x4 DUP1 DUP1 CALLDATALOAD PUSH20 0xFFFFFFFFFFFFFFFFFFFFFFFFFFFFFFFFFFFFFFFF AND SWAP1 PUSH1 0x20 ADD SWAP1 SWAP2 SWAP1 DUP1 CALLDATALOAD SWAP1 PUSH1 0x20 ADD SWAP1 SWAP2 SWAP1 POP POP PUSH2 0x14F8 JUMP JUMPDEST PUSH1 0x40 MLOAD DUP1 DUP3 ISZERO ISZERO ISZERO ISZERO DUP2 MSTORE PUSH1 0x20 ADD SWAP2 POP POP PUSH1 0x40 MLOAD DUP1 SWAP2 SUB SWAP1 RETURN JUMPDEST PUSH2 0x461 PUSH2 0x4F9 JUMP JUMPDEST STOP JUMPDEST CALLVALUE ISZERO PUSH2 0x46E JUMPI PUSH1 0x0 DUP1 REVERT JUMPDEST PUSH2 0x4B9 PUSH1 0x4 DUP1 DUP1 CALLDATALOAD PUSH20 0xFFFFFFFFFFFFFFFFFFFFFFFFFFFFFFFFFFFFFFFF AND SWAP1 PUSH1 0x20 ADD SWAP1 SWAP2 SWAP1 DUP1 CALLDATALOAD PUSH20 0xFFFFFFFFFFFFFFFFFFFFFFFFFFFFFFFFFFFFFFFF AND SWAP1 PUSH1 0x20 ADD SWAP1 SWAP2 SWAP1 POP POP PUSH2 0x1591 JUMP JUMPDEST PUSH1 0x40 MLOAD DUP1 DUP3 DUP2 MSTORE PUSH1 0x20 ADD SWAP2 POP POP PUSH1 0x40 MLOAD DUP1 SWAP2 SUB SWAP1 RETURN JUMPDEST CALLVALUE ISZERO PUSH2 0x4DA JUMPI PUSH1 0x0 DUP1 REVERT JUMPDEST PUSH2 0x4F4 PUSH1 0x4 DUP1 DUP1 CALLDATALOAD PUSH1 0x0 NOT AND SWAP1 PUSH1 0x20 ADD SWAP1 SWAP2 SWAP1 POP POP PUSH2 0x4F6 JUMP JUMPDEST STOP JUMPDEST POP JUMP JUMPDEST PUSH2 0x525 PUSH32 0x13B12D68AF6B5A953100B9EEF65F93DB52D3789015CEAB117AA3E8F7139730C1 PUSH1 0x1 MUL PUSH2 0x4F6 JUMP JUMPDEST PUSH2 0x551 PUSH32 0x6369C2E5311BE1D010DDA67B5DA40DE073ED031615A95ECA65ABD704BFC21AF7 PUSH1 0x1 MUL PUSH2 0x4F6 JUMP JUMPDEST PUSH2 0x57D PUSH32 0xDCFA88918CF24A31BB5736ACDFF8D42DF795B024525374871DE6513948287176 PUSH1 0x1 MUL PUSH2 0x4F6 JUMP JUMPDEST CALLVALUE PUSH1 0x3 PUSH1 0x0 CALLER PUSH20 0xFFFFFFFFFFFFFFFFFFFFFFFFFFFFFFFFFFFFFFFF AND PUSH20 0xFFFFFFFFFFFFFFFFFFFFFFFFFFFFFFFFFFFFFFFF AND DUP2 MSTORE PUSH1 0x20 ADD SWAP1 DUP2 MSTORE PUSH1 0x20 ADD PUSH1 0x0 KECCAK256 PUSH1 0x0 DUP3 DUP3 SLOAD ADD SWAP3 POP POP DUP2 SWAP1 SSTORE POP PUSH2 0x5F6 PUSH32 0xFFCE08C7177EDF9A69755E87AD3F89AFDB1B20918E0F39730F8ACDF413F4D8F8 PUSH1 0x1 MUL PUSH2 0x4F6 JUMP JUMPDEST PUSH2 0x622 PUSH32 0x3FE08012F7A23F0B434A0D0188215D4D6B66A9863E113A405DBE7ED62C4E3B2 PUSH1 0x1 MUL PUSH2 0x4F6 JUMP JUMPDEST CALLER PUSH20 0xFFFFFFFFFFFFFFFFFFFFFFFFFFFFFFFFFFFFFFFF AND PUSH32 0xE1FFFCC4923D04B559F4D29A8BFC6CDA04EB5B0D3C460751C2402C5C5CC9109C CALLVALUE PUSH1 0x40 MLOAD DUP1 DUP3 DUP2 MSTORE PUSH1 0x20 ADD SWAP2 POP POP PUSH1 0x40 MLOAD DUP1 SWAP2 SUB SWAP1 LOG2 JUMP JUMPDEST PUSH1 0x0 DUP1 SLOAD PUSH1 0x1 DUP2 PUSH1 0x1 AND ISZERO PUSH2 0x100 MUL SUB AND PUSH1 0x2 SWAP1 DIV DUP1 PUSH1 0x1F ADD PUSH1 0x20 DUP1 SWAP2 DIV MUL PUSH1 0x20 ADD PUSH1 0x40 MLOAD SWAP1 DUP2 ADD PUSH1 0x40 MSTORE DUP1 SWAP3 SWAP2 SWAP1 DUP2 DUP2 MSTORE PUSH1 0x20 ADD DUP3 DUP1 SLOAD PUSH1 0x1 DUP2 PUSH1 0x1 AND ISZERO PUSH2 0x100 MUL SUB AND PUSH1 0x2 SWAP1 DIV DUP1 ISZERO PUSH2 0x708 JUMPI DUP1 PUSH1 0x1F LT PUSH2 0x6DD JUMPI PUSH2 0x100 DUP1 DUP4 SLOAD DIV MUL DUP4 MSTORE SWAP2 PUSH1 0x20 ADD SWAP2 PUSH2 0x708 JUMP JUMPDEST DUP3 ADD SWAP2 SWAP1 PUSH1 0x0 MSTORE PUSH1 0x20 PUSH1 0x0 KECCAK256 SWAP1 JUMPDEST DUP2 SLOAD DUP2 MSTORE SWAP1 PUSH1 0x1 ADD SWAP1 PUSH1 0x20 ADD DUP1 DUP4 GT PUSH2 0x6EB JUMPI DUP3 SWAP1 SUB PUSH1 0x1F AND DUP3 ADD SWAP2 JUMPDEST POP POP POP POP POP DUP2 JUMP JUMPDEST PUSH1 0x0 PUSH2 0x73E PUSH32 0xD3D462D9A1D81E8F3A3487F04153307D274D2D8D4C5E84963E81F5C869DB51B9 PUSH1 0x1 MUL PUSH2 0x4F6 JUMP JUMPDEST PUSH2 0x76A PUSH32 0xFB07C2EBA158D062ED0F2285E0ED472848C343D48B4088059D7286F9B41D1D7E PUSH1 0x1 MUL PUSH2 0x4F6 JUMP JUMPDEST PUSH2 0x796 PUSH32 0x3B51F8E2CC919B886C8B01D02641E9B809BC9B0B995AC8C1F6FB0171022B7D02 PUSH1 0x1 MUL PUSH2 0x4F6 JUMP JUMPDEST DUP2 PUSH1 0x4 PUSH1 0x0 CALLER PUSH20 0xFFFFFFFFFFFFFFFFFFFFFFFFFFFFFFFFFFFFFFFF AND PUSH20 0xFFFFFFFFFFFFFFFFFFFFFFFFFFFFFFFFFFFFFFFF AND DUP2 MSTORE PUSH1 0x20 ADD SWAP1 DUP2 MSTORE PUSH1 0x20 ADD PUSH1 0x0 KECCAK256 PUSH1 0x0 DUP6 PUSH20 0xFFFFFFFFFFFFFFFFFFFFFFFFFFFFFFFFFFFFFFFF AND PUSH20 0xFFFFFFFFFFFFFFFFFFFFFFFFFFFFFFFFFFFFFFFF AND DUP2 MSTORE PUSH1 0x20 ADD SWAP1 DUP2 MSTORE PUSH1 0x20 ADD PUSH1 0x0 KECCAK256 DUP2 SWAP1 SSTORE POP PUSH2 0x843 PUSH32 0xF049D63E9D884F1F8F6BCEA014452607E98FB44376C70D802EC6CCBB3ADC35C PUSH1 0x1 MUL PUSH2 0x4F6 JUMP JUMPDEST PUSH2 0x86F PUSH32 0xF4FDDA65AD3FC670872C63525DEC64B987565226316F9E3A7F548CDD8E87F611 PUSH1 0x1 MUL PUSH2 0x4F6 JUMP JUMPDEST DUP3 PUSH20 0xFFFFFFFFFFFFFFFFFFFFFFFFFFFFFFFFFFFFFFFF AND CALLER PUSH20 0xFFFFFFFFFFFFFFFFFFFFFFFFFFFFFFFFFFFFFFFF AND PUSH32 0x8C5BE1E5EBEC7D5BD14F71427D1E84F3DD0314C0F7B2291E5B200AC8C7C3B925 DUP5 PUSH1 0x40 MLOAD DUP1 DUP3 DUP2 MSTORE PUSH1 0x20 ADD SWAP2 POP POP PUSH1 0x40 MLOAD DUP1 SWAP2 SUB SWAP1 LOG3 PUSH2 0x900 PUSH32 0xC3D3BDBAC02135FA83247A37D922D5F9979F3022C03ABACC540E27FA510A7EC6 PUSH1 0x1 MUL PUSH2 0x4F6 JUMP JUMPDEST PUSH2 0x92C PUSH32 0x2B6DD422BFC96F2702ED67DDA3E2F972383E75DEBF9966A280382C4CBC606AD0 PUSH1 0x1 MUL PUSH2 0x4F6 JUMP JUMPDEST PUSH1 0x1 SWAP1 POP SWAP3 SWAP2 POP POP JUMP JUMPDEST PUSH1 0x0 PUSH2 0x964 PUSH32 0x61CE729D8311E23A3DFD33F2FDF583583A0D8A52EE59D31C5CA861F5B3EBAFD1 PUSH1 0x1 MUL PUSH2 0x4F6 JUMP JUMPDEST PUSH2 0x990 PUSH32 0x79737ECE001A7DA4D71877D0E60E4A7326DE59C92A0C8A973B21565605E6BC7A PUSH1 0x1 MUL PUSH2 0x4F6 JUMP JUMPDEST PUSH2 0x9BC PUSH32 0xCCB031BA5BA657AC03EC8C7DDC6621953950FC29230F43EE68F01013ADD608CB PUSH1 0x1 MUL PUSH2 0x4F6 JUMP JUMPDEST ADDRESS PUSH20 0xFFFFFFFFFFFFFFFFFFFFFFFFFFFFFFFFFFFFFFFF AND BALANCE SWAP1 POP SWAP1 JUMP JUMPDEST PUSH1 0x0 PUSH2 0xA07 PUSH32 0x9EFD367919CBC4C84600142105D0E65FBB9702C983335D4E1C74163597E6C8FD PUSH1 0x1 MUL PUSH2 0x4F6 JUMP JUMPDEST PUSH2 0xA33 PUSH32 0x4749966BCBA8ACC8B3D9E302B91434144697E650B8B463FA87A10C9863D7B8B6 PUSH1 0x1 MUL PUSH2 0x4F6 JUMP JUMPDEST PUSH2 0xA5F PUSH32 0x60EEB62DF9246106A512500346257776545C23FFDFE36A1D6DA11BF7C64B35EA PUSH1 0x1 MUL PUSH2 0x4F6 JUMP JUMPDEST PUSH2 0xA8B PUSH32 0xA48C91896BA678AAD25A352943699FCD080C8380F2AF1B17355C8EAE576BE693 PUSH1 0x1 MUL PUSH2 0x4F6 JUMP JUMPDEST DUP2 PUSH1 0x3 PUSH1 0x0 DUP7 PUSH20 0xFFFFFFFFFFFFFFFFFFFFFFFFFFFFFFFFFFFFFFFF AND PUSH20 0xFFFFFFFFFFFFFFFFFFFFFFFFFFFFFFFFFFFFFFFF AND DUP2 MSTORE PUSH1 0x20 ADD SWAP1 DUP2 MSTORE PUSH1 0x20 ADD PUSH1 0x0 KECCAK256 SLOAD LT ISZERO ISZERO ISZERO PUSH2 0xAD9 JUMPI PUSH1 0x0 DUP1 REVERT JUMPDEST PUSH2 0xB05 PUSH32 0xF241A528C4C31C1477C521F6743C3FD95DE8029B025BA91A0987C7F77CE01785 PUSH1 0x1 MUL PUSH2 0x4F6 JUMP JUMPDEST PUSH2 0xB31 PUSH32 0x11B76B847DD0ACCFA6FC7F36A1F34BBFF33C456D260D6C4466F107CBDD5517A3 PUSH1 0x1 MUL PUSH2 0x4F6 JUMP JUMPDEST PUSH2 0xB5D PUSH32 0x58DC17758779BAD7FCE3C72E240F3FF87665B4C3B163004E6DE0B633F4B0DE8A PUSH1 0x1 MUL PUSH2 0x4F6 JUMP JUMPDEST CALLER PUSH20 0xFFFFFFFFFFFFFFFFFFFFFFFFFFFFFFFFFFFFFFFF AND DUP5 PUSH20 0xFFFFFFFFFFFFFFFFFFFFFFFFFFFFFFFFFFFFFFFF AND EQ ISZERO DUP1 ISZERO PUSH2 0xC35 JUMPI POP PUSH32 0xFFFFFFFFFFFFFFFFFFFFFFFFFFFFFFFFFFFFFFFFFFFFFFFFFFFFFFFFFFFFFFFF PUSH1 0x4 PUSH1 0x0 DUP7 PUSH20 0xFFFFFFFFFFFFFFFFFFFFFFFFFFFFFFFFFFFFFFFF AND PUSH20 0xFFFFFFFFFFFFFFFFFFFFFFFFFFFFFFFFFFFFFFFF AND DUP2 MSTORE PUSH1 0x20 ADD SWAP1 DUP2 MSTORE PUSH1 0x20 ADD PUSH1 0x0 KECCAK256 PUSH1 0x0 CALLER PUSH20 0xFFFFFFFFFFFFFFFFFFFFFFFFFFFFFFFFFFFFFFFF AND PUSH20 0xFFFFFFFFFFFFFFFFFFFFFFFFFFFFFFFFFFFFFFFF AND DUP2 MSTORE PUSH1 0x20 ADD SWAP1 DUP2 MSTORE PUSH1 0x20 ADD PUSH1 0x0 KECCAK256 SLOAD EQ ISZERO JUMPDEST ISZERO PUSH2 0xE88 JUMPI PUSH2 0xC66 PUSH32 0xEB62D979D316BC10804F10C2B0BB158C6F5D1E5EEA219EDEEF1F3E67E54E27B8 PUSH1 0x1 MUL PUSH2 0x4F6 JUMP JUMPDEST PUSH2 0xC92 PUSH32 0x9527DD4BB14CB0B2701BEA1C926F6A863E219B2B65741DE2C0F543FA6F8C7928 PUSH1 0x1 MUL PUSH2 0x4F6 JUMP JUMPDEST PUSH2 0xCBE PUSH32 0xC3D69C09BA9107104F024769D31E2F31326864287F086439A9740BEDBE11D6F1 PUSH1 0x1 MUL PUSH2 0x4F6 JUMP JUMPDEST PUSH2 0xCEA PUSH32 0x133296FBC8A2D8C4153492571C16BD7E6D3C5714292047158515268106533DFD PUSH1 0x1 MUL PUSH2 0x4F6 JUMP JUMPDEST DUP2 PUSH1 0x4 PUSH1 0x0 DUP7 PUSH20 0xFFFFFFFFFFFFFFFFFFFFFFFFFFFFFFFFFFFFFFFF AND PUSH20 0xFFFFFFFFFFFFFFFFFFFFFFFFFFFFFFFFFFFFFFFF AND DUP2 MSTORE PUSH1 0x20 ADD SWAP1 DUP2 MSTORE PUSH1 0x20 ADD PUSH1 0x0 KECCAK256 PUSH1 0x0 CALLER PUSH20 0xFFFFFFFFFFFFFFFFFFFFFFFFFFFFFFFFFFFFFFFF AND PUSH20 0xFFFFFFFFFFFFFFFFFFFFFFFFFFFFFFFFFFFFFFFF AND DUP2 MSTORE PUSH1 0x20 ADD SWAP1 DUP2 MSTORE PUSH1 0x20 ADD PUSH1 0x0 KECCAK256 SLOAD LT ISZERO ISZERO ISZERO PUSH2 0xD75 JUMPI PUSH1 0x0 DUP1 REVERT JUMPDEST PUSH2 0xDA1 PUSH32 0x8F5B7073CE1619D8623F247D7F88C5B56C6E17FB0DA10A9935CC54C47E552DB5 PUSH1 0x1 MUL PUSH2 0x4F6 JUMP JUMPDEST PUSH2 0xDCD PUSH32 0x9C089D8867462A6232C1223C515495BA4D53FC689B43EF6AD2A43108E6175BFF PUSH1 0x1 MUL PUSH2 0x4F6 JUMP JUMPDEST PUSH2 0xDF9 PUSH32 0xBFDD77493091B090C4718D328ED206CBC19224C6338742BEA1E668AE4E9B2DC PUSH1 0x1 MUL PUSH2 0x4F6 JUMP JUMPDEST DUP2 PUSH1 0x4 PUSH1 0x0 DUP7 PUSH20 0xFFFFFFFFFFFFFFFFFFFFFFFFFFFFFFFFFFFFFFFF AND PUSH20 0xFFFFFFFFFFFFFFFFFFFFFFFFFFFFFFFFFFFFFFFF AND DUP2 MSTORE PUSH1 0x20 ADD SWAP1 DUP2 MSTORE PUSH1 0x20 ADD PUSH1 0x0 KECCAK256 PUSH1 0x0 CALLER PUSH20 0xFFFFFFFFFFFFFFFFFFFFFFFFFFFFFFFFFFFFFFFF AND PUSH20 0xFFFFFFFFFFFFFFFFFFFFFFFFFFFFFFFFFFFFFFFF AND DUP2 MSTORE PUSH1 0x20 ADD SWAP1 DUP2 MSTORE PUSH1 0x20 ADD PUSH1 0x0 KECCAK256 PUSH1 0x0 DUP3 DUP3 SLOAD SUB SWAP3 POP POP DUP2 SWAP1 SSTORE POP PUSH2 0xEB5 JUMP JUMPDEST PUSH2 0xEB4 PUSH32 0x35C800F3C11C110E7B217FCABEC397D2254DBAFF0790205CC52422123D34DBB7 PUSH1 0x1 MUL PUSH2 0x4F6 JUMP JUMPDEST JUMPDEST PUSH2 0xEE1 PUSH32 0xFF68D5141577C92EB191C8E5BC12C9588933F404FCBB453B9DB9588103F58952 PUSH1 0x1 MUL PUSH2 0x4F6 JUMP JUMPDEST PUSH2 0xF0D PUSH32 0x96F067C2094CAB734CBB309CD3003C9890F1495FB0C36CC33F4D492439F6EBFF PUSH1 0x1 MUL PUSH2 0x4F6 JUMP JUMPDEST DUP2 PUSH1 0x3 PUSH1 0x0 DUP7 PUSH20 0xFFFFFFFFFFFFFFFFFFFFFFFFFFFFFFFFFFFFFFFF AND PUSH20 0xFFFFFFFFFFFFFFFFFFFFFFFFFFFFFFFFFFFFFFFF AND DUP2 MSTORE PUSH1 0x20 ADD SWAP1 DUP2 MSTORE PUSH1 0x20 ADD PUSH1 0x0 KECCAK256 PUSH1 0x0 DUP3 DUP3 SLOAD SUB SWAP3 POP POP DUP2 SWAP1 SSTORE POP PUSH2 0xF86 PUSH32 0xC1758EAA43F7A058FE9E133A9754E1E24FE50B3BF794DD8BAE7190C04150BAC7 PUSH1 0x1 MUL PUSH2 0x4F6 JUMP JUMPDEST PUSH2 0xFB2 PUSH32 0x2D51652292DFB7F147DCB21B0203B6A814917D04D19FA44207D0D18FCBB2F398 PUSH1 0x1 MUL PUSH2 0x4F6 JUMP JUMPDEST DUP2 PUSH1 0x3 PUSH1 0x0 DUP6 PUSH20 0xFFFFFFFFFFFFFFFFFFFFFFFFFFFFFFFFFFFFFFFF AND PUSH20 0xFFFFFFFFFFFFFFFFFFFFFFFFFFFFFFFFFFFFFFFF AND DUP2 MSTORE PUSH1 0x20 ADD SWAP1 DUP2 MSTORE PUSH1 0x20 ADD PUSH1 0x0 KECCAK256 PUSH1 0x0 DUP3 DUP3 SLOAD ADD SWAP3 POP POP DUP2 SWAP1 SSTORE POP PUSH2 0x102B PUSH32 0xAF25E91E6F4A423EEA5AE1418BA182789C8B2593826B58ABAF5187767BFA4566 PUSH1 0x1 MUL PUSH2 0x4F6 JUMP JUMPDEST PUSH2 0x1057 PUSH32 0xFB526702A190AFAFBF1A6F64BCA35066062BF66CDA40DD000691C63A8BB337A5 PUSH1 0x1 MUL PUSH2 0x4F6 JUMP JUMPDEST DUP3 PUSH20 0xFFFFFFFFFFFFFFFFFFFFFFFFFFFFFFFFFFFFFFFF AND DUP5 PUSH20 0xFFFFFFFFFFFFFFFFFFFFFFFFFFFFFFFFFFFFFFFF AND PUSH32 0xDDF252AD1BE2C89B69C2B068FC378DAA952BA7F163C4A11628F55A4DF523B3EF DUP5 PUSH1 0x40 MLOAD DUP1 DUP3 DUP2 MSTORE PUSH1 0x20 ADD SWAP2 POP POP PUSH1 0x40 MLOAD DUP1 SWAP2 SUB SWAP1 LOG3 PUSH2 0x10E8 PUSH32 0xA63FE8E15F5F716F0A423D1F041273EB5707B71EFA7C4EE9922BC494A9645BE9 PUSH1 0x1 MUL PUSH2 0x4F6 JUMP JUMPDEST PUSH2 0x1114 PUSH32 0x4934E6A474E800223FDAD113E8F00FB3774C4E06E141AA0FBA5525317E4FCB56 PUSH1 0x1 MUL PUSH2 0x4F6 JUMP JUMPDEST PUSH1 0x1 SWAP1 POP SWAP4 SWAP3 POP POP POP JUMP JUMPDEST PUSH2 0x114B PUSH32 0x43AD571702BE81574C5C03F3D060DDB82E4BC0CB2404D38DA724956CCECD9CF5 PUSH1 0x1 MUL PUSH2 0x4F6 JUMP JUMPDEST PUSH2 0x1177 PUSH32 0x1EA2B368FC422C407E7AE898EDC78154620A0C6B445F93DDF722A791A89795D1 PUSH1 0x1 MUL PUSH2 0x4F6 JUMP JUMPDEST PUSH2 0x11A3 PUSH32 0x7A7B538BE3BC78F19BDAF9AFE045344605ACCC9F36B1396B2B8860B6041C3211 PUSH1 0x1 MUL PUSH2 0x4F6 JUMP JUMPDEST PUSH2 0x11CF PUSH32 0x3ACDF651758148900F9B14E202E75C618B4B954D36B4C657873E2CB047E382E2 PUSH1 0x1 MUL PUSH2 0x4F6 JUMP JUMPDEST DUP1 PUSH1 0x3 PUSH1 0x0 CALLER PUSH20 0xFFFFFFFFFFFFFFFFFFFFFFFFFFFFFFFFFFFFFFFF AND PUSH20 0xFFFFFFFFFFFFFFFFFFFFFFFFFFFFFFFFFFFFFFFF AND DUP2 MSTORE PUSH1 0x20 ADD SWAP1 DUP2 MSTORE PUSH1 0x20 ADD PUSH1 0x0 KECCAK256 SLOAD LT ISZERO ISZERO ISZERO PUSH2 0x121D JUMPI PUSH1 0x0 DUP1 REVERT JUMPDEST PUSH2 0x1249 PUSH32 0x3A256AFBFB6E78C318B0DDBF380B982766154BB91544F399B455D36FDC7D7BB5 PUSH1 0x1 MUL PUSH2 0x4F6 JUMP JUMPDEST PUSH2 0x1275 PUSH32 0xE9B9176B5EAAF31B3CE8EBB8660F8595D13F23A4D2FA57A281DCEAB337C0D780 PUSH1 0x1 MUL PUSH2 0x4F6 JUMP JUMPDEST PUSH2 0x12A1 PUSH32 0x145EA30B9661B6238C168E8EAEE6B2D42A2CFC0C59B7E4D75441C5547F15E32E PUSH1 0x1 MUL PUSH2 0x4F6 JUMP JUMPDEST DUP1 PUSH1 0x3 PUSH1 0x0 CALLER PUSH20 0xFFFFFFFFFFFFFFFFFFFFFFFFFFFFFFFFFFFFFFFF AND PUSH20 0xFFFFFFFFFFFFFFFFFFFFFFFFFFFFFFFFFFFFFFFF AND DUP2 MSTORE PUSH1 0x20 ADD SWAP1 DUP2 MSTORE PUSH1 0x20 ADD PUSH1 0x0 KECCAK256 PUSH1 0x0 DUP3 DUP3 SLOAD SUB SWAP3 POP POP DUP2 SWAP1 SSTORE POP PUSH2 0x131A PUSH32 0x274ABD5674C9A23B1F0677C4C8BFDBFA34C5B2E0FE47D6A27FEB70827E3EFFEC PUSH1 0x1 MUL PUSH2 0x4F6 JUMP JUMPDEST PUSH2 0x1346 PUSH32 0xB0F4FD0A5D0DFB903C157373D80E6BBF8A0654EE0F7F659C1183C0FB4D1CCDF5 PUSH1 0x1 MUL PUSH2 0x4F6 JUMP JUMPDEST CALLER PUSH20 0xFFFFFFFFFFFFFFFFFFFFFFFFFFFFFFFFFFFFFFFF AND PUSH2 0x8FC DUP3 SWAP1 DUP2 ISZERO MUL SWAP1 PUSH1 0x40 MLOAD PUSH1 0x0 PUSH1 0x40 MLOAD DUP1 DUP4 SUB DUP2 DUP6 DUP9 DUP9 CALL SWAP4 POP POP POP POP ISZERO ISZERO PUSH2 0x1386 JUMPI PUSH1 0x0 DUP1 REVERT JUMPDEST PUSH2 0x13B2 PUSH32 0x9CA15A40A91759A8B3FCD181A4B9A331C8F5069206F424A0F2B0C694CC548323 PUSH1 0x1 MUL PUSH2 0x4F6 JUMP JUMPDEST PUSH2 0x13DE PUSH32 0x8106B47C35E13945BD438A0E9B7E579DC08BBC78A5A7A45B9DCA78213EFAD0A4 PUSH1 0x1 MUL PUSH2 0x4F6 JUMP JUMPDEST CALLER PUSH20 0xFFFFFFFFFFFFFFFFFFFFFFFFFFFFFFFFFFFFFFFF AND PUSH32 0x7FCF532C15F0A6DB0BD6D0E038BEA71D30D808C7D98CB3BF7268A95BF5081B65 DUP3 PUSH1 0x40 MLOAD DUP1 DUP3 DUP2 MSTORE PUSH1 0x20 ADD SWAP2 POP POP PUSH1 0x40 MLOAD DUP1 SWAP2 SUB SWAP1 LOG2 POP JUMP JUMPDEST PUSH1 0x2 PUSH1 0x0 SWAP1 SLOAD SWAP1 PUSH2 0x100 EXP SWAP1 DIV PUSH1 0xFF AND DUP2 JUMP JUMPDEST PUSH1 0x3 PUSH1 0x20 MSTORE DUP1 PUSH1 0x0 MSTORE PUSH1 0x40 PUSH1 0x0 KECCAK256 PUSH1 0x0 SWAP2 POP SWAP1 POP SLOAD DUP2 JUMP JUMPDEST PUSH1 0x1 DUP1 SLOAD PUSH1 0x1 DUP2 PUSH1 0x1 AND ISZERO PUSH2 0x100 MUL SUB AND PUSH1 0x2 SWAP1 DIV DUP1 PUSH1 0x1F ADD PUSH1 0x20 DUP1 SWAP2 DIV MUL PUSH1 0x20 ADD PUSH1 0x40 MLOAD SWAP1 DUP2 ADD PUSH1 0x40 MSTORE DUP1 SWAP3 SWAP2 SWAP1 DUP2 DUP2 MSTORE PUSH1 0x20 ADD DUP3 DUP1 SLOAD PUSH1 0x1 DUP2 PUSH1 0x1 AND ISZERO PUSH2 0x100 MUL SUB AND PUSH1 0x2 SWAP1 DIV DUP1 ISZERO PUSH2 0x14F0 JUMPI DUP1 PUSH1 0x1F LT PUSH2 0x14C5 JUMPI PUSH2 0x100 DUP1 DUP4 SLOAD DIV MUL DUP4 MSTORE SWAP2 PUSH1 0x20 ADD SWAP2 PUSH2 0x14F0 JUMP JUMPDEST DUP3 ADD SWAP2 SWAP1 PUSH1 0x0 MSTORE PUSH1 0x20 PUSH1 0x0 KECCAK256 SWAP1 JUMPDEST DUP2 SLOAD DUP2 MSTORE SWAP1 PUSH1 0x1 ADD SWAP1 PUSH1 0x20 ADD DUP1 DUP4 GT PUSH2 0x14D3 JUMPI DUP3 SWAP1 SUB PUSH1 0x1F AND DUP3 ADD SWAP2 JUMPDEST POP POP POP POP POP DUP2 JUMP JUMPDEST PUSH1 0x0 PUSH2 0x1526 PUSH32 0xF887921A4FE8FBD8AE30453120C0E9041C87896439EBAAE24A8A2639DDFE6965 PUSH1 0x1 MUL PUSH2 0x4F6 JUMP JUMPDEST PUSH2 0x1552 PUSH32 0x5F814E70A9B72CAC47E8E898D8D864AB8014DBE39232922A08CD38391E97B0EF PUSH1 0x1 MUL PUSH2 0x4F6 JUMP JUMPDEST PUSH2 0x157E PUSH32 0x2AA64F47D2C86A10B812FBAC19D32101E4FBDD991C27A553648B46BF41E081C7 PUSH1 0x1 MUL PUSH2 0x4F6 JUMP JUMPDEST PUSH2 0x1589 CALLER DUP5 DUP5 PUSH2 0x9D9 JUMP JUMPDEST SWAP1 POP SWAP3 SWAP2 POP POP JUMP JUMPDEST PUSH1 0x4 PUSH1 0x20 MSTORE DUP2 PUSH1 0x0 MSTORE PUSH1 0x40 PUSH1 0x0 KECCAK256 PUSH1 0x20 MSTORE DUP1 PUSH1 0x0 MSTORE PUSH1 0x40 PUSH1 0x0 KECCAK256 PUSH1 0x0 SWAP2 POP SWAP2 POP POP SLOAD DUP2 JUMP STOP LOG1 PUSH6 0x627A7A723058 KECCAK256 0xe5 0xd9 0xdc 0xcd PUSH14 0xAF207DDC8746C682FAC23A6E9330 PUSH6 0x6A05879BD472 POP SLOAD 0xc0 SLT 0xe9 NUMBER STOP 0x29 "
        },
        "gasEstimates": {
          "creation": {
            "codeDepositCost": "1120400",
            "executionCost": "infinite",
            "totalCost": "infinite"
          },
          "external": {
            "": "infinite",
            "allowance(address,address)": "infinite",
            "approve(address,uint256)": "infinite",
            "balanceOf(address)": "infinite",
            "c_0xa6288b22(bytes32)": "infinite",
            "decimals()": "infinite",
            "deposit()": "infinite",
            "name()": "infinite",
            "symbol()": "infinite",
            "totalSupply()": "infinite",
            "transfer(address,uint256)": "infinite",
            "transferFrom(address,address,uint256)": "infinite",
            "withdraw(uint256)": "infinite"
          }
        },
        "methodIdentifiers": {
          "allowance(address,address)": "dd62ed3e",
          "approve(address,uint256)": "095ea7b3",
          "balanceOf(address)": "70a08231",
          "c_0xa6288b22(bytes32)": "fb88eac1",
          "decimals()": "313ce567",
          "deposit()": "d0e30db0",
          "name()": "06fdde03",
          "symbol()": "95d89b41",
          "totalSupply()": "18160ddd",
          "transfer(address,uint256)": "a9059cbb",
          "transferFrom(address,address,uint256)": "23b872dd",
          "withdraw(uint256)": "2e1a7d4d"
        }
      },
      "userdoc": {
        "methods": {}
      }
    }
  }
}