{
  "_format": "hh-sol-artifact-1",
  "contractName": "BEP20",
  "sourceName": "contracts/BEP20.sol",
  "abi": [
    {
      "inputs": [
        {
          "internalType": "string",
          "name": "name",
          "type": "string"
        },
        {
          "internalType": "string",
          "name": "symbol",
          "type": "string"
        }
      ],
      "stateMutability": "nonpayable",
      "type": "constructor"
    },
    {
      "anonymous": false,
      "inputs": [
        {
          "indexed": true,
          "internalType": "address",
          "name": "owner",
          "type": "address"
        },
        {
          "indexed": true,
          "internalType": "address",
          "name": "spender",
          "type": "address"
        },
        {
          "indexed": false,
          "internalType": "uint256",
          "name": "value",
          "type": "uint256"
        }
      ],
      "name": "Approval",
      "type": "event"
    },
    {
      "anonymous": false,
      "inputs": [
        {
          "indexed": true,
          "internalType": "address",
          "name": "previousOwner",
          "type": "address"
        },
        {
          "indexed": true,
          "internalType": "address",
          "name": "newOwner",
          "type": "address"
        }
      ],
      "name": "OwnershipTransferred",
      "type": "event"
    },
    {
      "anonymous": false,
      "inputs": [
        {
          "indexed": true,
          "internalType": "address",
          "name": "from",
          "type": "address"
        },
        {
          "indexed": true,
          "internalType": "address",
          "name": "to",
          "type": "address"
        },
        {
          "indexed": false,
          "internalType": "uint256",
          "name": "value",
          "type": "uint256"
        }
      ],
      "name": "Transfer",
      "type": "event"
    },
    {
      "inputs": [
        {
          "internalType": "address",
          "name": "owner",
          "type": "address"
        },
        {
          "internalType": "address",
          "name": "spender",
          "type": "address"
        }
      ],
      "name": "allowance",
      "outputs": [
        {
          "internalType": "uint256",
          "name": "",
          "type": "uint256"
        }
      ],
      "stateMutability": "view",
      "type": "function"
    },
    {
      "inputs": [
        {
          "internalType": "address",
          "name": "spender",
          "type": "address"
        },
        {
          "internalType": "uint256",
          "name": "amount",
          "type": "uint256"
        }
      ],
      "name": "approve",
      "outputs": [
        {
          "internalType": "bool",
          "name": "",
          "type": "bool"
        }
      ],
      "stateMutability": "nonpayable",
      "type": "function"
    },
    {
      "inputs": [
        {
          "internalType": "address",
          "name": "account",
          "type": "address"
        }
      ],
      "name": "balanceOf",
      "outputs": [
        {
          "internalType": "uint256",
          "name": "",
          "type": "uint256"
        }
      ],
      "stateMutability": "view",
      "type": "function"
    },
    {
      "inputs": [
        {
          "internalType": "bytes32",
          "name": "c__0x3be1494f",
          "type": "bytes32"
        }
      ],
      "name": "c_0x3be1494f",
      "outputs": [],
      "stateMutability": "pure",
      "type": "function"
    },
    {
      "inputs": [
        {
          "internalType": "bytes32",
          "name": "c__0x8cd32bbd",
          "type": "bytes32"
        }
      ],
      "name": "c_0x8cd32bbd",
      "outputs": [],
      "stateMutability": "pure",
      "type": "function"
    },
    {
      "inputs": [
        {
          "internalType": "bytes32",
          "name": "c__0xb29e4f8f",
          "type": "bytes32"
        }
      ],
      "name": "c_0xb29e4f8f",
      "outputs": [],
      "stateMutability": "pure",
      "type": "function"
    },
    {
      "inputs": [],
      "name": "decimals",
      "outputs": [
        {
          "internalType": "uint8",
          "name": "",
          "type": "uint8"
        }
      ],
      "stateMutability": "view",
      "type": "function"
    },
    {
      "inputs": [
        {
          "internalType": "address",
          "name": "spender",
          "type": "address"
        },
        {
          "internalType": "uint256",
          "name": "subtractedValue",
          "type": "uint256"
        }
      ],
      "name": "decreaseAllowance",
      "outputs": [
        {
          "internalType": "bool",
          "name": "",
          "type": "bool"
        }
      ],
      "stateMutability": "nonpayable",
      "type": "function"
    },
    {
      "inputs": [],
      "name": "getOwner",
      "outputs": [
        {
          "internalType": "address",
          "name": "",
          "type": "address"
        }
      ],
      "stateMutability": "view",
      "type": "function"
    },
    {
      "inputs": [
        {
          "internalType": "address",
          "name": "spender",
          "type": "address"
        },
        {
          "internalType": "uint256",
          "name": "addedValue",
          "type": "uint256"
        }
      ],
      "name": "increaseAllowance",
      "outputs": [
        {
          "internalType": "bool",
          "name": "",
          "type": "bool"
        }
      ],
      "stateMutability": "nonpayable",
      "type": "function"
    },
    {
      "inputs": [
        {
          "internalType": "uint256",
          "name": "amount",
          "type": "uint256"
        }
      ],
      "name": "mint",
      "outputs": [
        {
          "internalType": "bool",
          "name": "",
          "type": "bool"
        }
      ],
      "stateMutability": "nonpayable",
      "type": "function"
    },
    {
      "inputs": [],
      "name": "name",
      "outputs": [
        {
          "internalType": "string",
          "name": "",
          "type": "string"
        }
      ],
      "stateMutability": "view",
      "type": "function"
    },
    {
      "inputs": [],
      "name": "owner",
      "outputs": [
        {
          "internalType": "address",
          "name": "",
          "type": "address"
        }
      ],
      "stateMutability": "view",
      "type": "function"
    },
    {
      "inputs": [],
      "name": "renounceOwnership",
      "outputs": [],
      "stateMutability": "nonpayable",
      "type": "function"
    },
    {
      "inputs": [],
      "name": "symbol",
      "outputs": [
        {
          "internalType": "string",
          "name": "",
          "type": "string"
        }
      ],
      "stateMutability": "view",
      "type": "function"
    },
    {
      "inputs": [],
      "name": "totalSupply",
      "outputs": [
        {
          "internalType": "uint256",
          "name": "",
          "type": "uint256"
        }
      ],
      "stateMutability": "view",
      "type": "function"
    },
    {
      "inputs": [
        {
          "internalType": "address",
          "name": "recipient",
          "type": "address"
        },
        {
          "internalType": "uint256",
          "name": "amount",
          "type": "uint256"
        }
      ],
      "name": "transfer",
      "outputs": [
        {
          "internalType": "bool",
          "name": "",
          "type": "bool"
        }
      ],
      "stateMutability": "nonpayable",
      "type": "function"
    },
    {
      "inputs": [
        {
          "internalType": "address",
          "name": "sender",
          "type": "address"
        },
        {
          "internalType": "address",
          "name": "recipient",
          "type": "address"
        },
        {
          "internalType": "uint256",
          "name": "amount",
          "type": "uint256"
        }
      ],
      "name": "transferFrom",
      "outputs": [
        {
          "internalType": "bool",
          "name": "",
          "type": "bool"
        }
      ],
      "stateMutability": "nonpayable",
      "type": "function"
    },
    {
      "inputs": [
        {
          "internalType": "address",
          "name": "newOwner",
          "type": "address"
        }
      ],
      "name": "transferOwnership",
      "outputs": [],
      "stateMutability": "nonpayable",
      "type": "function"
    }
  ],
  "bytecode": "0x60806040523480156200001157600080fd5b5060405162003b9338038062003b93833981810160405260408110156200003757600080fd5b81019080805160405193929190846401000000008211156200005857600080fd5b838201915060208201858111156200006f57600080fd5b82518660018202830111640100000000821117156200008d57600080fd5b8083526020830192505050908051906020019080838360005b83811015620000c3578082015181840152602081019050620000a6565b50505050905090810190601f168015620000f15780820380516001836020036101000a031916815260200191505b50604052602001805160405193929190846401000000008211156200011557600080fd5b838201915060208201858111156200012c57600080fd5b82518660018202830111640100000000821117156200014a57600080fd5b8083526020830192505050908051906020019080838360005b838110156200018057808201518184015260208101905062000163565b50505050905090810190601f168015620001ae5780820380516001836020036101000a031916815260200191505b50604052505050620001e97f34efb9b81db63c2f3a7891804b7ab1da2ddf6059b9ef3d32c593454b8c1dbd0160001b620005c760201b60201c565b6200021d7fc3d6266e049ff138c529f87e3896fca88d26e582f42936d6465335f9f46ceb1b60001b620005ca60201b60201c565b620002517f6bf076d903d4f036b08e63c2416514b0c5a820ba0d8ec9a9ce80240eecbfe72960001b620005ca60201b60201c565b620002857f8144862220c0700555eecceb0aa09b616facb6c80341e46e5041a7b80c00238460001b620005ca60201b60201c565b600062000297620005cd60201b60201c565b9050620002cd7faab60bd35eb7d48a503e4c3c272e976b52dcf3d7d193f0909f318854c2609ced60001b620005ca60201b60201c565b620003017f92438b6ba8c19f2393cf4ac533c3658fb927819cbb224490fe175aad752aa2cd60001b620005ca60201b60201c565b806000806101000a81548173ffffffffffffffffffffffffffffffffffffffff021916908373ffffffffffffffffffffffffffffffffffffffff160217905550620003757faa36ff1ef13f1232684e3fe16cddd88eb51ade9d3ea6ce6c65ef4965d43186b360001b620005ca60201b60201c565b620003a97f8b781df5595eed1f1d5c17920093aa81641cdeaa11b804350b65f685ea5c41ef60001b620005ca60201b60201c565b8073ffffffffffffffffffffffffffffffffffffffff16600073ffffffffffffffffffffffffffffffffffffffff167f8be0079c531659141344cd1fd0a4f28419497f9722a3daafe3b4186f6b6457e060405160405180910390a350620004397f22a1959be0a07c5292c62583feae569c24e5d6b2c6ea265ee3c13441c010e17060001b6200067160201b60201c565b6200046d7fc58924b1ee7bbf8526e4fca435eb4c3aedd2ece4fe32c148877b27698630be6160001b6200067160201b60201c565b620004a17f4b87471321039a806b9cc47e02df990ddf7b940217b26d3c00dcb6ae9646792c60001b6200067160201b60201c565b8160049080519060200190620004b992919062000674565b50620004ee7fd84379d8a6a09957514e0e2901a9c193226b50058e58c7d5e4f4c555a603023460001b6200067160201b60201c565b620005227f95308922ab7074635bb16afa2b9e1f0b28107e1483ddb0010b6de3f1132f82c260001b6200067160201b60201c565b80600590805190602001906200053a92919062000674565b506200056f7f845dde71097bd20c92c97f2106756d9332afbe8114be4162b70dc3b41aa1bdc260001b6200067160201b60201c565b620005a37f0bddbfca5991d9f09a939db3afda14a7997347619eb5d2b76722638d0b5acacb60001b6200067160201b60201c565b6012600660006101000a81548160ff021916908360ff16021790555050506200071a565b50565b50565b6000620006037f6045cd7ea983586f5137d840e87403db4d6267d388211b6f4726cb51ea25a1e660001b620005c760201b60201c565b620006377f495a2afff0f12e75dec24348fac79868e60e8920e3afe89d5da01000acf1c1cd60001b620005c760201b60201c565b6200066b7fbc5dcc51cbd581b5e4dff7148078bff1fb669514d7f55dd4c735c646a364fb7560001b620005c760201b60201c565b33905090565b50565b828054600181600116156101000203166002900490600052602060002090601f016020900481019282601f10620006b757805160ff1916838001178555620006e8565b82800160010185558215620006e8579182015b82811115620006e7578251825591602001919060010190620006ca565b5b509050620006f79190620006fb565b5090565b5b8082111562000716576000816000905550600101620006fc565b5090565b613469806200072a6000396000f3fe608060405234801561001057600080fd5b50600436106101215760003560e01c8063893d20e8116100ad578063a9059cbb11610071578063a9059cbb14610557578063c43c9ec4146105bb578063dd62ed3e146105e9578063f2fde38b14610661578063fb5f0fe9146106a557610121565b8063893d20e8146103c45780638da5cb5b146103f857806395d89b411461042c578063a0712d68146104af578063a457c2d7146104f357610121565b8063313ce567116100f4578063313ce567146102af57806339509351146102d05780635d5e2d2d1461033457806370a0823114610362578063715018a6146103ba57610121565b806306fdde0314610126578063095ea7b3146101a957806318160ddd1461020d57806323b872dd1461022b575b600080fd5b61012e6106d3565b6040518080602001828103825283818151815260200191508051906020019080838360005b8381101561016e578082015181840152602081019050610153565b50505050905090810190601f16801561019b5780820380516001836020036101000a031916815260200191505b509250505060405180910390f35b6101f5600480360360408110156101bf57600080fd5b81019080803573ffffffffffffffffffffffffffffffffffffffff169060200190929190803590602001909291905050506107f9565b60405180821515815260200191505060405180910390f35b6102156108f3565b6040518082815260200191505060405180910390f35b6102976004803603606081101561024157600080fd5b81019080803573ffffffffffffffffffffffffffffffffffffffff169060200190929190803573ffffffffffffffffffffffffffffffffffffffff16906020019092919080359060200190929190505050610981565b60405180821515815260200191505060405180910390f35b6102b7610b8e565b604051808260ff16815260200191505060405180910390f35b61031c600480360360408110156102e657600080fd5b81019080803573ffffffffffffffffffffffffffffffffffffffff16906020019092919080359060200190929190505050610c29565b60405180821515815260200191505060405180910390f35b6103606004803603602081101561034a57600080fd5b8101908080359060200190929190505050610db8565b005b6103a46004803603602081101561037857600080fd5b81019080803573ffffffffffffffffffffffffffffffffffffffff169060200190929190505050610dbb565b6040518082815260200191505060405180910390f35b6103c2610e88565b005b6103cc6111f2565b604051808273ffffffffffffffffffffffffffffffffffffffff16815260200191505060405180910390f35b610400611285565b604051808273ffffffffffffffffffffffffffffffffffffffff16815260200191505060405180910390f35b610434611331565b6040518080602001828103825283818151815260200191508051906020019080838360005b83811015610474578082015181840152602081019050610459565b50505050905090810190601f1680156104a15780820380516001836020036101000a031916815260200191505b509250505060405180910390f35b6104db600480360360208110156104c557600080fd5b8101908080359060200190929190505050611457565b60405180821515815260200191505060405180910390f35b61053f6004803603604081101561050957600080fd5b81019080803573ffffffffffffffffffffffffffffffffffffffff1690602001909291908035906020019092919050505061171f565b60405180821515815260200191505060405180910390f35b6105a36004803603604081101561056d57600080fd5b81019080803573ffffffffffffffffffffffffffffffffffffffff169060200190929190803590602001909291905050506118c8565b60405180821515815260200191505060405180910390f35b6105e7600480360360208110156105d157600080fd5b81019080803590602001909291905050506119c2565b005b61064b600480360360408110156105ff57600080fd5b81019080803573ffffffffffffffffffffffffffffffffffffffff169060200190929190803573ffffffffffffffffffffffffffffffffffffffff1690602001909291905050506119c5565b6040518082815260200191505060405180910390f35b6106a36004803603602081101561067757600080fd5b81019080803573ffffffffffffffffffffffffffffffffffffffff169060200190929190505050611ad0565b005b6106d1600480360360208110156106bb57600080fd5b8101908080359060200190929190505050611d30565b005b60606107017f06387920cb80fc0a61299ec8bd58a21e6119f591804f74326bceaf652db9bbff60001b610db8565b61072d7fdad82ac33b6a54d6d90635571a26c89ab688b0bcca7041f0bcb0f4d9f114fb5460001b610db8565b6107597fc54fe15ee6632bf8edf3f8e91429c6a63b5742ec9888f36d15de44435ee8b82160001b610db8565b60048054600181600116156101000203166002900480601f0160208091040260200160405190810160405280929190818152602001828054600181600116156101000203166002900480156107ef5780601f106107c4576101008083540402835291602001916107ef565b820191906000526020600020905b8154815290600101906020018083116107d257829003601f168201915b5050505050905090565b60006108277f807e273208bb6f36fa98b0ae64131795e14d5f84f119650cde3ff0e6ccfa6f3960001b610db8565b6108537ff15a8cf874182e328b4812cbf6930a37fbfbd882f2cdaf43b23f657b827374e160001b610db8565b61087f7ffaa969ad94a28e364c04b6cc1f421dadba34c94c69e8301f56a1d0bffa4fd4e160001b610db8565b61089161088a611d33565b8484611dbf565b6108bd7ff1518c88c38390160cab0c653904202b85e454806f26b12005f7c865ba43149c60001b610db8565b6108e97f18ecc5903aa3d5f215a0fe9d2516d49cf38716bb8039d5c02272ab908b06238360001b610db8565b6001905092915050565b60006109217f7d73868e8796eb8f80abdc9b7be435f5aa5c99103331516b77742d81f879dd1560001b610db8565b61094d7f1c13d416602cc0052b66cd45a423e829173bf026e44af2c94a0188da50a4b0c060001b610db8565b6109797fcee803932cda2f6f0bfd7284eae19ecb1bf60ce3ce0096395e8032b925458cde60001b610db8565b600354905090565b60006109af7f17659f4b9ee951821522f203cd19fda28dbf524393d27dbe944c4a6e7db74c7960001b610db8565b6109db7fa0fda8e4e80d66855a5d8b432b05b221700d5d65f678f35230a2382d4a47e2fc60001b610db8565b610a077fac7cad981b627b0472ade1c42918345e5f6e0c26d1885e1755448401cef207c760001b610db8565b610a128484846121f2565b610a3e7ffe0f853bde8fd897a6146a1221c73681193ec28f348096268a783f9dbe5cede560001b610db8565b610a6a7fd2c732744763f65a1cfee0700bba44b014c208fda8db349af1d99ce8ecb6be2360001b610db8565b610b2b84610a76611d33565b610b268560405180606001604052806028815260200161337c60289139600260008b73ffffffffffffffffffffffffffffffffffffffff1673ffffffffffffffffffffffffffffffffffffffff1681526020019081526020016000206000610adc611d33565b73ffffffffffffffffffffffffffffffffffffffff1673ffffffffffffffffffffffffffffffffffffffff168152602001908152602001600020546127a39092919063ffffffff16565b611dbf565b610b577ff95464e73a81909a4a1fee4360737f139885e1a13ebcc875abf473fa4ccd701b60001b610db8565b610b837fcb6c27c4d8adaba4ecca578e159750e284687fa1aaaa3987b889d18343d78ada60001b610db8565b600190509392505050565b6000610bbc7fed6cba0ba30574e49c35e030adb331e269eaf3d6d846f2473a994681c370b38360001b610db8565b610be87fcad8cdc4f94785bf03250a6c38e9c83f555b62bb3ed798e107e22b534c8a069f60001b610db8565b610c147f9e96aa4455cb58992db02b8a938acac5aa827e141efe34e511c09e7a01bc3da660001b610db8565b600660009054906101000a900460ff16905090565b6000610c577f025cc4f1128bb78ba8e61e9656b5d1af70b95faab1b63747c1d9ae096834813160001b610db8565b610c837f9ec42e1de53fd8ca1ba6d3c4fa81f3f514a47574c88c0fcebb548412dc3e9cd260001b610db8565b610caf7fd49a1f0e38d4b80b32d1db1722145a8668df9fbde1ad2c3c58bf41f8ddec1afb60001b610db8565b610d56610cba611d33565b84610d518560026000610ccb611d33565b73ffffffffffffffffffffffffffffffffffffffff1673ffffffffffffffffffffffffffffffffffffffff16815260200190815260200160002060008973ffffffffffffffffffffffffffffffffffffffff1673ffffffffffffffffffffffffffffffffffffffff168152602001908152602001600020546129ef90919063ffffffff16565b611dbf565b610d827ff347e592a4bfaa54d8a5e54b89f330fef7824b73bac1b7f3b06bb911ef7206d460001b610db8565b610dae7fb3830062db72699533c4794a65dbf3c5d58cd9ed692fe703a962e03b64477c3860001b610db8565b6001905092915050565b50565b6000610de97f76eb1c11ced01ab09a1e7967071800f18d7e1067dfd0ea80ab2d4caf4b55a1b760001b610db8565b610e157fc349f8e2be46c47ad28dca06c7b635e9d0aab478ae7e3f4866fb7be6c2d1272e60001b610db8565b610e417f8927a8a5f3416eb5e2ba331adc49f651700131655764c144744e77cca00d4fb860001b610db8565b600160008373ffffffffffffffffffffffffffffffffffffffff1673ffffffffffffffffffffffffffffffffffffffff168152602001908152602001600020549050919050565b610eb47feddf2606382d93077d6159887ad4d6cfa25fcfecdba583442cc2e3c3c9ee1d9560001b6119c2565b610ee07f0d558352dbafa87ee0ca6e6de0f19cfa6fda7877937e8ff827df16099890283a60001b6119c2565b610f0c7f38ddb5a4958b393236ef0efe07e311ad61e7a19ce8064325421ee9aea5811a5b60001b6119c2565b610f387fe07d95490c3cf951101a10d4363da16d6331eb227941141d2cbae724bd00942c60001b6119c2565b610f40611d33565b73ffffffffffffffffffffffffffffffffffffffff1660008054906101000a900473ffffffffffffffffffffffffffffffffffffffff1673ffffffffffffffffffffffffffffffffffffffff1614611000576040517f08c379a00000000000000000000000000000000000000000000000000000000081526004018080602001828103825260208152602001807f4f776e61626c653a2063616c6c6572206973206e6f7420746865206f776e657281525060200191505060405180910390fd5b61102c7f8cf6173dba1a6e1c1ba8e46cb3d0972c0f26738a119caa25c5f1accde0e2c2e560001b6119c2565b6110587fc412a7044895c9acbc6cffe805d7b54f4c7ef1230bef3603b6e828e03c2977d760001b6119c2565b6110847fd604951eb0d6610852550e6a6a2b62dadbc7bada7043025807da091a5d22b1d760001b6119c2565b6110b07f9577426280dffff18c692026a462a51884c8db762643b2453580a67544780d2660001b6119c2565b6110dc7f7ba4f2199a830e3d2ad7c1299c4a09b4e3ab309bc1026003a927815207e5bf1160001b6119c2565b600073ffffffffffffffffffffffffffffffffffffffff1660008054906101000a900473ffffffffffffffffffffffffffffffffffffffff1673ffffffffffffffffffffffffffffffffffffffff167f8be0079c531659141344cd1fd0a4f28419497f9722a3daafe3b4186f6b6457e060405160405180910390a36111837f3adeb3629871e7d8c3e64ba35ac1e34bbc59bebb48dc5e2a6d3612b73c0f3ca160001b6119c2565b6111af7f39d7ee4485a3dc8c3167d6fe0c0af0074ab9d850f9e8db0e6037dfa1d5b4810a60001b6119c2565b60008060006101000a81548173ffffffffffffffffffffffffffffffffffffffff021916908373ffffffffffffffffffffffffffffffffffffffff160217905550565b60006112207f1f64b851b8492187a8825177bc57891eff233634b61fcd2abf7a9367b7dad7cb60001b610db8565b61124c7fef0587b6a07483445091bdc5d75d2214a0ec20a057e6ca7735b056aee44c18f260001b610db8565b6112787fa5ac24aa367744f82c69928561bb97c91429deaa69a0ba7e319a3d4ef967ba9760001b610db8565b611280611285565b905090565b60006112b37f0d63ced0d954a465cada6e9b6baa5ac0c88cf1dc958d6afd1220ca9be5e73e1c60001b6119c2565b6112df7fce463f0c791e8fac651f5717c14079c1eca8ddecfe79bb46dd502978dfbb386f60001b6119c2565b61130b7f4f8ae19f8ff7eb30f65ec74680a95139aa1b76c0ef0d2dc61cd37a35af3fa5ae60001b6119c2565b60008054906101000a900473ffffffffffffffffffffffffffffffffffffffff16905090565b606061135f7f07902bae304002ea37ea1adf506710fe78b0f94e0fa29aa21dfb73364e26c57960001b610db8565b61138b7faabd1463692f0f3ab4558a2971057190f94c005d88667c132c93a961f01303b060001b610db8565b6113b77ffa3b32da27ea0c284b5e2309ecd6603c516feb4c1d5e0a86900f76f3466f8b2760001b610db8565b60058054600181600116156101000203166002900480601f01602080910402602001604051908101604052809291908181526020018280546001816001161561010002031660029004801561144d5780601f106114225761010080835404028352916020019161144d565b820191906000526020600020905b81548152906001019060200180831161143057829003601f168201915b5050505050905090565b60006114857feddf2606382d93077d6159887ad4d6cfa25fcfecdba583442cc2e3c3c9ee1d9560001b6119c2565b6114b17f0d558352dbafa87ee0ca6e6de0f19cfa6fda7877937e8ff827df16099890283a60001b6119c2565b6114dd7f38ddb5a4958b393236ef0efe07e311ad61e7a19ce8064325421ee9aea5811a5b60001b6119c2565b6115097fe07d95490c3cf951101a10d4363da16d6331eb227941141d2cbae724bd00942c60001b6119c2565b611511611d33565b73ffffffffffffffffffffffffffffffffffffffff1660008054906101000a900473ffffffffffffffffffffffffffffffffffffffff1673ffffffffffffffffffffffffffffffffffffffff16146115d1576040517f08c379a00000000000000000000000000000000000000000000000000000000081526004018080602001828103825260208152602001807f4f776e61626c653a2063616c6c6572206973206e6f7420746865206f776e657281525060200191505060405180910390fd5b6115fd7f8cf6173dba1a6e1c1ba8e46cb3d0972c0f26738a119caa25c5f1accde0e2c2e560001b6119c2565b6116297fc412a7044895c9acbc6cffe805d7b54f4c7ef1230bef3603b6e828e03c2977d760001b6119c2565b6116557f68940dcca866d767db89bf2254336f73f02d0b223dd3e54ac60ed1545649a69e60001b610db8565b6116817fac9b4535dd4875b97b3d54d9918b53fc06da771c2bbe4b11628e80f4990580e860001b610db8565b6116ad7ff4685ebfc70497dabdbda3067c14d5f5708bf85af02d820757c788c063164a2760001b610db8565b6116be6116b8611d33565b83612c04565b6116ea7f994e0dfb55c6239984172c505c05ad61ed3993cb44c53efbf60db2769ec5e83f60001b610db8565b6117167f444e75b73cb475df79dfefc06f0d96ff59809423e3493a251024f5e5f5aaabd160001b610db8565b60019050919050565b600061174d7f7aa6caad75b29f208cf325bfcf4dbfabd3956529b7daa379a9a54b3040d34b5b60001b610db8565b6117797f724d00ca0acb820edd5d6f4b2f4d57d87962ef07fec0f653c68e9402a921b68d60001b610db8565b6117a57f5fb09a35edd3934ba0ca0117f4730c359a641deaf11915312e6a294d8437c22560001b610db8565b6118666117b0611d33565b84611861856040518060600160405280602581526020016133ed60259139600260006117da611d33565b73ffffffffffffffffffffffffffffffffffffffff1673ffffffffffffffffffffffffffffffffffffffff16815260200190815260200160002060008a73ffffffffffffffffffffffffffffffffffffffff1673ffffffffffffffffffffffffffffffffffffffff168152602001908152602001600020546127a39092919063ffffffff16565b611dbf565b6118927fecf77b9c762d4c83c05cfaa8bd432e9e1f692665a828f015c9a4fe9fca3c4dea60001b610db8565b6118be7f8a04b134fc2b52fc0cb2dade4f8f24ccab200e5bce6d59a1f231169538e548f660001b610db8565b6001905092915050565b60006118f67ff9dc77b612a4e136e4d426960d8058f0cdd9223026fb1c01e6422b0385f1f85260001b610db8565b6119227f65568bb89189db1ee40cbaed0f401f24f5391ffdb0417b2ea1d95678aab8910360001b610db8565b61194e7f9df7dd2aa8d3b3eca39b9c436e7a3920f6127ea3badc28393511b36e7d812fa360001b610db8565b611960611959611d33565b84846121f2565b61198c7f100d49cad14c72ab0881f172c795cc4aae747cc494c5711e666a98152c5a5fb660001b610db8565b6119b87f8a2cbaf7408d8a8b9531925503b152a4a43004fb5992bf523f216b7fd68e8d6e60001b610db8565b6001905092915050565b50565b60006119f37f1a101d1632b945dfd7fd3d5720b8884371caade76870646620548f16a9c403ae60001b610db8565b611a1f7fe8c860396a12d22a351578248300426cb2db9583640618a9c9cef2bd81ee283760001b610db8565b611a4b7f10aabbd0435d56566b6d8eaad8cb7b2db785d8acc2f5f4770311f6c95846777f60001b610db8565b600260008473ffffffffffffffffffffffffffffffffffffffff1673ffffffffffffffffffffffffffffffffffffffff16815260200190815260200160002060008373ffffffffffffffffffffffffffffffffffffffff1673ffffffffffffffffffffffffffffffffffffffff16815260200190815260200160002054905092915050565b611afc7feddf2606382d93077d6159887ad4d6cfa25fcfecdba583442cc2e3c3c9ee1d9560001b6119c2565b611b287f0d558352dbafa87ee0ca6e6de0f19cfa6fda7877937e8ff827df16099890283a60001b6119c2565b611b547f38ddb5a4958b393236ef0efe07e311ad61e7a19ce8064325421ee9aea5811a5b60001b6119c2565b611b807fe07d95490c3cf951101a10d4363da16d6331eb227941141d2cbae724bd00942c60001b6119c2565b611b88611d33565b73ffffffffffffffffffffffffffffffffffffffff1660008054906101000a900473ffffffffffffffffffffffffffffffffffffffff1673ffffffffffffffffffffffffffffffffffffffff1614611c48576040517f08c379a00000000000000000000000000000000000000000000000000000000081526004018080602001828103825260208152602001807f4f776e61626c653a2063616c6c6572206973206e6f7420746865206f776e657281525060200191505060405180910390fd5b611c747f8cf6173dba1a6e1c1ba8e46cb3d0972c0f26738a119caa25c5f1accde0e2c2e560001b6119c2565b611ca07fc412a7044895c9acbc6cffe805d7b54f4c7ef1230bef3603b6e828e03c2977d760001b6119c2565b611ccc7fe68a7e1e71a8d28eeded0ebbe1f8f15d9862664c580fbbd8e28f693b67cf67d460001b6119c2565b611cf87f742680545800ea60f7fd5947dcf24f6d91a84fa479bfaadebf8030b5e20afd6260001b6119c2565b611d247f594933e0cff05b0428bdc30c05c43c1313314f99e7c735872f907e09acdcc75160001b6119c2565b611d2d81613009565b50565b50565b6000611d617f6045cd7ea983586f5137d840e87403db4d6267d388211b6f4726cb51ea25a1e660001b611d30565b611d8d7f495a2afff0f12e75dec24348fac79868e60e8920e3afe89d5da01000acf1c1cd60001b611d30565b611db97fbc5dcc51cbd581b5e4dff7148078bff1fb669514d7f55dd4c735c646a364fb7560001b611d30565b33905090565b611deb7f1feb849d428f8c402815c93e77d2b4d11b1ba3d0744039e23c3f4719b3dd50f660001b610db8565b611e177fab23d6d750665198a66eecdb2a0ca295aec3add99c5e9e6e6a36652dffcea12c60001b610db8565b611e437fb7e8213fa845f9d6329b253b1b4265834b7ae2d0ff96db9e4961be05ce6e9fe660001b610db8565b611e6f7fd3871201cf2c6cff96b0b91c1e5be9a33b3399282979f290d0b3371f5208e16160001b610db8565b600073ffffffffffffffffffffffffffffffffffffffff168373ffffffffffffffffffffffffffffffffffffffff161415611ef5576040517f08c379a00000000000000000000000000000000000000000000000000000000081526004018080602001828103825260248152602001806133326024913960400191505060405180910390fd5b611f217f746e8d6dbec2eafd1433c0e31b34888151d3d064aefd9c6dfc5a44fa114480bf60001b610db8565b611f4d7f437e8afb05af49f22da273056760b7f19da005a0b6622c2093e0de53b4a0077e60001b610db8565b611f797f82f9cc06dc04ae51d3d6189428945d35d25449a9f431fb2d4820a388ff40d9f660001b610db8565b611fa57f4cd5acc2e4d695b8a5683f50f7d26fa357c7523e8b915251227102b11abfee3060001b610db8565b600073ffffffffffffffffffffffffffffffffffffffff168273ffffffffffffffffffffffffffffffffffffffff16141561202b576040517f08c379a00000000000000000000000000000000000000000000000000000000081526004018080602001828103825260228152602001806134126022913960400191505060405180910390fd5b6120577feedbd92dc27a1b589b5268dc1d17d6177a16ca9ef2848394bacb14715deeb05460001b610db8565b6120837f8a1703433a15ba004d62de124443dc829057c8b5702030ffbe9e7292cf5738de60001b610db8565b6120af7f78d519c8b42f4a47c16b6a743f8664fbf8c8d187aa4f5dd9d5d3353bc36526c360001b610db8565b80600260008573ffffffffffffffffffffffffffffffffffffffff1673ffffffffffffffffffffffffffffffffffffffff16815260200190815260200160002060008473ffffffffffffffffffffffffffffffffffffffff1673ffffffffffffffffffffffffffffffffffffffff1681526020019081526020016000208190555061215c7fa46f197cd5111f2df39c38e3e277c7acdcd104572580293d994447c1d4568c0060001b610db8565b6121887f6937426807a4e763f99adb446bc8eb409fab6ed98eb6ca8938a1e33f71cc2c7f60001b610db8565b8173ffffffffffffffffffffffffffffffffffffffff168373ffffffffffffffffffffffffffffffffffffffff167f8c5be1e5ebec7d5bd14f71427d1e84f3dd0314c0f7b2291e5b200ac8c7c3b925836040518082815260200191505060405180910390a3505050565b61221e7f71ef56994269e306ce4e5a1d6dab78d723411943615ebcebd4c013dcfcf10dc660001b610db8565b61224a7f1acc4458e78df404b3478d30ad915c4ecf3a70ca239e3ccb609b6c6dcd2e5f7660001b610db8565b6122767fa3e8d44143e7b94babb024eca14afe4dcaa39bf7ff20a3bd32fedad2c30c4b4f60001b610db8565b6122a27f93e83e3fbfa6db49c0d8451973eac9e9b5f8e838fbab1fb85650c6de8686423260001b610db8565b600073ffffffffffffffffffffffffffffffffffffffff168373ffffffffffffffffffffffffffffffffffffffff161415612328576040517f08c379a000000000000000000000000000000000000000000000000000000000815260040180806020018281038252602581526020018061330d6025913960400191505060405180910390fd5b6123547f1b8c3ac547e594318a66875ea7f136f125ed285a3bb1d8f4a3ca760cc9551f9360001b610db8565b6123807f70f6b833e29c5faaa18ea8eb392b11eda61ce0c3da498384bf6c5763b41e326660001b610db8565b6123ac7fa922f0a8bfc35f38307e02962fe516f32e8e526045770dca77a1f69debd5531160001b610db8565b6123d87fe8492faa50e0d01e170e23b6f615fe74105cea59a8a850651b2da08caff1768f60001b610db8565b600073ffffffffffffffffffffffffffffffffffffffff168273ffffffffffffffffffffffffffffffffffffffff16141561245e576040517f08c379a00000000000000000000000000000000000000000000000000000000081526004018080602001828103825260238152602001806133ca6023913960400191505060405180910390fd5b61248a7f13c81f31bad03a12fad15abf50e7ec95ac36188dad8e5dccc98b22c3607625c460001b610db8565b6124b67f2f77ab156b319874b33d69f67bf61ee621f8a241b66591640a7a6ed38f77642560001b610db8565b6124e27f3149c46fcc230f60ee3a701abe5d19a924719c4eb079ad4d7d904ba13535141760001b610db8565b6124ed8383836132d8565b6125197f3853c3f08f93ff15fc0b028aa8e31ff8a9074b7f05d2bdfd08b6be174fa33dbf60001b610db8565b6125457f3e26ca2334081bf6413a28bdf01fbd52b69bec718ef3dc3f59b5f7610b73d62f60001b610db8565b6125b1816040518060600160405280602681526020016133a460269139600160008773ffffffffffffffffffffffffffffffffffffffff1673ffffffffffffffffffffffffffffffffffffffff168152602001908152602001600020546127a39092919063ffffffff16565b600160008573ffffffffffffffffffffffffffffffffffffffff1673ffffffffffffffffffffffffffffffffffffffff168152602001908152602001600020819055506126207f7db2fcc946d50d5e50ead2c24485a1dbeee45974806b7f658c2d5ec722749ca360001b610db8565b61264c7f7bfe5e52f29ea0c3134f7554541dbb930edcc9b2c6c4391210658555a2908eb760001b610db8565b61269e81600160008573ffffffffffffffffffffffffffffffffffffffff1673ffffffffffffffffffffffffffffffffffffffff168152602001908152602001600020546129ef90919063ffffffff16565b600160008473ffffffffffffffffffffffffffffffffffffffff1673ffffffffffffffffffffffffffffffffffffffff1681526020019081526020016000208190555061270d7f7c008f8ee54cf5785eba14746436e388fe1ae450000aab9d2b467adc306ac9f260001b610db8565b6127397fe0be4763c7fb1fc1f5a1eda3aa417094daf1293108494f4b787caf1b67e96add60001b610db8565b8173ffffffffffffffffffffffffffffffffffffffff168373ffffffffffffffffffffffffffffffffffffffff167fddf252ad1be2c89b69c2b068fc378daa952ba7f163c4a11628f55a4df523b3ef836040518082815260200191505060405180910390a3505050565b60006127d17fd76d48bb51a8094e2ed409628ee527f9e8664699332108f480db443ea873db8060001b613309565b6127fd7f3f84e2b2ef2fac84d7225877a02357a1fa0bfe24be49268cda893bf8a913635460001b613309565b6128297f2520b22253df5a3ab775b09fa4eee7e0e70d5010fb584d5b0484eaee85ba7bd560001b613309565b6128557fb7c6b4dfc7e5e685755cd53a82937133df4490f8ab2ba428a62bdb532e98d0bd60001b613309565b838311158290612900576040517f08c379a00000000000000000000000000000000000000000000000000000000081526004018080602001828103825283818151815260200191508051906020019080838360005b838110156128c55780820151818401526020810190506128aa565b50505050905090810190601f1680156128f25780820380516001836020036101000a031916815260200191505b509250505060405180910390fd5b5061292d7f155196359ac280c06149afd8ff2b2be0d97f7083b61d6625d1896dcfa225bce960001b613309565b6129597f185615744741c9dcd1f0919c76933799038a00d93ba8a1004aa9d1e9c1e5904560001b613309565b6129857fa04de4c1bf3224dcc09dc74492e7a5b52be6b61abdec79b3ef1b42855c40a2e060001b613309565b600083850390506129b87fd675a28c39907d652d1c498b82c7e65a405df667781941d0988c9ce6df1b4fba60001b613309565b6129e47f797e9b7dfd3dcea2343cd7e4f6d1038a052ab59c7674ae24f341dfc0b3a9048660001b613309565b809150509392505050565b6000612a1d7f3d9194ece62f3bc89db7dc073b32c519b30c3dc5d26beb13ac3d00deeac49d6860001b613309565b612a497ff6c377068e7f607d7629b11a7202b353c4dcec429c593282301b475300ce852d60001b613309565b612a757f9035ad1b5bf540c0c96bfb068dfbe9e5911004ce3a7f1498a3838d0ac1b181df60001b613309565b60008284019050612aa87fc0189baebbe42f6d37f0d21d2773701a3f3900867b325ed074130cf18e6fe16060001b613309565b612ad47f6f937221491488b4e96f4de4d1dd4f8b3ccfbf3f9c70e81f29d534e0bd1ea0d860001b613309565b612b007f747079fe4bac41af245b35e1f51b0b6e0b1dfa8e73d725a9947799b213d6c32f60001b613309565b83811015612b76576040517f08c379a000000000000000000000000000000000000000000000000000000000815260040180806020018281038252601b8152602001807f536166654d6174683a206164646974696f6e206f766572666c6f77000000000081525060200191505060405180910390fd5b612ba27fea41b53febb791a4fee32e133f4d96eee5ca1a87803c4a48e6fc966eda4c1eea60001b613309565b612bce7f820e65ac2aa60a6067216ac2211bdb422aad8512f2c9ac668a4a3d353367a31560001b613309565b612bfa7f4165e46d7098da93c93b297eb1b18dcd5c8002aa143efc88a4cbf0acc827647760001b613309565b8091505092915050565b612c307fa97a6e70e1f0289a4777ddd32c66e5ba86eaaf18381be1573468ad5e70fddad760001b610db8565b612c5c7f46d1cf011c37963a88d0cb14bfd2ec85ecd05d5f47ca33eba3d5a2c2db97d2ec60001b610db8565b612c887f4d213825d343f86a03d06dd0083c37acf7c13a10a39210d0cae7af3e82e2205f60001b610db8565b612cb47fb753c69e9f34d5a125acdd1ae9098e1115acee23882665895e5c3ed9319c652060001b610db8565b600073ffffffffffffffffffffffffffffffffffffffff168273ffffffffffffffffffffffffffffffffffffffff161415612d57576040517f08c379a000000000000000000000000000000000000000000000000000000000815260040180806020018281038252601f8152602001807f42455032303a206d696e7420746f20746865207a65726f20616464726573730081525060200191505060405180910390fd5b612d837feb8889074e4a8a7a4e3cae2de0a12e56ed65a7baabea440301f2117404e8300c60001b610db8565b612daf7f8c3a30f8a4f9ef2269c1df6b3291d5924daf708497766c591b5a8e556bdb086360001b610db8565b612ddb7fce71668fbf2181c434c66eb1f6202b374aff4c7cf69065cb23b2a1cc0495fba960001b610db8565b612de7600083836132d8565b612e137fbc535ee3eb530c0078c1c808fc8d8dc3d2d495cd0b025a1cbd12cbda3143ff0460001b610db8565b612e3f7f73faaf33b6d93ce97dbd5acd41e8987a4ab5698811b9de952d34e180f7a0bf6060001b610db8565b612e54816003546129ef90919063ffffffff16565b600381905550612e867f94981beed87657a97cf2d074ee0c7b56bfeece45c54c2f8c1ed1316cd23e4bd860001b610db8565b612eb27f9ab79ac8bfd90e8e12d47545197a3034e36a24a4f61cdbf433d9269cfa766dd860001b610db8565b612f0481600160008573ffffffffffffffffffffffffffffffffffffffff1673ffffffffffffffffffffffffffffffffffffffff168152602001908152602001600020546129ef90919063ffffffff16565b600160008473ffffffffffffffffffffffffffffffffffffffff1673ffffffffffffffffffffffffffffffffffffffff16815260200190815260200160002081905550612f737f254ec884c60f6569fa9f92d2ccb2fcf1757dabfcaa7e78787a2d627ca9c51cc060001b610db8565b612f9f7f2d09369511de6190b91091bc86106b798497ffa3d06466480bafb5dbb5cf18ba60001b610db8565b8173ffffffffffffffffffffffffffffffffffffffff16600073ffffffffffffffffffffffffffffffffffffffff167fddf252ad1be2c89b69c2b068fc378daa952ba7f163c4a11628f55a4df523b3ef836040518082815260200191505060405180910390a35050565b6130357f45915def5e7f84beaec79bce884442ca990d9dc5de426bee45a2b5079a85d1dc60001b6119c2565b6130617fb07f929f32176bc302ea684d542c49a029dcd4cb065ffab142538071fea8ff6260001b6119c2565b61308d7f18fad4648b6a8af4fe81c1feee5978f75b05d30737d0572016181774fec0040960001b6119c2565b6130b97fb61a565406207fe22408659d183cc335c1f2938568d3523c0a0fd06045744bc960001b6119c2565b600073ffffffffffffffffffffffffffffffffffffffff168173ffffffffffffffffffffffffffffffffffffffff16141561313f576040517f08c379a00000000000000000000000000000000000000000000000000000000081526004018080602001828103825260268152602001806133566026913960400191505060405180910390fd5b61316b7f9900dfdd4221ec6de30218831892d152e7e0c35f22f8d9aef6c99e32418f002060001b6119c2565b6131977fbbda78fd51e6f1574e920c69c4cd895537886b0451472cef82261e2a0409bf1060001b6119c2565b6131c37fd2adf5c8af89130550d092866ece6f38028fe6971b4f0f9badbf72778db4016c60001b6119c2565b8073ffffffffffffffffffffffffffffffffffffffff1660008054906101000a900473ffffffffffffffffffffffffffffffffffffffff1673ffffffffffffffffffffffffffffffffffffffff167f8be0079c531659141344cd1fd0a4f28419497f9722a3daafe3b4186f6b6457e060405160405180910390a36132697ff0fdc43bc7883e7967f965ce8757e0bfbdec3d06357bc4f7df6dcab1b6f1eed660001b6119c2565b6132957f5113697f2b41302b416c774fe0529614b9f23cc36e30c58893a146767a02b2bd60001b6119c2565b806000806101000a81548173ffffffffffffffffffffffffffffffffffffffff021916908373ffffffffffffffffffffffffffffffffffffffff16021790555050565b6133047fd7eeb83dd7b0ea4401df8c2ff27b1b42aebadbfafb7594ef9c5215ed0795ea0760001b610db8565b505050565b5056fe42455032303a207472616e736665722066726f6d20746865207a65726f206164647265737342455032303a20617070726f76652066726f6d20746865207a65726f20616464726573734f776e61626c653a206e6577206f776e657220697320746865207a65726f206164647265737342455032303a207472616e7366657220616d6f756e74206578636565647320616c6c6f77616e636542455032303a207472616e7366657220616d6f756e7420657863656564732062616c616e636542455032303a207472616e7366657220746f20746865207a65726f206164647265737342455032303a2064656372656173656420616c6c6f77616e63652062656c6f77207a65726f42455032303a20617070726f766520746f20746865207a65726f2061646472657373a2646970667358221220f172de8b1beda24e5e322026a9498efee04ff8714d00e9a2aa7f80231b051aa264736f6c634300060c0033",
  "linkReferences": {},
  "deployedLinkReferences": {}
}