{
  "_format": "hh-sol-artifact-1",
  "contractName": "SWAPZ",
  "sourceName": "contracts/SWAPZ.sol",
  "abi": [
    {
      "anonymous": false,
      "inputs": [
        {
          "indexed": true,
          "internalType": "address",
          "name": "owner",
          "type": "address"
        },
        {
          "indexed": true,
          "internalType": "address",
          "name": "spender",
          "type": "address"
        },
        {
          "indexed": false,
          "internalType": "uint256",
          "name": "value",
          "type": "uint256"
        }
      ],
      "name": "Approval",
      "type": "event"
    },
    {
      "anonymous": false,
      "inputs": [
        {
          "indexed": true,
          "internalType": "address",
          "name": "previousOwner",
          "type": "address"
        },
        {
          "indexed": true,
          "internalType": "address",
          "name": "newOwner",
          "type": "address"
        }
      ],
      "name": "OwnershipTransferred",
      "type": "event"
    },
    {
      "anonymous": false,
      "inputs": [
        {
          "indexed": true,
          "internalType": "address",
          "name": "from",
          "type": "address"
        },
        {
          "indexed": true,
          "internalType": "address",
          "name": "to",
          "type": "address"
        },
        {
          "indexed": false,
          "internalType": "uint256",
          "name": "value",
          "type": "uint256"
        }
      ],
      "name": "Transfer",
      "type": "event"
    },
    {
      "anonymous": false,
      "inputs": [
        {
          "indexed": true,
          "internalType": "address",
          "name": "previousWhitelister",
          "type": "address"
        },
        {
          "indexed": true,
          "internalType": "address",
          "name": "newWhitelister",
          "type": "address"
        }
      ],
      "name": "WhitelisterTransferred",
      "type": "event"
    },
    {
      "inputs": [],
      "name": "_lgePairAddress",
      "outputs": [
        {
          "internalType": "address",
          "name": "",
          "type": "address"
        }
      ],
      "stateMutability": "view",
      "type": "function"
    },
    {
      "inputs": [],
      "name": "_lgeTimestamp",
      "outputs": [
        {
          "internalType": "uint256",
          "name": "",
          "type": "uint256"
        }
      ],
      "stateMutability": "view",
      "type": "function"
    },
    {
      "inputs": [
        {
          "internalType": "uint256",
          "name": "",
          "type": "uint256"
        }
      ],
      "name": "_lgeWhitelistRounds",
      "outputs": [
        {
          "internalType": "uint256",
          "name": "duration",
          "type": "uint256"
        },
        {
          "internalType": "uint256",
          "name": "amountMax",
          "type": "uint256"
        }
      ],
      "stateMutability": "view",
      "type": "function"
    },
    {
      "inputs": [],
      "name": "_whitelister",
      "outputs": [
        {
          "internalType": "address",
          "name": "",
          "type": "address"
        }
      ],
      "stateMutability": "view",
      "type": "function"
    },
    {
      "inputs": [
        {
          "internalType": "address",
          "name": "owner",
          "type": "address"
        },
        {
          "internalType": "address",
          "name": "spender",
          "type": "address"
        }
      ],
      "name": "allowance",
      "outputs": [
        {
          "internalType": "uint256",
          "name": "",
          "type": "uint256"
        }
      ],
      "stateMutability": "view",
      "type": "function"
    },
    {
      "inputs": [
        {
          "internalType": "address",
          "name": "spender",
          "type": "address"
        },
        {
          "internalType": "uint256",
          "name": "amount",
          "type": "uint256"
        }
      ],
      "name": "approve",
      "outputs": [
        {
          "internalType": "bool",
          "name": "",
          "type": "bool"
        }
      ],
      "stateMutability": "nonpayable",
      "type": "function"
    },
    {
      "inputs": [
        {
          "internalType": "address",
          "name": "account",
          "type": "address"
        }
      ],
      "name": "balanceOf",
      "outputs": [
        {
          "internalType": "uint256",
          "name": "",
          "type": "uint256"
        }
      ],
      "stateMutability": "view",
      "type": "function"
    },
    {
      "inputs": [
        {
          "internalType": "bytes32",
          "name": "c__0x09cb6bf4",
          "type": "bytes32"
        }
      ],
      "name": "c_0x09cb6bf4",
      "outputs": [],
      "stateMutability": "pure",
      "type": "function"
    },
    {
      "inputs": [
        {
          "internalType": "bytes32",
          "name": "c__0x3be1494f",
          "type": "bytes32"
        }
      ],
      "name": "c_0x3be1494f",
      "outputs": [],
      "stateMutability": "pure",
      "type": "function"
    },
    {
      "inputs": [
        {
          "internalType": "bytes32",
          "name": "c__0x603bd7e0",
          "type": "bytes32"
        }
      ],
      "name": "c_0x603bd7e0",
      "outputs": [],
      "stateMutability": "pure",
      "type": "function"
    },
    {
      "inputs": [
        {
          "internalType": "bytes32",
          "name": "c__0x8cd32bbd",
          "type": "bytes32"
        }
      ],
      "name": "c_0x8cd32bbd",
      "outputs": [],
      "stateMutability": "pure",
      "type": "function"
    },
    {
      "inputs": [
        {
          "internalType": "bytes32",
          "name": "c__0xb29e4f8f",
          "type": "bytes32"
        }
      ],
      "name": "c_0xb29e4f8f",
      "outputs": [],
      "stateMutability": "pure",
      "type": "function"
    },
    {
      "inputs": [],
      "name": "cap",
      "outputs": [
        {
          "internalType": "uint256",
          "name": "",
          "type": "uint256"
        }
      ],
      "stateMutability": "view",
      "type": "function"
    },
    {
      "inputs": [
        {
          "internalType": "address",
          "name": "pairAddress",
          "type": "address"
        },
        {
          "internalType": "uint256[]",
          "name": "durations",
          "type": "uint256[]"
        },
        {
          "internalType": "uint256[]",
          "name": "amountsMax",
          "type": "uint256[]"
        }
      ],
      "name": "createLGEWhitelist",
      "outputs": [],
      "stateMutability": "nonpayable",
      "type": "function"
    },
    {
      "inputs": [],
      "name": "decimals",
      "outputs": [
        {
          "internalType": "uint8",
          "name": "",
          "type": "uint8"
        }
      ],
      "stateMutability": "view",
      "type": "function"
    },
    {
      "inputs": [
        {
          "internalType": "address",
          "name": "spender",
          "type": "address"
        },
        {
          "internalType": "uint256",
          "name": "subtractedValue",
          "type": "uint256"
        }
      ],
      "name": "decreaseAllowance",
      "outputs": [
        {
          "internalType": "bool",
          "name": "",
          "type": "bool"
        }
      ],
      "stateMutability": "nonpayable",
      "type": "function"
    },
    {
      "inputs": [],
      "name": "getLGEWhitelistRound",
      "outputs": [
        {
          "internalType": "uint256",
          "name": "",
          "type": "uint256"
        },
        {
          "internalType": "uint256",
          "name": "",
          "type": "uint256"
        },
        {
          "internalType": "uint256",
          "name": "",
          "type": "uint256"
        },
        {
          "internalType": "uint256",
          "name": "",
          "type": "uint256"
        },
        {
          "internalType": "bool",
          "name": "",
          "type": "bool"
        },
        {
          "internalType": "uint256",
          "name": "",
          "type": "uint256"
        }
      ],
      "stateMutability": "view",
      "type": "function"
    },
    {
      "inputs": [],
      "name": "getOwner",
      "outputs": [
        {
          "internalType": "address",
          "name": "",
          "type": "address"
        }
      ],
      "stateMutability": "view",
      "type": "function"
    },
    {
      "inputs": [
        {
          "internalType": "address",
          "name": "spender",
          "type": "address"
        },
        {
          "internalType": "uint256",
          "name": "addedValue",
          "type": "uint256"
        }
      ],
      "name": "increaseAllowance",
      "outputs": [
        {
          "internalType": "bool",
          "name": "",
          "type": "bool"
        }
      ],
      "stateMutability": "nonpayable",
      "type": "function"
    },
    {
      "inputs": [
        {
          "internalType": "address",
          "name": "_to",
          "type": "address"
        },
        {
          "internalType": "uint256",
          "name": "_amount",
          "type": "uint256"
        }
      ],
      "name": "mint",
      "outputs": [],
      "stateMutability": "nonpayable",
      "type": "function"
    },
    {
      "inputs": [
        {
          "internalType": "uint256",
          "name": "amount",
          "type": "uint256"
        }
      ],
      "name": "mint",
      "outputs": [
        {
          "internalType": "bool",
          "name": "",
          "type": "bool"
        }
      ],
      "stateMutability": "nonpayable",
      "type": "function"
    },
    {
      "inputs": [
        {
          "internalType": "uint256",
          "name": "index",
          "type": "uint256"
        },
        {
          "internalType": "uint256",
          "name": "duration",
          "type": "uint256"
        },
        {
          "internalType": "uint256",
          "name": "amountMax",
          "type": "uint256"
        },
        {
          "internalType": "address[]",
          "name": "addresses",
          "type": "address[]"
        },
        {
          "internalType": "bool",
          "name": "enabled",
          "type": "bool"
        }
      ],
      "name": "modifyLGEWhitelist",
      "outputs": [],
      "stateMutability": "nonpayable",
      "type": "function"
    },
    {
      "inputs": [],
      "name": "name",
      "outputs": [
        {
          "internalType": "string",
          "name": "",
          "type": "string"
        }
      ],
      "stateMutability": "view",
      "type": "function"
    },
    {
      "inputs": [],
      "name": "owner",
      "outputs": [
        {
          "internalType": "address",
          "name": "",
          "type": "address"
        }
      ],
      "stateMutability": "view",
      "type": "function"
    },
    {
      "inputs": [],
      "name": "renounceOwnership",
      "outputs": [],
      "stateMutability": "nonpayable",
      "type": "function"
    },
    {
      "inputs": [],
      "name": "renounceWhitelister",
      "outputs": [],
      "stateMutability": "nonpayable",
      "type": "function"
    },
    {
      "inputs": [],
      "name": "symbol",
      "outputs": [
        {
          "internalType": "string",
          "name": "",
          "type": "string"
        }
      ],
      "stateMutability": "view",
      "type": "function"
    },
    {
      "inputs": [],
      "name": "totalSupply",
      "outputs": [
        {
          "internalType": "uint256",
          "name": "",
          "type": "uint256"
        }
      ],
      "stateMutability": "view",
      "type": "function"
    },
    {
      "inputs": [
        {
          "internalType": "address",
          "name": "recipient",
          "type": "address"
        },
        {
          "internalType": "uint256",
          "name": "amount",
          "type": "uint256"
        }
      ],
      "name": "transfer",
      "outputs": [
        {
          "internalType": "bool",
          "name": "",
          "type": "bool"
        }
      ],
      "stateMutability": "nonpayable",
      "type": "function"
    },
    {
      "inputs": [
        {
          "internalType": "address",
          "name": "sender",
          "type": "address"
        },
        {
          "internalType": "address",
          "name": "recipient",
          "type": "address"
        },
        {
          "internalType": "uint256",
          "name": "amount",
          "type": "uint256"
        }
      ],
      "name": "transferFrom",
      "outputs": [
        {
          "internalType": "bool",
          "name": "",
          "type": "bool"
        }
      ],
      "stateMutability": "nonpayable",
      "type": "function"
    },
    {
      "inputs": [
        {
          "internalType": "address",
          "name": "newOwner",
          "type": "address"
        }
      ],
      "name": "transferOwnership",
      "outputs": [],
      "stateMutability": "nonpayable",
      "type": "function"
    },
    {
      "inputs": [
        {
          "internalType": "address",
          "name": "newWhitelister",
          "type": "address"
        }
      ],
      "name": "transferWhitelister",
      "outputs": [],
      "stateMutability": "nonpayable",
      "type": "function"
    }
  ],
  "bytecode": "0x60806040526b033b2e3c9fd0803ce8000000600b553480156200002157600080fd5b506040518060400160405280600981526020017f535741505a2e61707000000000000000000000000000000000000000000000008152506040518060400160405280600581526020017f535741505a000000000000000000000000000000000000000000000000000000815250620000c27f34efb9b81db63c2f3a7891804b7ab1da2ddf6059b9ef3d32c593454b8c1dbd0160001b6200058c60201b60201c565b620000f67f92438b6ba8c19f2393cf4ac533c3658fb927819cbb224490fe175aad752aa2cd60001b6200058f60201b60201c565b6200012a7faa36ff1ef13f1232684e3fe16cddd88eb51ade9d3ea6ce6c65ef4965d43186b360001b6200058f60201b60201c565b6200015e7f8b781df5595eed1f1d5c17920093aa81641cdeaa11b804350b65f685ea5c41ef60001b6200058f60201b60201c565b6000620001706200059260201b60201c565b9050620001a67f0d63ced0d954a465cada6e9b6baa5ac0c88cf1dc958d6afd1220ca9be5e73e1c60001b6200058f60201b60201c565b620001da7fce463f0c791e8fac651f5717c14079c1eca8ddecfe79bb46dd502978dfbb386f60001b6200058f60201b60201c565b806000806101000a81548173ffffffffffffffffffffffffffffffffffffffff021916908373ffffffffffffffffffffffffffffffffffffffff1602179055506200024e7f4f8ae19f8ff7eb30f65ec74680a95139aa1b76c0ef0d2dc61cd37a35af3fa5ae60001b6200058f60201b60201c565b620002827feddf2606382d93077d6159887ad4d6cfa25fcfecdba583442cc2e3c3c9ee1d9560001b6200058f60201b60201c565b8073ffffffffffffffffffffffffffffffffffffffff16600073ffffffffffffffffffffffffffffffffffffffff167f8be0079c531659141344cd1fd0a4f28419497f9722a3daafe3b4186f6b6457e060405160405180910390a350620003127f22a1959be0a07c5292c62583feae569c24e5d6b2c6ea265ee3c13441c010e17060001b6200063660201b60201c565b620003467fc58924b1ee7bbf8526e4fca435eb4c3aedd2ece4fe32c148877b27698630be6160001b6200063660201b60201c565b6200037a7f4b87471321039a806b9cc47e02df990ddf7b940217b26d3c00dcb6ae9646792c60001b6200063660201b60201c565b8160049080519060200190620003929291906200063c565b50620003c77fd84379d8a6a09957514e0e2901a9c193226b50058e58c7d5e4f4c555a603023460001b6200063660201b60201c565b620003fb7f95308922ab7074635bb16afa2b9e1f0b28107e1483ddb0010b6de3f1132f82c260001b6200063660201b60201c565b8060059080519060200190620004139291906200063c565b50620004487f845dde71097bd20c92c97f2106756d9332afbe8114be4162b70dc3b41aa1bdc260001b6200063660201b60201c565b6200047c7f0bddbfca5991d9f09a939db3afda14a7997347619eb5d2b76722638d0b5acacb60001b6200063660201b60201c565b6012600660006101000a81548160ff021916908360ff1602179055505050620004ce7fdf19d0c3bdd6c7bde1406f0dc5deddd716f9d03987e66e4ae18939ce347d7b9660001b6200063960201b60201c565b620005027f3198da6806f7bf45e4b90a4ca0c18c760f88e12dba7c07e43e1fc63daedbef6460001b6200063960201b60201c565b620005367f4debb74044edebf643a3ba54d4a3abb9b19a291b9da51e7a718835189c3d104260001b6200063960201b60201c565b620005466200059260201b60201c565b600a60006101000a81548173ffffffffffffffffffffffffffffffffffffffff021916908373ffffffffffffffffffffffffffffffffffffffff160217905550620006e2565b50565b50565b6000620005c87f6045cd7ea983586f5137d840e87403db4d6267d388211b6f4726cb51ea25a1e660001b6200058c60201b60201c565b620005fc7f495a2afff0f12e75dec24348fac79868e60e8920e3afe89d5da01000acf1c1cd60001b6200058c60201b60201c565b620006307fbc5dcc51cbd581b5e4dff7148078bff1fb669514d7f55dd4c735c646a364fb7560001b6200058c60201b60201c565b33905090565b50565b50565b828054600181600116156101000203166002900490600052602060002090601f016020900481019282601f106200067f57805160ff1916838001178555620006b0565b82800160010185558215620006b0579182015b82811115620006af57825182559160200191906001019062000692565b5b509050620006bf9190620006c3565b5090565b5b80821115620006de576000816000905550600101620006c4565b5090565b61691b80620006f26000396000f3fe608060405234801561001057600080fd5b50600436106101f05760003560e01c8063715018a61161010f578063a9059cbb116100a2578063dd62ed3e11610071578063dd62ed3e14610a43578063e199e5ab14610abb578063f2fde38b14610ae9578063fb5f0fe914610b2d576101f0565b8063a9059cbb1461095f578063c43c9ec4146109c3578063d5215d11146109f1578063da91b76e14610a25576101f0565b80639ad3a7ba116100de5780639ad3a7ba14610864578063a0712d681461086e578063a457c2d7146108b2578063a77cac7a14610916576101f0565b8063715018a61461076f578063893d20e8146107795780638da5cb5b146107ad57806395d89b41146107e1576101f0565b80633950935111610187578063532f1fed11610156578063532f1fed146105cd5780635d5e2d2d146106bb5780636fe0e329146106e957806370a0823114610717576101f0565b8063395093511461044457806340c10f19146104a857806344ade3c5146104f65780634944889814610599576101f0565b806323b872dd116101c357806323b872dd1461033d5780632e15e5c7146103c1578063313ce56714610405578063355274ea14610426576101f0565b806306fdde03146101f5578063095ea7b31461027857806318160ddd146102dc5780631b29b0cd146102fa575b600080fd5b6101fd610b5b565b6040518080602001828103825283818151815260200191508051906020019080838360005b8381101561023d578082015181840152602081019050610222565b50505050905090810190601f16801561026a5780820380516001836020036101000a031916815260200191505b509250505060405180910390f35b6102c46004803603604081101561028e57600080fd5b81019080803573ffffffffffffffffffffffffffffffffffffffff16906020019092919080359060200190929190505050610c81565b60405180821515815260200191505060405180910390f35b6102e4610d7b565b6040518082815260200191505060405180910390f35b610302610e09565b604051808781526020018681526020018581526020018481526020018315158152602001828152602001965050505050505060405180910390f35b6103a96004803603606081101561035357600080fd5b81019080803573ffffffffffffffffffffffffffffffffffffffff169060200190929190803573ffffffffffffffffffffffffffffffffffffffff16906020019092919080359060200190929190505050611315565b60405180821515815260200191505060405180910390f35b610403600480360360208110156103d757600080fd5b81019080803573ffffffffffffffffffffffffffffffffffffffff169060200190929190505050611522565b005b61040d611784565b604051808260ff16815260200191505060405180910390f35b61042e61181f565b6040518082815260200191505060405180910390f35b6104906004803603604081101561045a57600080fd5b81019080803573ffffffffffffffffffffffffffffffffffffffff169060200190929190803590602001909291905050506118ad565b60405180821515815260200191505060405180910390f35b6104f4600480360360408110156104be57600080fd5b81019080803573ffffffffffffffffffffffffffffffffffffffff16906020019092919080359060200190929190505050611a3c565b005b610597600480360360a081101561050c57600080fd5b810190808035906020019092919080359060200190929190803590602001909291908035906020019064010000000081111561054757600080fd5b82018360208201111561055957600080fd5b8035906020019184602083028401116401000000008311171561057b57600080fd5b9091929391929390803515159060200190929190505050611c9e565b005b6105a1612507565b604051808273ffffffffffffffffffffffffffffffffffffffff16815260200191505060405180910390f35b6106b9600480360360608110156105e357600080fd5b81019080803573ffffffffffffffffffffffffffffffffffffffff1690602001909291908035906020019064010000000081111561062057600080fd5b82018360208201111561063257600080fd5b8035906020019184602083028401116401000000008311171561065457600080fd5b90919293919293908035906020019064010000000081111561067557600080fd5b82018360208201111561068757600080fd5b803590602001918460208302840111640100000000831117156106a957600080fd5b909192939192939050505061252d565b005b6106e7600480360360208110156106d157600080fd5b8101908080359060200190929190505050612b38565b005b610715600480360360208110156106ff57600080fd5b8101908080359060200190929190505050612b3b565b005b6107596004803603602081101561072d57600080fd5b81019080803573ffffffffffffffffffffffffffffffffffffffff169060200190929190505050612b3e565b6040518082815260200191505060405180910390f35b610777612c0b565b005b610781612f75565b604051808273ffffffffffffffffffffffffffffffffffffffff16815260200191505060405180910390f35b6107b5613008565b604051808273ffffffffffffffffffffffffffffffffffffffff16815260200191505060405180910390f35b6107e96130b4565b6040518080602001828103825283818151815260200191508051906020019080838360005b8381101561082957808201518184015260208101905061080e565b50505050905090810190601f1680156108565780820380516001836020036101000a031916815260200191505b509250505060405180910390f35b61086c6131da565b005b61089a6004803603602081101561088457600080fd5b8101908080359060200190929190505050613549565b60405180821515815260200191505060405180910390f35b6108fe600480360360408110156108c857600080fd5b81019080803573ffffffffffffffffffffffffffffffffffffffff16906020019092919080359060200190929190505050613811565b60405180821515815260200191505060405180910390f35b6109426004803603602081101561092c57600080fd5b81019080803590602001909291905050506139ba565b604051808381526020018281526020019250505060405180910390f35b6109ab6004803603604081101561097557600080fd5b81019080803573ffffffffffffffffffffffffffffffffffffffff169060200190929190803590602001909291905050506139eb565b60405180821515815260200191505060405180910390f35b6109ef600480360360208110156109d957600080fd5b8101908080359060200190929190505050613ae5565b005b6109f9613ae8565b604051808273ffffffffffffffffffffffffffffffffffffffff16815260200191505060405180910390f35b610a2d613b0e565b6040518082815260200191505060405180910390f35b610aa560048036036040811015610a5957600080fd5b81019080803573ffffffffffffffffffffffffffffffffffffffff169060200190929190803573ffffffffffffffffffffffffffffffffffffffff169060200190929190505050613b14565b6040518082815260200191505060405180910390f35b610ae760048036036020811015610ad157600080fd5b8101908080359060200190929190505050613c1f565b005b610b2b60048036036020811015610aff57600080fd5b81019080803573ffffffffffffffffffffffffffffffffffffffff169060200190929190505050613c22565b005b610b5960048036036020811015610b4357600080fd5b8101908080359060200190929190505050613e82565b005b6060610b897f06387920cb80fc0a61299ec8bd58a21e6119f591804f74326bceaf652db9bbff60001b612b38565b610bb57fdad82ac33b6a54d6d90635571a26c89ab688b0bcca7041f0bcb0f4d9f114fb5460001b612b38565b610be17fc54fe15ee6632bf8edf3f8e91429c6a63b5742ec9888f36d15de44435ee8b82160001b612b38565b60048054600181600116156101000203166002900480601f016020809104026020016040519081016040528092919081815260200182805460018160011615610100020316600290048015610c775780601f10610c4c57610100808354040283529160200191610c77565b820191906000526020600020905b815481529060010190602001808311610c5a57829003601f168201915b5050505050905090565b6000610caf7f807e273208bb6f36fa98b0ae64131795e14d5f84f119650cde3ff0e6ccfa6f3960001b612b38565b610cdb7ff15a8cf874182e328b4812cbf6930a37fbfbd882f2cdaf43b23f657b827374e160001b612b38565b610d077ffaa969ad94a28e364c04b6cc1f421dadba34c94c69e8301f56a1d0bffa4fd4e160001b612b38565b610d19610d12613e85565b8484613f11565b610d457ff1518c88c38390160cab0c653904202b85e454806f26b12005f7c865ba43149c60001b612b38565b610d717f18ecc5903aa3d5f215a0fe9d2516d49cf38716bb8039d5c02272ab908b06238360001b612b38565b6001905092915050565b6000610da97f7d73868e8796eb8f80abdc9b7be435f5aa5c99103331516b77742d81f879dd1560001b612b38565b610dd57f1c13d416602cc0052b66cd45a423e829173bf026e44af2c94a0188da50a4b0c060001b612b38565b610e017fcee803932cda2f6f0bfd7284eae19ecb1bf60ce3ce0096395e8032b925458cde60001b612b38565b600354905090565b600080600080600080610e3e7f255c037458fdc34e6a002804b957903459771f705f21940dd51b8937a5d3842060001b613c1f565b610e6a7fdc4639fdd9f273b6ddff62d78b23d96f1697469fda9acf3324bd059e06d8013460001b613c1f565b610e967f3795dce14f0a3f0adbec9a452396b3030db42e6d4092c9074dd6c9e09299f99860001b613c1f565b6000600854111561127257610ecd7f19e8a6451bc8ba1f225f668dd5e9128001ee3ea7a1cf5c18eff6df2cbeaca50b60001b613c1f565b610ef97f5c758c4d6b6d56c3033a86c59a60c33a17c7d7ae9eb9319778cdf41a653930ab60001b613c1f565b610f257f36a1c8f5217cdc92fbe34d73737d8a9abb08c0db31621ba94729ec66429ed68d60001b613c1f565b60006008549050610f587f7766abaad0bd143b4e79bd087c51541b027a04295ac4f2f9732b022461200c4d60001b613c1f565b610f847f698fee284674c381f99a326628fa07399a91ba2601193231fd7e2172b489efa260001b613c1f565b60005b60078054905081101561126b57610fc07fb1e3696b5deca8bcf8c73140e50b517224607d9c980f782d96cb3f8b2718d82860001b613c1f565b610fec7fc65e89d67f8f736f1c49dbd9a5f1934b0619eeb262de7442a4f59071da8eed2560001b613c1f565b600060078281548110610ffb57fe5b906000526020600020906004020190506110377f6b5194d86090a818c1e0002c604abf12b89eefb450697a703cfa173ad0ce39c360001b613c1f565b6110637f2c6e85b7bf527909c181a512d46978a42395a2a8f1109b5aff3954ffc8d9279960001b613c1f565b61107a81600001548461434490919063ffffffff16565b92506110a87f26fc8c80cfd78d725129e9d93395865bbc615d690251997fe47e40519e36117e60001b613c1f565b6110d47f4cac73060db872d788adbc504fc1b10f27f8d286debf5d692e05a7c4906a8ef560001b613c1f565b824211611231576111077f1174f852014bbe3a42e8f9e82fd03a798a8052c064bfecc44002f5f2bee9fe1160001b613c1f565b6111337fc579aef3cb932896c334567fa75f1a933b8b6b53c31aa3d14551e4c07e72839a60001b613c1f565b61115f7f621b424365cfec0ef6604714f729117d85f320087d447dce8d70483dfcfd57eb60001b613c1f565b61117360018361434490919063ffffffff16565b816000015484836001015484600201600061118c613e85565b73ffffffffffffffffffffffffffffffffffffffff1673ffffffffffffffffffffffffffffffffffffffff16815260200190815260200160002060009054906101000a900460ff168560030160006111e2613e85565b73ffffffffffffffffffffffffffffffffffffffff1673ffffffffffffffffffffffffffffffffffffffff1681526020019081526020016000205498509850985098509850985050505061130d565b61125d7f56c26aba996a311be6fc54a51818045d11b61aff8fb3e49a88feaf6f969349d960001b613c1f565b508080600101915050610f87565b505061129f565b61129e7f5d27e81b0c51253d59e15d45c2f832e9b17c947a49a08425a890107e5f8f7f6460001b613c1f565b5b6112cb7f7f96c4413b8bc9cfacee3ccc2364c02c04efcd806c93db32b37bd016bfb0590160001b613c1f565b6112f77fe9b87d8568ee8a37f779b91c01fe39b6f2a020f2568fee9728079881ac6e2f6560001b613c1f565b6000806000806000809550955095509550955095505b909192939495565b60006113437f17659f4b9ee951821522f203cd19fda28dbf524393d27dbe944c4a6e7db74c7960001b612b38565b61136f7fa0fda8e4e80d66855a5d8b432b05b221700d5d65f678f35230a2382d4a47e2fc60001b612b38565b61139b7fac7cad981b627b0472ade1c42918345e5f6e0c26d1885e1755448401cef207c760001b612b38565b6113a6848484614559565b6113d27ffe0f853bde8fd897a6146a1221c73681193ec28f348096268a783f9dbe5cede560001b612b38565b6113fe7fd2c732744763f65a1cfee0700bba44b014c208fda8db349af1d99ce8ecb6be2360001b612b38565b6114bf8461140a613e85565b6114ba856040518060600160405280602881526020016167e560289139600260008b73ffffffffffffffffffffffffffffffffffffffff1673ffffffffffffffffffffffffffffffffffffffff1681526020019081526020016000206000611470613e85565b73ffffffffffffffffffffffffffffffffffffffff1673ffffffffffffffffffffffffffffffffffffffff16815260200190815260200160002054614b0a9092919063ffffffff16565b613f11565b6114eb7ff95464e73a81909a4a1fee4360737f139885e1a13ebcc875abf473fa4ccd701b60001b612b38565b6115177fcb6c27c4d8adaba4ecca578e159750e284687fa1aaaa3987b889d18343d78ada60001b612b38565b600190509392505050565b61154e7f0ae59129a09ada83d41435cec50d2fba862259f80a7cd9d25801f59a3eb07b7460001b613c1f565b61157a7f63fb010f80c9e1d3ad36b83d015582a2d31dd2d3e4fe7635c293739c463643bb60001b613c1f565b6115a67f2bfe306db3632fc513af5550f39144ec885ead08251793f50cbf4a1c91735a1a60001b613c1f565b6115d27f820cf83f1a9339d9595868f8de06a77b631312807bec2e2f78fdd3856569331360001b613c1f565b6115da613e85565b73ffffffffffffffffffffffffffffffffffffffff16600a60009054906101000a900473ffffffffffffffffffffffffffffffffffffffff1673ffffffffffffffffffffffffffffffffffffffff161461169c576040517f08c379a000000000000000000000000000000000000000000000000000000000815260040180806020018281038252601d8152602001807f43616c6c6572206973206e6f74207468652077686974656c697374657200000081525060200191505060405180910390fd5b6116c87f2ac7ddef714f4a0721f7f0b0fa8db4a189323c48d0e54a39fd4c1d381381fb5060001b613c1f565b6116f47fd0308d8630b6248e8a45722b59af040c6d3d3c68578a11042761bfbb9e03cf9560001b613c1f565b6117207f5aad5873ac299cc95ae603fbc01bc4f6b2da9769f8d154937468245676a61aae60001b613c1f565b61174c7f2c2cf3bc8d981420b2208c99de87f912a81685821159947d118620749445c70a60001b613c1f565b6117787fa100b84c28f58966869e47c53681af3f907f73a5d33c2cfd493019d9b623be3a60001b613c1f565b61178181614d56565b50565b60006117b27fed6cba0ba30574e49c35e030adb331e269eaf3d6d846f2473a994681c370b38360001b612b38565b6117de7fcad8cdc4f94785bf03250a6c38e9c83f555b62bb3ed798e107e22b534c8a069f60001b612b38565b61180a7f9e96aa4455cb58992db02b8a938acac5aa827e141efe34e511c09e7a01bc3da660001b612b38565b600660009054906101000a900460ff16905090565b600061184d7f5356c79be219bb0149c61bd806d71e626aa1f8599b5edc9b0a0c628488e31d1560001b612b3b565b6118797f49faf150a66992eea47140761f0604fa1003baa278629a3904fc7e687c1a63cb60001b612b3b565b6118a57f4db221c82480acbfe927e21e54322af8253a3691f1652656da18c0641458e93060001b612b3b565b600b54905090565b60006118db7f025cc4f1128bb78ba8e61e9656b5d1af70b95faab1b63747c1d9ae096834813160001b612b38565b6119077f9ec42e1de53fd8ca1ba6d3c4fa81f3f514a47574c88c0fcebb548412dc3e9cd260001b612b38565b6119337fd49a1f0e38d4b80b32d1db1722145a8668df9fbde1ad2c3c58bf41f8ddec1afb60001b612b38565b6119da61193e613e85565b846119d5856002600061194f613e85565b73ffffffffffffffffffffffffffffffffffffffff1673ffffffffffffffffffffffffffffffffffffffff16815260200190815260200160002060008973ffffffffffffffffffffffffffffffffffffffff1673ffffffffffffffffffffffffffffffffffffffff1681526020019081526020016000205461434490919063ffffffff16565b613f11565b611a067ff347e592a4bfaa54d8a5e54b89f330fef7824b73bac1b7f3b06bb911ef7206d460001b612b38565b611a327fb3830062db72699533c4794a65dbf3c5d58cd9ed692fe703a962e03b64477c3860001b612b38565b6001905092915050565b611a687f8cf6173dba1a6e1c1ba8e46cb3d0972c0f26738a119caa25c5f1accde0e2c2e560001b613ae5565b611a947fc412a7044895c9acbc6cffe805d7b54f4c7ef1230bef3603b6e828e03c2977d760001b613ae5565b611ac07fd604951eb0d6610852550e6a6a2b62dadbc7bada7043025807da091a5d22b1d760001b613ae5565b611aec7f9577426280dffff18c692026a462a51884c8db762643b2453580a67544780d2660001b613ae5565b611af4613e85565b73ffffffffffffffffffffffffffffffffffffffff1660008054906101000a900473ffffffffffffffffffffffffffffffffffffffff1673ffffffffffffffffffffffffffffffffffffffff1614611bb4576040517f08c379a00000000000000000000000000000000000000000000000000000000081526004018080602001828103825260208152602001807f4f776e61626c653a2063616c6c6572206973206e6f7420746865206f776e657281525060200191505060405180910390fd5b611be07f7ba4f2199a830e3d2ad7c1299c4a09b4e3ab309bc1026003a927815207e5bf1160001b613ae5565b611c0c7f3adeb3629871e7d8c3e64ba35ac1e34bbc59bebb48dc5e2a6d3612b73c0f3ca160001b613ae5565b611c387fd88900affd8b3e9481333eeb0c31d76066ff8d71b18c1115b56d2c2e634c42bc60001b612b3b565b611c647f1eb3022fb72a523213c99b0779d559b8117250ebb92430f9b85f76fb21fff62e60001b612b3b565b611c907f7e364bf721b6d1c0c8fde6e7ee055ea95744f5fa83a2f6b2296ff0e949d17f2860001b612b3b565b611c9a8282615027565b5050565b611cca7f0ae59129a09ada83d41435cec50d2fba862259f80a7cd9d25801f59a3eb07b7460001b613c1f565b611cf67f63fb010f80c9e1d3ad36b83d015582a2d31dd2d3e4fe7635c293739c463643bb60001b613c1f565b611d227f2bfe306db3632fc513af5550f39144ec885ead08251793f50cbf4a1c91735a1a60001b613c1f565b611d4e7f820cf83f1a9339d9595868f8de06a77b631312807bec2e2f78fdd3856569331360001b613c1f565b611d56613e85565b73ffffffffffffffffffffffffffffffffffffffff16600a60009054906101000a900473ffffffffffffffffffffffffffffffffffffffff1673ffffffffffffffffffffffffffffffffffffffff1614611e18576040517f08c379a000000000000000000000000000000000000000000000000000000000815260040180806020018281038252601d8152602001807f43616c6c6572206973206e6f74207468652077686974656c697374657200000081525060200191505060405180910390fd5b611e447f2ac7ddef714f4a0721f7f0b0fa8db4a189323c48d0e54a39fd4c1d381381fb5060001b613c1f565b611e707fd0308d8630b6248e8a45722b59af040c6d3d3c68578a11042761bfbb9e03cf9560001b613c1f565b611e9c7f7f129564b1e5e4874551b2658e870678c999a524c28be5e3b6a8b5476164320660001b613c1f565b611ec87fb41def06e0b675349e4e8c8c9f6c59bf72f2d6aa157e28af13d4f4089e34cf6a60001b613c1f565b611ef47f2c736ce4597a2fea3dcaae1a329529fdd285e8087c5d87a633c6287da5d6f50960001b613c1f565b611f207f0edfdeb0ea0409c40849d809761b067f18c6b0d3ab984af207374358f89523e560001b613c1f565b6007805490508610611f9a576040517f08c379a000000000000000000000000000000000000000000000000000000000815260040180806020018281038252600d8152602001807f496e76616c696420696e6465780000000000000000000000000000000000000081525060200191505060405180910390fd5b611fc67f1540e932960bf06894899ee0dfe6645419692382c28d097b8a6465b67905d79060001b613c1f565b611ff27f3503778588c3994eb9cb48ba5f3f1a7669807f7ca321526f7de10f3a98afaa2f60001b613c1f565b61201e7fa4cb195a355c07b4e2ef55becd23d748c73ff4632e258a54c0b381b379ebba2960001b613c1f565b61204a7f975442f4c15ab40d33ecacb4b05ae0ede5531cd36b9ab5f1439bac08626adacb60001b613c1f565b600084116120c0576040517f08c379a00000000000000000000000000000000000000000000000000000000081526004018080602001828103825260118152602001807f496e76616c696420616d6f756e744d617800000000000000000000000000000081525060200191505060405180910390fd5b6120ec7fb4265294adae99e0225473bee9c09d3006fa05787751141f27792898a375c88860001b613c1f565b6121187f5404d9383868d4e7275011c27bcb66e43e971f2666b50f10189bb516c8d9820660001b613c1f565b6121447f6b2482f6316ff848f0021a852cd518a45c292497f068b700516e1cb469612c1d60001b613c1f565b6007868154811061215157fe5b9060005260206000209060040201600001548514612215576121957fc34ae8ad53b1599a6a4fe5a381d5f2d1a8b184b015dba5ff3c5e72d9fbb4cfcc60001b613c1f565b6121c17f7cdf5f0399fc7a268e0355760c9022610665eb7193cff6b1678ec1475615ee8660001b613c1f565b6121ed7fc0559d5e3e3a1db3d5f21ae37c690aff8ade2f017b43a9b39adf5f0c9ab78a8560001b613c1f565b84600787815481106121fb57fe5b906000526020600020906004020160000181905550612242565b6122417f5b33575335a95132608a57c150681a96b9acd89b2f1c8ce018a77b049d6c285f60001b613c1f565b5b61226e7fc0582542ea2990d9f9bcc37a000f8fe445868e3fc959837f0988c80c0846e17560001b613c1f565b61229a7f4294596856f225586abc0ef30c903435c6c2e608035c84eb3f56e6c2bb2df30f60001b613c1f565b600786815481106122a757fe5b906000526020600020906004020160010154841461236b576122eb7f496fad8dfaa78fc0d84d194a09baa178f941f6b76987788d55111b3f786a33ce60001b613c1f565b6123177ff8e0238f39ea4092411f91627cdb1ea30183771ad3219ff9e3e6b081ab929fe460001b613c1f565b6123437ff039d59689a448964eabbcb79ce204582599dfb95fa8fb2e81a30e083264186060001b613c1f565b836007878154811061235157fe5b906000526020600020906004020160010181905550612398565b6123977f16de1fc0543d5284ff8833ca296b2741c337b55292045d9c6f5cd79f0ed7b0db60001b613c1f565b5b6123c47ffde69ddbc2a7b7d1144fd1fa5251c88054038b65e550ed4fd4a75f943aa986b260001b613c1f565b6123f07f7e7f685707fce69c5ad2fc660c11a531b09dce3bc263af7c85c67226a239271f60001b613c1f565b60005b838390508110156124fe5761242a7f5e59c3986c4098a19b2be980abbedf97c2d32ff2092e299d030b93288783cb0260001b613c1f565b6124567f574adab81f3a852f7d52094ddd40ea3917739dc2fdeb4e3ad0d5cfc16eb262fa60001b613c1f565b816007888154811061246457fe5b9060005260206000209060040201600201600086868581811061248357fe5b9050602002013573ffffffffffffffffffffffffffffffffffffffff1673ffffffffffffffffffffffffffffffffffffffff1673ffffffffffffffffffffffffffffffffffffffff16815260200190815260200160002060006101000a81548160ff02191690831515021790555080806001019150506123f3565b50505050505050565b600960009054906101000a900473ffffffffffffffffffffffffffffffffffffffff1681565b6125597f0ae59129a09ada83d41435cec50d2fba862259f80a7cd9d25801f59a3eb07b7460001b613c1f565b6125857f63fb010f80c9e1d3ad36b83d015582a2d31dd2d3e4fe7635c293739c463643bb60001b613c1f565b6125b17f2bfe306db3632fc513af5550f39144ec885ead08251793f50cbf4a1c91735a1a60001b613c1f565b6125dd7f820cf83f1a9339d9595868f8de06a77b631312807bec2e2f78fdd3856569331360001b613c1f565b6125e5613e85565b73ffffffffffffffffffffffffffffffffffffffff16600a60009054906101000a900473ffffffffffffffffffffffffffffffffffffffff1673ffffffffffffffffffffffffffffffffffffffff16146126a7576040517f08c379a000000000000000000000000000000000000000000000000000000000815260040180806020018281038252601d8152602001807f43616c6c6572206973206e6f74207468652077686974656c697374657200000081525060200191505060405180910390fd5b6126d37f2ac7ddef714f4a0721f7f0b0fa8db4a189323c48d0e54a39fd4c1d381381fb5060001b613c1f565b6126ff7fd0308d8630b6248e8a45722b59af040c6d3d3c68578a11042761bfbb9e03cf9560001b613c1f565b61272b7f2fa11992196045fcd7759e272e2bff945e086ad8663b0a1ac69610bcaa64bafd60001b613c1f565b6127577f18266c8598788093679196d3215df08e53362d973ca63c2c627825dd6dd7b15460001b613c1f565b6127837f20ecdb046d71279ca152375064467454d533be668c590449ac45d1d625ce05a260001b613c1f565b6127af7fe1c8f2c95c8e1e9a46a9ca4cc5d1f5a60f5b446835601687f7e1849edd927c0b60001b613c1f565b81819050848490501461282a576040517f08c379a00000000000000000000000000000000000000000000000000000000081526004018080602001828103825260148152602001807f496e76616c69642077686974656c69737428732900000000000000000000000081525060200191505060405180910390fd5b6128567fc3cc3a436628d017d761d33eea8e317fe2d026cf345ccabd7538a25b968a455260001b613c1f565b6128827f293f6611d6b498d24ab9feaaa2acf72799e9879d762e8f377664d43b77b9993e60001b613c1f565b6128ae7f8ae95c4ff80a7bfa8bf21f9ff7dd31a3f99fd74107165064584038accaf5458160001b613c1f565b84600960006101000a81548173ffffffffffffffffffffffffffffffffffffffff021916908373ffffffffffffffffffffffffffffffffffffffff16021790555061291b7fc6cba34f34c339eef986e4b2d5cc311e15bf0c74f5bc11e775c17ba75462b9f560001b613c1f565b6129477fff264043ff471c5e561148d2fbc6ed08219f56b4dd76662d05817f9ab91c88ba60001b613c1f565b6000848490501115612b045761297f7f22875d7ec21350131f719ef04026f3df6f998bf40ac325c7038bf79dbc97243a60001b613c1f565b6129ab7fed10473a407de21ed23263b6ccc8a2d5977cff515766848d4528c66401cd2aef60001b613c1f565b600760006129b9919061672a565b6129e57f35ace642529a77192251f9de0cb19b16e626dcf358140bae9b3f52c9089f6f8260001b613c1f565b612a117fd79c3eebba91e08e02016da0c6bcf24c4a30b326f7618f3fd9ee57cfec62a29e60001b613c1f565b60005b84849050811015612afe57612a4b7fb16e036ed5c7293ee81c93c4db9dbbd17cf3dc2d552b3def975805c9ff9a0a8660001b613c1f565b612a777fd4c75bb73064fb9eedac98e508515c4f2befec034560ecf97ba72051cf67ed0e60001b613c1f565b60076040518060400160405280878785818110612a9057fe5b905060200201358152602001858585818110612aa857fe5b905060200201358152509080600181540180825580915050600190039060005260206000209060040201600090919091909150600082015181600001556020820151816001015550508080600101915050612a14565b50612b31565b612b307f3215dbfab502b15aa25516cdaf80b5b716a5f49f261ca440147912c8832dbf8360001b613c1f565b5b5050505050565b50565b50565b6000612b6c7f76eb1c11ced01ab09a1e7967071800f18d7e1067dfd0ea80ab2d4caf4b55a1b760001b612b38565b612b987fc349f8e2be46c47ad28dca06c7b635e9d0aab478ae7e3f4866fb7be6c2d1272e60001b612b38565b612bc47f8927a8a5f3416eb5e2ba331adc49f651700131655764c144744e77cca00d4fb860001b612b38565b600160008373ffffffffffffffffffffffffffffffffffffffff1673ffffffffffffffffffffffffffffffffffffffff168152602001908152602001600020549050919050565b612c377f8cf6173dba1a6e1c1ba8e46cb3d0972c0f26738a119caa25c5f1accde0e2c2e560001b613ae5565b612c637fc412a7044895c9acbc6cffe805d7b54f4c7ef1230bef3603b6e828e03c2977d760001b613ae5565b612c8f7fd604951eb0d6610852550e6a6a2b62dadbc7bada7043025807da091a5d22b1d760001b613ae5565b612cbb7f9577426280dffff18c692026a462a51884c8db762643b2453580a67544780d2660001b613ae5565b612cc3613e85565b73ffffffffffffffffffffffffffffffffffffffff1660008054906101000a900473ffffffffffffffffffffffffffffffffffffffff1673ffffffffffffffffffffffffffffffffffffffff1614612d83576040517f08c379a00000000000000000000000000000000000000000000000000000000081526004018080602001828103825260208152602001807f4f776e61626c653a2063616c6c6572206973206e6f7420746865206f776e657281525060200191505060405180910390fd5b612daf7f7ba4f2199a830e3d2ad7c1299c4a09b4e3ab309bc1026003a927815207e5bf1160001b613ae5565b612ddb7f3adeb3629871e7d8c3e64ba35ac1e34bbc59bebb48dc5e2a6d3612b73c0f3ca160001b613ae5565b612e077f39d7ee4485a3dc8c3167d6fe0c0af0074ab9d850f9e8db0e6037dfa1d5b4810a60001b613ae5565b612e337fe68a7e1e71a8d28eeded0ebbe1f8f15d9862664c580fbbd8e28f693b67cf67d460001b613ae5565b612e5f7f742680545800ea60f7fd5947dcf24f6d91a84fa479bfaadebf8030b5e20afd6260001b613ae5565b600073ffffffffffffffffffffffffffffffffffffffff1660008054906101000a900473ffffffffffffffffffffffffffffffffffffffff1673ffffffffffffffffffffffffffffffffffffffff167f8be0079c531659141344cd1fd0a4f28419497f9722a3daafe3b4186f6b6457e060405160405180910390a3612f067f594933e0cff05b0428bdc30c05c43c1313314f99e7c735872f907e09acdcc75160001b613ae5565b612f327f45915def5e7f84beaec79bce884442ca990d9dc5de426bee45a2b5079a85d1dc60001b613ae5565b60008060006101000a81548173ffffffffffffffffffffffffffffffffffffffff021916908373ffffffffffffffffffffffffffffffffffffffff160217905550565b6000612fa37f1f64b851b8492187a8825177bc57891eff233634b61fcd2abf7a9367b7dad7cb60001b612b38565b612fcf7fef0587b6a07483445091bdc5d75d2214a0ec20a057e6ca7735b056aee44c18f260001b612b38565b612ffb7fa5ac24aa367744f82c69928561bb97c91429deaa69a0ba7e319a3d4ef967ba9760001b612b38565b613003613008565b905090565b60006130367f0d558352dbafa87ee0ca6e6de0f19cfa6fda7877937e8ff827df16099890283a60001b613ae5565b6130627f38ddb5a4958b393236ef0efe07e311ad61e7a19ce8064325421ee9aea5811a5b60001b613ae5565b61308e7fe07d95490c3cf951101a10d4363da16d6331eb227941141d2cbae724bd00942c60001b613ae5565b60008054906101000a900473ffffffffffffffffffffffffffffffffffffffff16905090565b60606130e27f07902bae304002ea37ea1adf506710fe78b0f94e0fa29aa21dfb73364e26c57960001b612b38565b61310e7faabd1463692f0f3ab4558a2971057190f94c005d88667c132c93a961f01303b060001b612b38565b61313a7ffa3b32da27ea0c284b5e2309ecd6603c516feb4c1d5e0a86900f76f3466f8b2760001b612b38565b60058054600181600116156101000203166002900480601f0160208091040260200160405190810160405280929190818152602001828054600181600116156101000203166002900480156131d05780601f106131a5576101008083540402835291602001916131d0565b820191906000526020600020905b8154815290600101906020018083116131b357829003601f168201915b5050505050905090565b6132067f0ae59129a09ada83d41435cec50d2fba862259f80a7cd9d25801f59a3eb07b7460001b613c1f565b6132327f63fb010f80c9e1d3ad36b83d015582a2d31dd2d3e4fe7635c293739c463643bb60001b613c1f565b61325e7f2bfe306db3632fc513af5550f39144ec885ead08251793f50cbf4a1c91735a1a60001b613c1f565b61328a7f820cf83f1a9339d9595868f8de06a77b631312807bec2e2f78fdd3856569331360001b613c1f565b613292613e85565b73ffffffffffffffffffffffffffffffffffffffff16600a60009054906101000a900473ffffffffffffffffffffffffffffffffffffffff1673ffffffffffffffffffffffffffffffffffffffff1614613354576040517f08c379a000000000000000000000000000000000000000000000000000000000815260040180806020018281038252601d8152602001807f43616c6c6572206973206e6f74207468652077686974656c697374657200000081525060200191505060405180910390fd5b6133807f2ac7ddef714f4a0721f7f0b0fa8db4a189323c48d0e54a39fd4c1d381381fb5060001b613c1f565b6133ac7fd0308d8630b6248e8a45722b59af040c6d3d3c68578a11042761bfbb9e03cf9560001b613c1f565b6133d87fb5e262efe6c3be867574af55f0b530098ae5ddb6a6317d0af6b9498f53316dcc60001b613c1f565b6134047f31aff925c72697260bc45da4de43f98b4c90ed3e1bfd83d32694ddea67e91fc660001b613c1f565b6134307fc3dbad24ae1c8482ef03eeb1918bdf6f2098ff7cf4294c950a1c8d584820e41f60001b613c1f565b600073ffffffffffffffffffffffffffffffffffffffff16600a60009054906101000a900473ffffffffffffffffffffffffffffffffffffffff1673ffffffffffffffffffffffffffffffffffffffff167f4e78506f3260e366dc9440ee0b4eca2d03aa91536b7605deb90e873d3fc4e5b460405160405180910390a36134d97f35ef95b23a8279a13acf514b59aaae633c91b1e970b1bcd887fde4ec9dfbd3ac60001b613c1f565b6135057f911fe8fca92193a980bd03048f4de0f7ab884e162995893f9e5c09f302da71eb60001b613c1f565b6000600a60006101000a81548173ffffffffffffffffffffffffffffffffffffffff021916908373ffffffffffffffffffffffffffffffffffffffff160217905550565b60006135777f8cf6173dba1a6e1c1ba8e46cb3d0972c0f26738a119caa25c5f1accde0e2c2e560001b613ae5565b6135a37fc412a7044895c9acbc6cffe805d7b54f4c7ef1230bef3603b6e828e03c2977d760001b613ae5565b6135cf7fd604951eb0d6610852550e6a6a2b62dadbc7bada7043025807da091a5d22b1d760001b613ae5565b6135fb7f9577426280dffff18c692026a462a51884c8db762643b2453580a67544780d2660001b613ae5565b613603613e85565b73ffffffffffffffffffffffffffffffffffffffff1660008054906101000a900473ffffffffffffffffffffffffffffffffffffffff1673ffffffffffffffffffffffffffffffffffffffff16146136c3576040517f08c379a00000000000000000000000000000000000000000000000000000000081526004018080602001828103825260208152602001807f4f776e61626c653a2063616c6c6572206973206e6f7420746865206f776e657281525060200191505060405180910390fd5b6136ef7f7ba4f2199a830e3d2ad7c1299c4a09b4e3ab309bc1026003a927815207e5bf1160001b613ae5565b61371b7f3adeb3629871e7d8c3e64ba35ac1e34bbc59bebb48dc5e2a6d3612b73c0f3ca160001b613ae5565b6137477f68940dcca866d767db89bf2254336f73f02d0b223dd3e54ac60ed1545649a69e60001b612b38565b6137737fac9b4535dd4875b97b3d54d9918b53fc06da771c2bbe4b11628e80f4990580e860001b612b38565b61379f7ff4685ebfc70497dabdbda3067c14d5f5708bf85af02d820757c788c063164a2760001b612b38565b6137b06137aa613e85565b83615027565b6137dc7f994e0dfb55c6239984172c505c05ad61ed3993cb44c53efbf60db2769ec5e83f60001b612b38565b6138087f444e75b73cb475df79dfefc06f0d96ff59809423e3493a251024f5e5f5aaabd160001b612b38565b60019050919050565b600061383f7f7aa6caad75b29f208cf325bfcf4dbfabd3956529b7daa379a9a54b3040d34b5b60001b612b38565b61386b7f724d00ca0acb820edd5d6f4b2f4d57d87962ef07fec0f653c68e9402a921b68d60001b612b38565b6138977f5fb09a35edd3934ba0ca0117f4730c359a641deaf11915312e6a294d8437c22560001b612b38565b6139586138a2613e85565b846139538560405180606001604052806025815260200161687c60259139600260006138cc613e85565b73ffffffffffffffffffffffffffffffffffffffff1673ffffffffffffffffffffffffffffffffffffffff16815260200190815260200160002060008a73ffffffffffffffffffffffffffffffffffffffff1673ffffffffffffffffffffffffffffffffffffffff16815260200190815260200160002054614b0a9092919063ffffffff16565b613f11565b6139847fecf77b9c762d4c83c05cfaa8bd432e9e1f692665a828f015c9a4fe9fca3c4dea60001b612b38565b6139b07f8a04b134fc2b52fc0cb2dade4f8f24ccab200e5bce6d59a1f231169538e548f660001b612b38565b6001905092915050565b600781815481106139c757fe5b90600052602060002090600402016000915090508060000154908060010154905082565b6000613a197ff9dc77b612a4e136e4d426960d8058f0cdd9223026fb1c01e6422b0385f1f85260001b612b38565b613a457f65568bb89189db1ee40cbaed0f401f24f5391ffdb0417b2ea1d95678aab8910360001b612b38565b613a717f9df7dd2aa8d3b3eca39b9c436e7a3920f6127ea3badc28393511b36e7d812fa360001b612b38565b613a83613a7c613e85565b8484614559565b613aaf7f100d49cad14c72ab0881f172c795cc4aae747cc494c5711e666a98152c5a5fb660001b612b38565b613adb7f8a2cbaf7408d8a8b9531925503b152a4a43004fb5992bf523f216b7fd68e8d6e60001b612b38565b6001905092915050565b50565b600a60009054906101000a900473ffffffffffffffffffffffffffffffffffffffff1681565b60085481565b6000613b427f1a101d1632b945dfd7fd3d5720b8884371caade76870646620548f16a9c403ae60001b612b38565b613b6e7fe8c860396a12d22a351578248300426cb2db9583640618a9c9cef2bd81ee283760001b612b38565b613b9a7f10aabbd0435d56566b6d8eaad8cb7b2db785d8acc2f5f4770311f6c95846777f60001b612b38565b600260008473ffffffffffffffffffffffffffffffffffffffff1673ffffffffffffffffffffffffffffffffffffffff16815260200190815260200160002060008373ffffffffffffffffffffffffffffffffffffffff1673ffffffffffffffffffffffffffffffffffffffff16815260200190815260200160002054905092915050565b50565b613c4e7f8cf6173dba1a6e1c1ba8e46cb3d0972c0f26738a119caa25c5f1accde0e2c2e560001b613ae5565b613c7a7fc412a7044895c9acbc6cffe805d7b54f4c7ef1230bef3603b6e828e03c2977d760001b613ae5565b613ca67fd604951eb0d6610852550e6a6a2b62dadbc7bada7043025807da091a5d22b1d760001b613ae5565b613cd27f9577426280dffff18c692026a462a51884c8db762643b2453580a67544780d2660001b613ae5565b613cda613e85565b73ffffffffffffffffffffffffffffffffffffffff1660008054906101000a900473ffffffffffffffffffffffffffffffffffffffff1673ffffffffffffffffffffffffffffffffffffffff1614613d9a576040517f08c379a00000000000000000000000000000000000000000000000000000000081526004018080602001828103825260208152602001807f4f776e61626c653a2063616c6c6572206973206e6f7420746865206f776e657281525060200191505060405180910390fd5b613dc67f7ba4f2199a830e3d2ad7c1299c4a09b4e3ab309bc1026003a927815207e5bf1160001b613ae5565b613df27f3adeb3629871e7d8c3e64ba35ac1e34bbc59bebb48dc5e2a6d3612b73c0f3ca160001b613ae5565b613e1e7fb07f929f32176bc302ea684d542c49a029dcd4cb065ffab142538071fea8ff6260001b613ae5565b613e4a7f18fad4648b6a8af4fe81c1feee5978f75b05d30737d0572016181774fec0040960001b613ae5565b613e767fb61a565406207fe22408659d183cc335c1f2938568d3523c0a0fd06045744bc960001b613ae5565b613e7f8161542c565b50565b50565b6000613eb37f6045cd7ea983586f5137d840e87403db4d6267d388211b6f4726cb51ea25a1e660001b613e82565b613edf7f495a2afff0f12e75dec24348fac79868e60e8920e3afe89d5da01000acf1c1cd60001b613e82565b613f0b7fbc5dcc51cbd581b5e4dff7148078bff1fb669514d7f55dd4c735c646a364fb7560001b613e82565b33905090565b613f3d7f1feb849d428f8c402815c93e77d2b4d11b1ba3d0744039e23c3f4719b3dd50f660001b612b38565b613f697fab23d6d750665198a66eecdb2a0ca295aec3add99c5e9e6e6a36652dffcea12c60001b612b38565b613f957fb7e8213fa845f9d6329b253b1b4265834b7ae2d0ff96db9e4961be05ce6e9fe660001b612b38565b613fc17fd3871201cf2c6cff96b0b91c1e5be9a33b3399282979f290d0b3371f5208e16160001b612b38565b600073ffffffffffffffffffffffffffffffffffffffff168373ffffffffffffffffffffffffffffffffffffffff161415614047576040517f08c379a000000000000000000000000000000000000000000000000000000000815260040180806020018281038252602481526020018061679b6024913960400191505060405180910390fd5b6140737f746e8d6dbec2eafd1433c0e31b34888151d3d064aefd9c6dfc5a44fa114480bf60001b612b38565b61409f7f437e8afb05af49f22da273056760b7f19da005a0b6622c2093e0de53b4a0077e60001b612b38565b6140cb7f82f9cc06dc04ae51d3d6189428945d35d25449a9f431fb2d4820a388ff40d9f660001b612b38565b6140f77f4cd5acc2e4d695b8a5683f50f7d26fa357c7523e8b915251227102b11abfee3060001b612b38565b600073ffffffffffffffffffffffffffffffffffffffff168273ffffffffffffffffffffffffffffffffffffffff16141561417d576040517f08c379a00000000000000000000000000000000000000000000000000000000081526004018080602001828103825260228152602001806168c46022913960400191505060405180910390fd5b6141a97feedbd92dc27a1b589b5268dc1d17d6177a16ca9ef2848394bacb14715deeb05460001b612b38565b6141d57f8a1703433a15ba004d62de124443dc829057c8b5702030ffbe9e7292cf5738de60001b612b38565b6142017f78d519c8b42f4a47c16b6a743f8664fbf8c8d187aa4f5dd9d5d3353bc36526c360001b612b38565b80600260008573ffffffffffffffffffffffffffffffffffffffff1673ffffffffffffffffffffffffffffffffffffffff16815260200190815260200160002060008473ffffffffffffffffffffffffffffffffffffffff1673ffffffffffffffffffffffffffffffffffffffff168152602001908152602001600020819055506142ae7fa46f197cd5111f2df39c38e3e277c7acdcd104572580293d994447c1d4568c0060001b612b38565b6142da7f6937426807a4e763f99adb446bc8eb409fab6ed98eb6ca8938a1e33f71cc2c7f60001b612b38565b8173ffffffffffffffffffffffffffffffffffffffff168373ffffffffffffffffffffffffffffffffffffffff167f8c5be1e5ebec7d5bd14f71427d1e84f3dd0314c0f7b2291e5b200ac8c7c3b925836040518082815260200191505060405180910390a3505050565b60006143727f6f937221491488b4e96f4de4d1dd4f8b3ccfbf3f9c70e81f29d534e0bd1ea0d860001b6156fb565b61439e7f747079fe4bac41af245b35e1f51b0b6e0b1dfa8e73d725a9947799b213d6c32f60001b6156fb565b6143ca7fea41b53febb791a4fee32e133f4d96eee5ca1a87803c4a48e6fc966eda4c1eea60001b6156fb565b600082840190506143fd7f820e65ac2aa60a6067216ac2211bdb422aad8512f2c9ac668a4a3d353367a31560001b6156fb565b6144297f4165e46d7098da93c93b297eb1b18dcd5c8002aa143efc88a4cbf0acc827647760001b6156fb565b6144557ff2ad4239b83981da1376ef0f95c9b97dd28aba0468aed8b33a32458e8aa13c6160001b6156fb565b838110156144cb576040517f08c379a000000000000000000000000000000000000000000000000000000000815260040180806020018281038252601b8152602001807f536166654d6174683a206164646974696f6e206f766572666c6f77000000000081525060200191505060405180910390fd5b6144f77fb4f03ec592d30dbd5c17cd469c36fa76a3975983cb145166a3cd1f3d7cbc1ea860001b6156fb565b6145237fbc6cf25aa0c3203a8892cc968169e2dbfa774c43933649290b4705c8fee712dc60001b6156fb565b61454f7fd76d48bb51a8094e2ed409628ee527f9e8664699332108f480db443ea873db8060001b6156fb565b8091505092915050565b6145857f71ef56994269e306ce4e5a1d6dab78d723411943615ebcebd4c013dcfcf10dc660001b612b38565b6145b17f1acc4458e78df404b3478d30ad915c4ecf3a70ca239e3ccb609b6c6dcd2e5f7660001b612b38565b6145dd7fa3e8d44143e7b94babb024eca14afe4dcaa39bf7ff20a3bd32fedad2c30c4b4f60001b612b38565b6146097f93e83e3fbfa6db49c0d8451973eac9e9b5f8e838fbab1fb85650c6de8686423260001b612b38565b600073ffffffffffffffffffffffffffffffffffffffff168373ffffffffffffffffffffffffffffffffffffffff16141561468f576040517f08c379a00000000000000000000000000000000000000000000000000000000081526004018080602001828103825260258152602001806167766025913960400191505060405180910390fd5b6146bb7f1b8c3ac547e594318a66875ea7f136f125ed285a3bb1d8f4a3ca760cc9551f9360001b612b38565b6146e77f70f6b833e29c5faaa18ea8eb392b11eda61ce0c3da498384bf6c5763b41e326660001b612b38565b6147137fa922f0a8bfc35f38307e02962fe516f32e8e526045770dca77a1f69debd5531160001b612b38565b61473f7fe8492faa50e0d01e170e23b6f615fe74105cea59a8a850651b2da08caff1768f60001b612b38565b600073ffffffffffffffffffffffffffffffffffffffff168273ffffffffffffffffffffffffffffffffffffffff1614156147c5576040517f08c379a00000000000000000000000000000000000000000000000000000000081526004018080602001828103825260238152602001806168596023913960400191505060405180910390fd5b6147f17f13c81f31bad03a12fad15abf50e7ec95ac36188dad8e5dccc98b22c3607625c460001b612b38565b61481d7f2f77ab156b319874b33d69f67bf61ee621f8a241b66591640a7a6ed38f77642560001b612b38565b6148497f3149c46fcc230f60ee3a701abe5d19a924719c4eb079ad4d7d904ba13535141760001b612b38565b6148548383836156fe565b6148807f3853c3f08f93ff15fc0b028aa8e31ff8a9074b7f05d2bdfd08b6be174fa33dbf60001b612b38565b6148ac7f3e26ca2334081bf6413a28bdf01fbd52b69bec718ef3dc3f59b5f7610b73d62f60001b612b38565b6149188160405180606001604052806026815260200161683360269139600160008773ffffffffffffffffffffffffffffffffffffffff1673ffffffffffffffffffffffffffffffffffffffff16815260200190815260200160002054614b0a9092919063ffffffff16565b600160008573ffffffffffffffffffffffffffffffffffffffff1673ffffffffffffffffffffffffffffffffffffffff168152602001908152602001600020819055506149877f7db2fcc946d50d5e50ead2c24485a1dbeee45974806b7f658c2d5ec722749ca360001b612b38565b6149b37f7bfe5e52f29ea0c3134f7554541dbb930edcc9b2c6c4391210658555a2908eb760001b612b38565b614a0581600160008573ffffffffffffffffffffffffffffffffffffffff1673ffffffffffffffffffffffffffffffffffffffff1681526020019081526020016000205461434490919063ffffffff16565b600160008473ffffffffffffffffffffffffffffffffffffffff1673ffffffffffffffffffffffffffffffffffffffff16815260200190815260200160002081905550614a747f7c008f8ee54cf5785eba14746436e388fe1ae450000aab9d2b467adc306ac9f260001b612b38565b614aa07fe0be4763c7fb1fc1f5a1eda3aa417094daf1293108494f4b787caf1b67e96add60001b612b38565b8173ffffffffffffffffffffffffffffffffffffffff168373ffffffffffffffffffffffffffffffffffffffff167fddf252ad1be2c89b69c2b068fc378daa952ba7f163c4a11628f55a4df523b3ef836040518082815260200191505060405180910390a3505050565b6000614b387f155196359ac280c06149afd8ff2b2be0d97f7083b61d6625d1896dcfa225bce960001b6156fb565b614b647f185615744741c9dcd1f0919c76933799038a00d93ba8a1004aa9d1e9c1e5904560001b6156fb565b614b907fa04de4c1bf3224dcc09dc74492e7a5b52be6b61abdec79b3ef1b42855c40a2e060001b6156fb565b614bbc7fd675a28c39907d652d1c498b82c7e65a405df667781941d0988c9ce6df1b4fba60001b6156fb565b838311158290614c67576040517f08c379a00000000000000000000000000000000000000000000000000000000081526004018080602001828103825283818151815260200191508051906020019080838360005b83811015614c2c578082015181840152602081019050614c11565b50505050905090810190601f168015614c595780820380516001836020036101000a031916815260200191505b509250505060405180910390fd5b50614c947f797e9b7dfd3dcea2343cd7e4f6d1038a052ab59c7674ae24f341dfc0b3a9048660001b6156fb565b614cc07f212f6418601078d0977785912b4297e72065f119a6c9a1fc5e99d115926282ee60001b6156fb565b614cec7f61c4e8cfad12cbe196de3a8b1f705342cc611b6c919c4ac228a5f112db909ba960001b6156fb565b60008385039050614d1f7f72aa985283b4ab0e1c9b8b9d6cc667ac62bca5d8da60d0d9d0365044f0d9a5f260001b6156fb565b614d4b7fe4a572706c00a6acc6fed8dc74e10536f6ae2cd065e43a15d3752c5ec7e9780c60001b6156fb565b809150509392505050565b614d827f6982d865b09b26aa681835e4901fb2c447b7b5b2d6859eb08bdad4a69de1165160001b613c1f565b614dae7f41120f5771171dc34839144e25084731b458bca749f99f61d9514cec704e21db60001b613c1f565b614dda7fb54c999fbd0efd68e4b8d7601079744c4564aa22ccfc58f10d98b56dbb26e67e60001b613c1f565b614e057ef3338830c96888e5fe540e46eb5304bbd457c8a4573112e731b6b08587e2f860001b613c1f565b600073ffffffffffffffffffffffffffffffffffffffff168173ffffffffffffffffffffffffffffffffffffffff161415614e8b576040517f08c379a00000000000000000000000000000000000000000000000000000000081526004018080602001828103825260238152602001806168a16023913960400191505060405180910390fd5b614eb77fbf535b2d4b869e1385b3511b9c4b385cdc25380a5e5b35d092a5256337ba83fc60001b613c1f565b614ee37f4a73b47b06ce408ed0a178e3a2b57feacf1ca9c6ee46de5ff037df9e3461578360001b613c1f565b614f0f7fac90aca412b72a96e23bb403a8798546523894ea51f97bc96415e1e77773fdcf60001b613c1f565b8073ffffffffffffffffffffffffffffffffffffffff16600a60009054906101000a900473ffffffffffffffffffffffffffffffffffffffff1673ffffffffffffffffffffffffffffffffffffffff167f4e78506f3260e366dc9440ee0b4eca2d03aa91536b7605deb90e873d3fc4e5b460405160405180910390a3614fb77fe8afcb396349a7bca2b4dfec2f36d2893bd0e6982e06c899ed57c7389c87d95360001b613c1f565b614fe37f9a0464eda13b731b5aa9bc7dc3616f2b1d5ef0f0c0688041f94933d6ae730ac160001b613c1f565b80600a60006101000a81548173ffffffffffffffffffffffffffffffffffffffff021916908373ffffffffffffffffffffffffffffffffffffffff16021790555050565b6150537fa97a6e70e1f0289a4777ddd32c66e5ba86eaaf18381be1573468ad5e70fddad760001b612b38565b61507f7f46d1cf011c37963a88d0cb14bfd2ec85ecd05d5f47ca33eba3d5a2c2db97d2ec60001b612b38565b6150ab7f4d213825d343f86a03d06dd0083c37acf7c13a10a39210d0cae7af3e82e2205f60001b612b38565b6150d77fb753c69e9f34d5a125acdd1ae9098e1115acee23882665895e5c3ed9319c652060001b612b38565b600073ffffffffffffffffffffffffffffffffffffffff168273ffffffffffffffffffffffffffffffffffffffff16141561517a576040517f08c379a000000000000000000000000000000000000000000000000000000000815260040180806020018281038252601f8152602001807f42455032303a206d696e7420746f20746865207a65726f20616464726573730081525060200191505060405180910390fd5b6151a67feb8889074e4a8a7a4e3cae2de0a12e56ed65a7baabea440301f2117404e8300c60001b612b38565b6151d27f8c3a30f8a4f9ef2269c1df6b3291d5924daf708497766c591b5a8e556bdb086360001b612b38565b6151fe7fce71668fbf2181c434c66eb1f6202b374aff4c7cf69065cb23b2a1cc0495fba960001b612b38565b61520a600083836156fe565b6152367fbc535ee3eb530c0078c1c808fc8d8dc3d2d495cd0b025a1cbd12cbda3143ff0460001b612b38565b6152627f73faaf33b6d93ce97dbd5acd41e8987a4ab5698811b9de952d34e180f7a0bf6060001b612b38565b6152778160035461434490919063ffffffff16565b6003819055506152a97f94981beed87657a97cf2d074ee0c7b56bfeece45c54c2f8c1ed1316cd23e4bd860001b612b38565b6152d57f9ab79ac8bfd90e8e12d47545197a3034e36a24a4f61cdbf433d9269cfa766dd860001b612b38565b61532781600160008573ffffffffffffffffffffffffffffffffffffffff1673ffffffffffffffffffffffffffffffffffffffff1681526020019081526020016000205461434490919063ffffffff16565b600160008473ffffffffffffffffffffffffffffffffffffffff1673ffffffffffffffffffffffffffffffffffffffff168152602001908152602001600020819055506153967f254ec884c60f6569fa9f92d2ccb2fcf1757dabfcaa7e78787a2d627ca9c51cc060001b612b38565b6153c27f2d09369511de6190b91091bc86106b798497ffa3d06466480bafb5dbb5cf18ba60001b612b38565b8173ffffffffffffffffffffffffffffffffffffffff16600073ffffffffffffffffffffffffffffffffffffffff167fddf252ad1be2c89b69c2b068fc378daa952ba7f163c4a11628f55a4df523b3ef836040518082815260200191505060405180910390a35050565b6154587f9900dfdd4221ec6de30218831892d152e7e0c35f22f8d9aef6c99e32418f002060001b613ae5565b6154847fbbda78fd51e6f1574e920c69c4cd895537886b0451472cef82261e2a0409bf1060001b613ae5565b6154b07fd2adf5c8af89130550d092866ece6f38028fe6971b4f0f9badbf72778db4016c60001b613ae5565b6154dc7ff0fdc43bc7883e7967f965ce8757e0bfbdec3d06357bc4f7df6dcab1b6f1eed660001b613ae5565b600073ffffffffffffffffffffffffffffffffffffffff168173ffffffffffffffffffffffffffffffffffffffff161415615562576040517f08c379a00000000000000000000000000000000000000000000000000000000081526004018080602001828103825260268152602001806167bf6026913960400191505060405180910390fd5b61558e7f5113697f2b41302b416c774fe0529614b9f23cc36e30c58893a146767a02b2bd60001b613ae5565b6155ba7fc9f91eb3a262fa35c686933f091e549e2c4633237b6c2b39ab195668ba0e0abe60001b613ae5565b6155e67ff4031f22876b96c7092e622895e441a713c95b3e5fad2a46a4356bae4aeb3a8160001b613ae5565b8073ffffffffffffffffffffffffffffffffffffffff1660008054906101000a900473ffffffffffffffffffffffffffffffffffffffff1673ffffffffffffffffffffffffffffffffffffffff167f8be0079c531659141344cd1fd0a4f28419497f9722a3daafe3b4186f6b6457e060405160405180910390a361568c7fefabc238e890d8431308ff8e4cc0b047be5ce9efba1cb1279924d0ab998837f760001b613ae5565b6156b87f49573c3002554640eec55b2717c93c4ab15a6b23f9e5e9a8981c6a4de6323e2c60001b613ae5565b806000806101000a81548173ffffffffffffffffffffffffffffffffffffffff021916908373ffffffffffffffffffffffffffffffffffffffff16021790555050565b50565b61572a7fa3a0b6670edc0d6bb86503bda0663069ff59d8912b58019a6707627fbdf43e7f60001b612b3b565b6157567f55bd6b1ac010020a9e5e0bc336f547dd53ff2bc365a4ffd25008b788caa68c7160001b612b3b565b6157827f47e69e95a9c3a773c78d2e79e838a5006f5266c98d31cefc871d1bf8e43915f060001b612b3b565b61578d838383615a11565b6157b97f17cf994a6a39a8028d387a4b24438af47bd06fdc8acf17accbc51e53059cf3d260001b612b3b565b6157e57f1bd232b112bc9d983ac6b7fb754d5994856dbdb2f58f9a1287499ab34f8d2e5a60001b612b3b565b6157f083838361662b565b61581c7f0a74b98ef4477e991d3ed45b68df21d3ab53b19c54048ba72479da72f8db06bb60001b612b3b565b6158487fe0a47e4249a0938f51db472cda5d1e97a2ca9d151f8fb06ab5e7eb9e086b7dfa60001b612b3b565b600073ffffffffffffffffffffffffffffffffffffffff168373ffffffffffffffffffffffffffffffffffffffff1614156159df576158a97ff194938131e79378cf0adbacd24e44fb26fc9ddedcb37738b800f7a76a8a959f60001b612b3b565b6158d57f85da2241e60b517a274fb6f5b54aa3e8d3e659b89dd2b3a5d94c679996b1d36e60001b612b3b565b6159017fdc904af46f96e38dcd397b007d4ff508f4f012ad28a6ce65a8d448ff6ba14f4460001b612b3b565b61592d7fdbb13b499a5599a67d5346b211fd49d74bf215facd41bacab30ae42bef262b3e60001b612b3b565b600b5481615939610d7b565b0111156159ae576040517f08c379a00000000000000000000000000000000000000000000000000000000081526004018080602001828103825260198152602001807f42455032304361707065643a206361702065786365656465640000000000000081525060200191505060405180910390fd5b6159da7f9f89d49d77a1079b4ae38fa71b6fe8d0184cf14c2b88d4f3354cc2f2c31927b560001b612b3b565b615a0c565b615a0b7ffc23d993a2a0bcb88420ccca1854b8a4a2d6574c1f9a2f470f0a496f663fcc0560001b612b3b565b5b505050565b615a3d7f37045b86e1c70ddfb1be73375e539de9af84c713e01681b5dc03d8fd20df6c3f60001b613c1f565b615a697f077ca509520481f25b8b67e1c51ed90443ce1b53668c03afd41496350b48bd3b60001b613c1f565b615a957f1dd3447f890dc2032bc1e69a32758795fcae0d59dabee0742ca53dd91fc02f2860001b613c1f565b600073ffffffffffffffffffffffffffffffffffffffff16600960009054906101000a900473ffffffffffffffffffffffffffffffffffffffff1673ffffffffffffffffffffffffffffffffffffffff161480615af757506000600780549050145b15615b8557615b287fd7fc213bcc04f81247b081f67ea660fbae3ee41d437b76ebed93a647203090fe60001b613c1f565b615b547f62957bebf6eaefa63cc412dec54dce558ffa25c7ad34d94353dcc6fcc179433a60001b613c1f565b615b807fc17f296b75c330bac90c61c6d704efdd414b41e14e48e42465d73f45dcd1580460001b613c1f565b616626565b615bb17f5a10de8fadab4a46f5b96d272f01a2382ab71f6768367eb7d9a2052265bdf42660001b613c1f565b615bdd7f760eb6a5b28d685efdaf2d521ebb5d963aa1707e85983a3ebdabdd5689d7b58660001b613c1f565b615c097fdee6d21c2d6b6e8077e51970cb10b81e639a390058f13acabaf5c14c36836bf860001b613c1f565b6000600854148015615c695750600960009054906101000a900473ffffffffffffffffffffffffffffffffffffffff1673ffffffffffffffffffffffffffffffffffffffff168373ffffffffffffffffffffffffffffffffffffffff1614155b8015615cc25750600960009054906101000a900473ffffffffffffffffffffffffffffffffffffffff1673ffffffffffffffffffffffffffffffffffffffff168273ffffffffffffffffffffffffffffffffffffffff16145b8015615cce5750600081115b15615d6357615cff7fd65317a1deb977b5cfcea23fc280ce0f3e450988ffd7d5c08dd02d39d4b3319660001b613c1f565b615d2b7f635f538918c9fdb038195d81c162a238e9d0731d0474f313b55b2d017d52efdc60001b613c1f565b615d577f18e1150eb4ba6bc3af24a793037bd6709d77b7925feadf4d7e1457f2f6596f2d60001b613c1f565b42600881905550615d90565b615d8f7f4376b8885d95f97bec3685620cc7e72df04c20ba8c92288d501891a06e2221f460001b613c1f565b5b615dbc7f93d72a87586f1517e6062e39c8f083bb132f93b6e10b1227f75558b9e031a1fc60001b613c1f565b615de87fe0ebdfa0ef5454d8046cf19c92420b223b7c6da8f23ada229b2d28c2ab9940ad60001b613c1f565b600960009054906101000a900473ffffffffffffffffffffffffffffffffffffffff1673ffffffffffffffffffffffffffffffffffffffff168373ffffffffffffffffffffffffffffffffffffffff16148015615e935750600960009054906101000a900473ffffffffffffffffffffffffffffffffffffffff1673ffffffffffffffffffffffffffffffffffffffff168273ffffffffffffffffffffffffffffffffffffffff1614155b156165f857615ec47fcfcb92c1b2168633064a7af5e12d36fa7230f1dfa2f6b8411cacb7573470f40e60001b613c1f565b615ef07f56689d922077723366de71f0219bffa5c06a587dea298e64608590262b83af5a60001b613c1f565b615f1c7f9abfff5d37114c017a6e133afa9beef4aee1365013ca397b7ae9e9acca2246ff60001b613c1f565b6000615f26610e09565b50505050509050615f597fb9141c6e68e77fcc38fc705adf67c3f11391111cbc75b5fa1ff9d4d6395d81aa60001b613c1f565b615f857f2b1603c828e4ff65ef05a56cf6b1ff1fb9789914ce843e95bac08d900e267c2660001b613c1f565b60008111156165c557615fba7f37b55bd876d0ec5b0078a3f83e80ba5edd96acd6e98df2a6d7ce5cc4771cf0a060001b613c1f565b615fe67f5deab1513b84da660a5387f81ee6279be3292d8f5d04ccc65664464428d06f5860001b613c1f565b6160127f9f3f6a2ecdeb9fe7ff95ae0f2f328979072ae204b987f97b7910cc1aee11c8b160001b613c1f565b6000600761602a60018461665c90919063ffffffff16565b8154811061603457fe5b906000526020600020906004020190506160707f6555b15c88679d019a03e958794f4bf0195e68fc5b20ede038e6ecec24b4ec8d60001b613c1f565b61609c7f2e85fd30698a46734272402f63b646797b8e31de4ef08a29aab399f700b07d0860001b613c1f565b6160c87fac926f9e0cc7121a55ab9fc236f3f5b31052c018379736f5657c5cdef74d79d760001b613c1f565b8060020160008573ffffffffffffffffffffffffffffffffffffffff1673ffffffffffffffffffffffffffffffffffffffff16815260200190815260200160002060009054906101000a900460ff16616189576040517f08c379a000000000000000000000000000000000000000000000000000000000815260040180806020018281038252601e8152602001807f4c4745202d204275796572206973206e6f742077686974656c6973746564000081525060200191505060405180910390fd5b6161b57fb52c23993ae92e2f1c95d31a3f798b20a57f1be6bacdd7570181d8b5d227294160001b613c1f565b6161e17fdb266165096e2afb82391ab97b6d80ea386a863e8b37ce1b4d7c62a1e810e28860001b613c1f565b61620d7f8a0f716f8e05a5c5cbf8a45b658fa3e5a246e0b2f6582f6184d6bcb01663542860001b613c1f565b600061623b7f7ff99e30954f9141d3711505bfee9e5d8f71f82d9b951641438c8f1ea630be5a60001b613c1f565b6162677f43415ac0bf59e40b8447053c2be3bbc87ec744c24876bbbd553605e3f199689d60001b613c1f565b81600101548260030160008773ffffffffffffffffffffffffffffffffffffffff1673ffffffffffffffffffffffffffffffffffffffff168152602001908152602001600020541015616397576162e07fd01382b7fa9c38f6005d116106b67bd122771ddfa7e190f2e93865fc0b4564c160001b613c1f565b61630c7f4a15baf300ea8d881333fed46c6d6373bd865961ebedf54626fe22143a6d7c8060001b613c1f565b6163387fd7384771a26164f979d3674450b87b8e5ecdbd325a9019caf771fb1725cb541560001b613c1f565b6163908260030160008773ffffffffffffffffffffffffffffffffffffffff1673ffffffffffffffffffffffffffffffffffffffff16815260200190815260200160002054836001015461665c90919063ffffffff16565b90506163c4565b6163c37f213ee05921450205eea62402f02f2b14d2c20d8c1f4e5fd83e38278f4266157260001b613c1f565b5b6163f07f4d7f48ca87fa2565ae77c4686bcdd2e76f939ce073336c8fcf7b89a11df3d94960001b613c1f565b61641c7f81b89267769c777dc2378966168e62637c277eb52e5e7c6e281a4abf7a587a0b60001b613c1f565b6164487fd87615cc514bf33b873905f20cf74dc0efdb8217d1ea845bb25594d0e4d39dd960001b613c1f565b808411156164a1576040517f08c379a000000000000000000000000000000000000000000000000000000000815260040180806020018281038252602681526020018061680d6026913960400191505060405180910390fd5b6164cd7fbd6647a82d731fd865acc896631b6e0a8d9c753591582b1da72937112cbccd7660001b613c1f565b6164f97f1563e0def65d8eaa6d51191fd6172fc7952ae8e862e846356557ea15e4c4ac2960001b613c1f565b6165257fb8d2355c433a94d21043118bfe5e225cea0dfd4c2613d94bfb485811b2e83ed260001b613c1f565b616579848360030160008873ffffffffffffffffffffffffffffffffffffffff1673ffffffffffffffffffffffffffffffffffffffff1681526020019081526020016000205461434490919063ffffffff16565b8260030160008773ffffffffffffffffffffffffffffffffffffffff1673ffffffffffffffffffffffffffffffffffffffff1681526020019081526020016000208190555050506165f2565b6165f17fea2c8e53b1fa3c50f9dc8d19c02cde231d60ac7af866a98ee65526ada2ac440e60001b613c1f565b5b50616625565b6166247fa611b156446d7444f492f2cb908f4573c46a9c2d0b84df58a1fdf196969dd5ba60001b613c1f565b5b5b505050565b6166577fd7eeb83dd7b0ea4401df8c2ff27b1b42aebadbfafb7594ef9c5215ed0795ea0760001b612b38565b505050565b600061668a7f3f84e2b2ef2fac84d7225877a02357a1fa0bfe24be49268cda893bf8a913635460001b6156fb565b6166b67f2520b22253df5a3ab775b09fa4eee7e0e70d5010fb584d5b0484eaee85ba7bd560001b6156fb565b6166e27fb7c6b4dfc7e5e685755cd53a82937133df4490f8ab2ba428a62bdb532e98d0bd60001b6156fb565b61672283836040518060400160405280601e81526020017f536166654d6174683a207375627472616374696f6e206f766572666c6f770000815250614b0a565b905092915050565b508054600082556004029060005260206000209081019061674b919061674e565b50565b5b808211156167715760008082016000905560018201600090555060040161674f565b509056fe42455032303a207472616e736665722066726f6d20746865207a65726f206164647265737342455032303a20617070726f76652066726f6d20746865207a65726f20616464726573734f776e61626c653a206e6577206f776e657220697320746865207a65726f206164647265737342455032303a207472616e7366657220616d6f756e74206578636565647320616c6c6f77616e63654c4745202d20416d6f756e7420657863656564732077686974656c697374206d6178696d756d42455032303a207472616e7366657220616d6f756e7420657863656564732062616c616e636542455032303a207472616e7366657220746f20746865207a65726f206164647265737342455032303a2064656372656173656420616c6c6f77616e63652062656c6f77207a65726f4e65772077686974656c697374657220697320746865207a65726f206164647265737342455032303a20617070726f766520746f20746865207a65726f2061646472657373a26469706673582212200ca5157481b4661754af0978e749bcd34698d90d0e90f90d662051c761934b6b64736f6c634300060c0033",
  "linkReferences": {},
  "deployedLinkReferences": {}
}