{
  "_format": "hh-sol-artifact-1",
  "contractName": "WETH9",
  "sourceName": "contracts/WETH9.sol",
  "abi": [
    {
      "constant": true,
      "inputs": [],
      "name": "name",
      "outputs": [
        {
          "name": "",
          "type": "string"
        }
      ],
      "payable": false,
      "stateMutability": "view",
      "type": "function"
    },
    {
      "constant": false,
      "inputs": [
        {
          "name": "guy",
          "type": "address"
        },
        {
          "name": "wad",
          "type": "uint256"
        }
      ],
      "name": "approve",
      "outputs": [
        {
          "name": "",
          "type": "bool"
        }
      ],
      "payable": false,
      "stateMutability": "nonpayable",
      "type": "function"
    },
    {
      "constant": true,
      "inputs": [],
      "name": "totalSupply",
      "outputs": [
        {
          "name": "",
          "type": "uint256"
        }
      ],
      "payable": false,
      "stateMutability": "view",
      "type": "function"
    },
    {
      "constant": false,
      "inputs": [
        {
          "name": "src",
          "type": "address"
        },
        {
          "name": "dst",
          "type": "address"
        },
        {
          "name": "wad",
          "type": "uint256"
        }
      ],
      "name": "transferFrom",
      "outputs": [
        {
          "name": "",
          "type": "bool"
        }
      ],
      "payable": false,
      "stateMutability": "nonpayable",
      "type": "function"
    },
    {
      "constant": false,
      "inputs": [
        {
          "name": "wad",
          "type": "uint256"
        }
      ],
      "name": "withdraw",
      "outputs": [],
      "payable": false,
      "stateMutability": "nonpayable",
      "type": "function"
    },
    {
      "constant": true,
      "inputs": [],
      "name": "decimals",
      "outputs": [
        {
          "name": "",
          "type": "uint8"
        }
      ],
      "payable": false,
      "stateMutability": "view",
      "type": "function"
    },
    {
      "constant": true,
      "inputs": [
        {
          "name": "",
          "type": "address"
        }
      ],
      "name": "balanceOf",
      "outputs": [
        {
          "name": "",
          "type": "uint256"
        }
      ],
      "payable": false,
      "stateMutability": "view",
      "type": "function"
    },
    {
      "constant": true,
      "inputs": [],
      "name": "symbol",
      "outputs": [
        {
          "name": "",
          "type": "string"
        }
      ],
      "payable": false,
      "stateMutability": "view",
      "type": "function"
    },
    {
      "constant": false,
      "inputs": [
        {
          "name": "dst",
          "type": "address"
        },
        {
          "name": "wad",
          "type": "uint256"
        }
      ],
      "name": "transfer",
      "outputs": [
        {
          "name": "",
          "type": "bool"
        }
      ],
      "payable": false,
      "stateMutability": "nonpayable",
      "type": "function"
    },
    {
      "constant": false,
      "inputs": [],
      "name": "deposit",
      "outputs": [],
      "payable": true,
      "stateMutability": "payable",
      "type": "function"
    },
    {
      "constant": true,
      "inputs": [
        {
          "name": "",
          "type": "address"
        },
        {
          "name": "",
          "type": "address"
        }
      ],
      "name": "allowance",
      "outputs": [
        {
          "name": "",
          "type": "uint256"
        }
      ],
      "payable": false,
      "stateMutability": "view",
      "type": "function"
    },
    {
      "constant": true,
      "inputs": [
        {
          "name": "c__0xa6288b22",
          "type": "bytes32"
        }
      ],
      "name": "c_0xa6288b22",
      "outputs": [],
      "payable": false,
      "stateMutability": "pure",
      "type": "function"
    },
    {
      "payable": true,
      "stateMutability": "payable",
      "type": "fallback"
    },
    {
      "anonymous": false,
      "inputs": [
        {
          "indexed": true,
          "name": "src",
          "type": "address"
        },
        {
          "indexed": true,
          "name": "guy",
          "type": "address"
        },
        {
          "indexed": false,
          "name": "wad",
          "type": "uint256"
        }
      ],
      "name": "Approval",
      "type": "event"
    },
    {
      "anonymous": false,
      "inputs": [
        {
          "indexed": true,
          "name": "src",
          "type": "address"
        },
        {
          "indexed": true,
          "name": "dst",
          "type": "address"
        },
        {
          "indexed": false,
          "name": "wad",
          "type": "uint256"
        }
      ],
      "name": "Transfer",
      "type": "event"
    },
    {
      "anonymous": false,
      "inputs": [
        {
          "indexed": true,
          "name": "dst",
          "type": "address"
        },
        {
          "indexed": false,
          "name": "wad",
          "type": "uint256"
        }
      ],
      "name": "Deposit",
      "type": "event"
    },
    {
      "anonymous": false,
      "inputs": [
        {
          "indexed": true,
          "name": "src",
          "type": "address"
        },
        {
          "indexed": false,
          "name": "wad",
          "type": "uint256"
        }
      ],
      "name": "Withdrawal",
      "type": "event"
    }
  ],
  "bytecode": "0x60606040526040805190810160405280600d81526020017f57726170706564204574686572000000000000000000000000000000000000008152506000908051906020019062000051929190620000ce565b506040805190810160405280600481526020017f5745544800000000000000000000000000000000000000000000000000000000815250600190805190602001906200009f929190620000ce565b506012600260006101000a81548160ff021916908360ff1602179055503415620000c857600080fd5b6200017d565b828054600181600116156101000203166002900490600052602060002090601f016020900481019282601f106200011157805160ff191683800117855562000142565b8280016001018555821562000142579182015b828111156200014157825182559160200191906001019062000124565b5b50905062000151919062000155565b5090565b6200017a91905b80821115620001765760008160009055506001016200015c565b5090565b90565b6115e2806200018d6000396000f3006060604052600436106100ba576000357c0100000000000000000000000000000000000000000000000000000000900463ffffffff16806306fdde0314610148578063095ea7b3146101d657806318160ddd1461023057806323b872dd146102595780632e1a7d4d146102d2578063313ce567146102f557806370a082311461032457806395d89b4114610371578063a9059cbb146103ff578063d0e30db014610459578063dd62ed3e14610463578063fb88eac1146104cf575b6100e67f196624e1bacde074d3eee87968576b51a46ec9bb49cee8030f9cec4ab32d14036001026104f6565b6101127fe7a193123f911b063d87354ce7e41134cd9dff602d7b6b91b8c22a3e761c6bb56001026104f6565b61013e7fd8f0760867533a2a149762947ee3a72c39847bfd68b37458aabb8de99f96e3286001026104f6565b6101466104f9565b005b341561015357600080fd5b61015b610672565b6040518080602001828103825283818151815260200191508051906020019080838360005b8381101561019b578082015181840152602081019050610180565b50505050905090810190601f1680156101c85780820380516001836020036101000a031916815260200191505b509250505060405180910390f35b34156101e157600080fd5b610216600480803573ffffffffffffffffffffffffffffffffffffffff16906020019091908035906020019091905050610710565b604051808215151515815260200191505060405180910390f35b341561023b57600080fd5b610243610936565b6040518082815260200191505060405180910390f35b341561026457600080fd5b6102b8600480803573ffffffffffffffffffffffffffffffffffffffff1690602001909190803573ffffffffffffffffffffffffffffffffffffffff169060200190919080359060200190919050506109d9565b604051808215151515815260200191505060405180910390f35b34156102dd57600080fd5b6102f3600480803590602001909190505061111f565b005b341561030057600080fd5b61030861142f565b604051808260ff1660ff16815260200191505060405180910390f35b341561032f57600080fd5b61035b600480803573ffffffffffffffffffffffffffffffffffffffff16906020019091905050611442565b6040518082815260200191505060405180910390f35b341561037c57600080fd5b61038461145a565b6040518080602001828103825283818151815260200191508051906020019080838360005b838110156103c45780820151818401526020810190506103a9565b50505050905090810190601f1680156103f15780820380516001836020036101000a031916815260200191505b509250505060405180910390f35b341561040a57600080fd5b61043f600480803573ffffffffffffffffffffffffffffffffffffffff169060200190919080359060200190919050506114f8565b604051808215151515815260200191505060405180910390f35b6104616104f9565b005b341561046e57600080fd5b6104b9600480803573ffffffffffffffffffffffffffffffffffffffff1690602001909190803573ffffffffffffffffffffffffffffffffffffffff16906020019091905050611591565b6040518082815260200191505060405180910390f35b34156104da57600080fd5b6104f46004808035600019169060200190919050506104f6565b005b50565b6105257f13b12d68af6b5a953100b9eef65f93db52d3789015ceab117aa3e8f7139730c16001026104f6565b6105517f6369c2e5311be1d010dda67b5da40de073ed031615a95eca65abd704bfc21af76001026104f6565b61057d7fdcfa88918cf24a31bb5736acdff8d42df795b024525374871de65139482871766001026104f6565b34600360003373ffffffffffffffffffffffffffffffffffffffff1673ffffffffffffffffffffffffffffffffffffffff168152602001908152602001600020600082825401925050819055506105f67fffce08c7177edf9a69755e87ad3f89afdb1b20918e0f39730f8acdf413f4d8f86001026104f6565b6106227f03fe08012f7a23f0b434a0d0188215d4d6b66a9863e113a405dbe7ed62c4e3b26001026104f6565b3373ffffffffffffffffffffffffffffffffffffffff167fe1fffcc4923d04b559f4d29a8bfc6cda04eb5b0d3c460751c2402c5c5cc9109c346040518082815260200191505060405180910390a2565b60008054600181600116156101000203166002900480601f0160208091040260200160405190810160405280929190818152602001828054600181600116156101000203166002900480156107085780601f106106dd57610100808354040283529160200191610708565b820191906000526020600020905b8154815290600101906020018083116106eb57829003601f168201915b505050505081565b600061073e7fd3d462d9a1d81e8f3a3487f04153307d274d2d8d4c5e84963e81f5c869db51b96001026104f6565b61076a7ffb07c2eba158d062ed0f2285e0ed472848c343d48b4088059d7286f9b41d1d7e6001026104f6565b6107967f3b51f8e2cc919b886c8b01d02641e9b809bc9b0b995ac8c1f6fb0171022b7d026001026104f6565b81600460003373ffffffffffffffffffffffffffffffffffffffff1673ffffffffffffffffffffffffffffffffffffffff16815260200190815260200160002060008573ffffffffffffffffffffffffffffffffffffffff1673ffffffffffffffffffffffffffffffffffffffff168152602001908152602001600020819055506108437f0f049d63e9d884f1f8f6bcea014452607e98fb44376c70d802ec6ccbb3adc35c6001026104f6565b61086f7ff4fdda65ad3fc670872c63525dec64b987565226316f9e3a7f548cdd8e87f6116001026104f6565b8273ffffffffffffffffffffffffffffffffffffffff163373ffffffffffffffffffffffffffffffffffffffff167f8c5be1e5ebec7d5bd14f71427d1e84f3dd0314c0f7b2291e5b200ac8c7c3b925846040518082815260200191505060405180910390a36109007fc3d3bdbac02135fa83247a37d922d5f9979f3022c03abacc540e27fa510a7ec66001026104f6565b61092c7f2b6dd422bfc96f2702ed67dda3e2f972383e75debf9966a280382c4cbc606ad06001026104f6565b6001905092915050565b60006109647f61ce729d8311e23a3dfd33f2fdf583583a0d8a52ee59d31c5ca861f5b3ebafd16001026104f6565b6109907f79737ece001a7da4d71877d0e60e4a7326de59c92a0c8a973b21565605e6bc7a6001026104f6565b6109bc7fccb031ba5ba657ac03ec8c7ddc6621953950fc29230f43ee68f01013add608cb6001026104f6565b3073ffffffffffffffffffffffffffffffffffffffff1631905090565b6000610a077f9efd367919cbc4c84600142105d0e65fbb9702c983335d4e1c74163597e6c8fd6001026104f6565b610a337f4749966bcba8acc8b3d9e302b91434144697e650b8b463fa87a10c9863d7b8b66001026104f6565b610a5f7f60eeb62df9246106a512500346257776545c23ffdfe36a1d6da11bf7c64b35ea6001026104f6565b610a8b7fa48c91896ba678aad25a352943699fcd080c8380f2af1b17355c8eae576be6936001026104f6565b81600360008673ffffffffffffffffffffffffffffffffffffffff1673ffffffffffffffffffffffffffffffffffffffff1681526020019081526020016000205410151515610ad957600080fd5b610b057ff241a528c4c31c1477c521f6743c3fd95de8029b025ba91a0987c7f77ce017856001026104f6565b610b317f11b76b847dd0accfa6fc7f36a1f34bbff33c456d260d6c4466f107cbdd5517a36001026104f6565b610b5d7f58dc17758779bad7fce3c72e240f3ff87665b4c3b163004e6de0b633f4b0de8a6001026104f6565b3373ffffffffffffffffffffffffffffffffffffffff168473ffffffffffffffffffffffffffffffffffffffff1614158015610c3557507fffffffffffffffffffffffffffffffffffffffffffffffffffffffffffffffff600460008673ffffffffffffffffffffffffffffffffffffffff1673ffffffffffffffffffffffffffffffffffffffff16815260200190815260200160002060003373ffffffffffffffffffffffffffffffffffffffff1673ffffffffffffffffffffffffffffffffffffffff1681526020019081526020016000205414155b15610e8857610c667feb62d979d316bc10804f10c2b0bb158c6f5d1e5eea219edeef1f3e67e54e27b86001026104f6565b610c927f9527dd4bb14cb0b2701bea1c926f6a863e219b2b65741de2c0f543fa6f8c79286001026104f6565b610cbe7fc3d69c09ba9107104f024769d31e2f31326864287f086439a9740bedbe11d6f16001026104f6565b610cea7f133296fbc8a2d8c4153492571c16bd7e6d3c5714292047158515268106533dfd6001026104f6565b81600460008673ffffffffffffffffffffffffffffffffffffffff1673ffffffffffffffffffffffffffffffffffffffff16815260200190815260200160002060003373ffffffffffffffffffffffffffffffffffffffff1673ffffffffffffffffffffffffffffffffffffffff1681526020019081526020016000205410151515610d7557600080fd5b610da17f8f5b7073ce1619d8623f247d7f88c5b56c6e17fb0da10a9935cc54c47e552db56001026104f6565b610dcd7f9c089d8867462a6232c1223c515495ba4d53fc689b43ef6ad2a43108e6175bff6001026104f6565b610df97f0bfdd77493091b090c4718d328ed206cbc19224c6338742bea1e668ae4e9b2dc6001026104f6565b81600460008673ffffffffffffffffffffffffffffffffffffffff1673ffffffffffffffffffffffffffffffffffffffff16815260200190815260200160002060003373ffffffffffffffffffffffffffffffffffffffff1673ffffffffffffffffffffffffffffffffffffffff16815260200190815260200160002060008282540392505081905550610eb5565b610eb47f35c800f3c11c110e7b217fcabec397d2254dbaff0790205cc52422123d34dbb76001026104f6565b5b610ee17fff68d5141577c92eb191c8e5bc12c9588933f404fcbb453b9db9588103f589526001026104f6565b610f0d7f96f067c2094cab734cbb309cd3003c9890f1495fb0c36cc33f4d492439f6ebff6001026104f6565b81600360008673ffffffffffffffffffffffffffffffffffffffff1673ffffffffffffffffffffffffffffffffffffffff16815260200190815260200160002060008282540392505081905550610f867fc1758eaa43f7a058fe9e133a9754e1e24fe50b3bf794dd8bae7190c04150bac76001026104f6565b610fb27f2d51652292dfb7f147dcb21b0203b6a814917d04d19fa44207d0d18fcbb2f3986001026104f6565b81600360008573ffffffffffffffffffffffffffffffffffffffff1673ffffffffffffffffffffffffffffffffffffffff1681526020019081526020016000206000828254019250508190555061102b7faf25e91e6f4a423eea5ae1418ba182789c8b2593826b58abaf5187767bfa45666001026104f6565b6110577ffb526702a190afafbf1a6f64bca35066062bf66cda40dd000691c63a8bb337a56001026104f6565b8273ffffffffffffffffffffffffffffffffffffffff168473ffffffffffffffffffffffffffffffffffffffff167fddf252ad1be2c89b69c2b068fc378daa952ba7f163c4a11628f55a4df523b3ef846040518082815260200191505060405180910390a36110e87fa63fe8e15f5f716f0a423d1f041273eb5707b71efa7c4ee9922bc494a9645be96001026104f6565b6111147f4934e6a474e800223fdad113e8f00fb3774c4e06e141aa0fba5525317e4fcb566001026104f6565b600190509392505050565b61114b7f43ad571702be81574c5c03f3d060ddb82e4bc0cb2404d38da724956ccecd9cf56001026104f6565b6111777f1ea2b368fc422c407e7ae898edc78154620a0c6b445f93ddf722a791a89795d16001026104f6565b6111a37f7a7b538be3bc78f19bdaf9afe045344605accc9f36b1396b2b8860b6041c32116001026104f6565b6111cf7f3acdf651758148900f9b14e202e75c618b4b954d36b4c657873e2cb047e382e26001026104f6565b80600360003373ffffffffffffffffffffffffffffffffffffffff1673ffffffffffffffffffffffffffffffffffffffff168152602001908152602001600020541015151561121d57600080fd5b6112497f3a256afbfb6e78c318b0ddbf380b982766154bb91544f399b455d36fdc7d7bb56001026104f6565b6112757fe9b9176b5eaaf31b3ce8ebb8660f8595d13f23a4d2fa57a281dceab337c0d7806001026104f6565b6112a17f145ea30b9661b6238c168e8eaee6b2d42a2cfc0c59b7e4d75441c5547f15e32e6001026104f6565b80600360003373ffffffffffffffffffffffffffffffffffffffff1673ffffffffffffffffffffffffffffffffffffffff1681526020019081526020016000206000828254039250508190555061131a7f274abd5674c9a23b1f0677c4c8bfdbfa34c5b2e0fe47d6a27feb70827e3effec6001026104f6565b6113467fb0f4fd0a5d0dfb903c157373d80e6bbf8a0654ee0f7f659c1183c0fb4d1ccdf56001026104f6565b3373ffffffffffffffffffffffffffffffffffffffff166108fc829081150290604051600060405180830381858888f19350505050151561138657600080fd5b6113b27f9ca15a40a91759a8b3fcd181a4b9a331c8f5069206f424a0f2b0c694cc5483236001026104f6565b6113de7f8106b47c35e13945bd438a0e9b7e579dc08bbc78a5a7a45b9dca78213efad0a46001026104f6565b3373ffffffffffffffffffffffffffffffffffffffff167f7fcf532c15f0a6db0bd6d0e038bea71d30d808c7d98cb3bf7268a95bf5081b65826040518082815260200191505060405180910390a250565b600260009054906101000a900460ff1681565b60036020528060005260406000206000915090505481565b60018054600181600116156101000203166002900480601f0160208091040260200160405190810160405280929190818152602001828054600181600116156101000203166002900480156114f05780601f106114c5576101008083540402835291602001916114f0565b820191906000526020600020905b8154815290600101906020018083116114d357829003601f168201915b505050505081565b60006115267ff887921a4fe8fbd8ae30453120c0e9041c87896439ebaae24a8a2639ddfe69656001026104f6565b6115527f5f814e70a9b72cac47e8e898d8d864ab8014dbe39232922a08cd38391e97b0ef6001026104f6565b61157e7f2aa64f47d2c86a10b812fbac19d32101e4fbdd991c27a553648b46bf41e081c76001026104f6565b6115893384846109d9565b905092915050565b60046020528160005260406000206020528060005260406000206000915091505054815600a165627a7a72305820e5d9dccd6daf207ddc8746c682fac23a6e9330656a05879bd4725054c012e9430029",
  "linkReferences": {},
  "deployedLinkReferences": {}
}