{
  "_format": "hh-sol-artifact-1",
  "contractName": "SafeMath",
  "sourceName": "contracts/SafeMath.sol",
  "abi": [
    {
      "inputs": [
        {
          "internalType": "bytes32",
          "name": "c__0x5d8ecc55",
          "type": "bytes32"
        }
      ],
      "name": "c_0x5d8ecc55",
      "outputs": [],
      "stateMutability": "pure",
      "type": "function"
    }
  ],
  "bytecode": "0x609c610024600b82828239805160001a607314601757fe5b30600052607381538281f3fe730000000000000000000000000000000000000000301460806040526004361060335760003560e01c8063eccef2ee146038575b600080fd5b606160048036036020811015604c57600080fd5b81019080803590602001909291905050506063565b005b5056fea26469706673582212209510b5658ccbbe5897365571cd29493363894374d3926c433b2d04df6629e15664736f6c634300060c0033",
  "linkReferences": {},
  "deployedLinkReferences": {}
}