{
  "_format": "hh-sol-artifact-1",
  "contractName": "Address",
  "sourceName": "contracts/Address.sol",
  "abi": [
    {
      "inputs": [
        {
          "internalType": "bytes32",
          "name": "c__0xf58e164e",
          "type": "bytes32"
        }
      ],
      "name": "c_0xf58e164e",
      "outputs": [],
      "stateMutability": "pure",
      "type": "function"
    }
  ],
  "bytecode": "0x609c610024600b82828239805160001a607314601757fe5b30600052607381538281f3fe730000000000000000000000000000000000000000301460806040526004361060335760003560e01c806381964d21146038575b600080fd5b606160048036036020811015604c57600080fd5b81019080803590602001909291905050506063565b005b5056fea2646970667358221220ec0d6614f145bc96737deaddbad34c955e81a591e223f1d4622a28998dd3ae8164736f6c634300060c0033",
  "linkReferences": {},
  "deployedLinkReferences": {}
}